:020000040400F6
:1000000072B6002080F30A8880F30B8818480168D4
:1000100021F001010160DFF85CD017484FF48871CE
:100020000160164941604FF41811C0F8841014495A
:10003000C16014484FF04001016000BF00BF00BF25
:1000400000BF00BF00BF00BF00BF00200E49094A2B
:1000500041F8040B9142FBD30C490D4A0D4B00F0C3
:1000600021F80D4A0D4B00F025F80D480047704768
:1000700094ED00E050F1000400000942120000027B
:100080009A7856143000094250E9000450150104D2
:100090000000060400000604000006040000060438
:1000A000D91900049A423EBF51F8040B42F8040BE0
:1000B000F8E770479A423EBF002042F8040BF9E788
:1000C0007047000000000000000000000000000079
:1000D0000000000000000000000000000000000020
:1000E0000000000000000000000000000000000010
:1000F0000000000000000000000000000000000000
:10010000524F505300000000534B4950524F50453E
:100110002DE9F04F824617461C4600259FB00391FB
:10012000387810B9284600F0A9BD252809D00399D0
:10013000D0470028C0F2A2857B1C01350593059F9E
:10014000EEE71822002110A807F0B2FE7B78252BDD
:1001500000F0BC80002398469E469C461846791CB9
:100160000E4611F8012B2B2A00F0E38000F2DA8012
:10017000202A00F0E180232A00F0E1802BB19DF8D5
:10018000483043F040038DF84830B8F1000F05D0F7
:100190009DF8483043F020038DF84830BEF1000F41
:1001A00005D09DF8483043F010038DF84830BCF17D
:1001B000000F05D09DF8483043F008038DF8483013
:1001C00028B19DF8483043F004038DF848309DF87D
:1001D000483003F04401442903D16FF386138DF8AE
:1001E00048309DF848302A2A43F080030E968DF857
:1001F000483040F0A9809DF8493043F001038DF864
:100200004930731C1A782E2A0CBF012100219DF859
:10021000492061F341028DF849200CD15A1C0E92FD
:100220005A782A2A40F0A0809DF84920023342F0F3
:1002300004028DF849201A786C2A00F0C18000F27F
:10024000A380682A00F0A9806A2A00F0C2804C2AA4
:1002500000F0C78013F8012B782A05938DF84B2006
:1002600000F209816D2A00F2C980692A00F2038137
:10027000572A00F2E280412A04D0A2F14503022B62
:1002800000F2F98004219DF84A3002F0DF02A2F169
:10029000410961F30203D9F100029DF8491042EBD4
:1002A000090262F3C7110A068DF84A308DF8491029
:1002B000CBB200F11F8103F07802182A40F00981C7
:1002C0006FF3C6038DF849300023F8E08DF84B300A
:1002D000BB1C05939DF849309DF84A20DE0702F0CB
:1002E000070040F1098154F8041B0029049108DA41
:1002F0009DF8481041F004018DF8481004994942D6
:100300000491590740F1008154F8046B002E80F2EB
:10031000FF809DF849306FF341038DF849304FF06D
:10032000FF36F5E02D2A0DD0302A7FF427AF0123C8
:1003300016E74FF0010C13E74FF0010E10E74FF0F6
:1003400001080DE701200BE70EA801F063FA0E9BF0
:10035000B3423FF457AF9DF848201390C00F60F3AD
:1003600041028DF848204DE70EA801F053FA9DF8A0
:1003700048301490C3F3400242EAD07262F3410362
:100380008DF848300E9B56E7742A26D07A2A7FF4DF
:1003900061AF06219DF849200CE05A78682A9DF843
:1003A000492006D1012161F3C6028DF849200233AC
:1003B00050E7022161F3C6028DF84920013349E775
:1003C0005A786C2A9DF8492001D10421EBE70321DA
:1003D000F0E705219DF84920ECE707219DF8492029
:1003E000E8E7BDF8482022F4F04222F0020242F48D
:1003F000804242F00202ADF84820DFE76E3AD3B205
:1004000001229A4040F282431A429DF8493039D184
:1004100012F0240F61D1D1072DD503219DF84A2078
:1004200003F07803A3F1400861F30202D8F100035E
:100430008DF84A2043EB080341E00120A2F1580166
:10044000C9B200FA01F111F4624F7FF41BAF40F61C
:10045000010319429DF849301AD111F4043F0AD022
:100460009DF84A2060F3020203F07803402B8DF8D8
:100470004A207FF429AF9DF8483043F001038DF8FE
:10048000483021E702219DF84A2061F30202EBE7A0
:1004900002209DF84A1003F0780360F30201402B1C
:1004A0008DF84A1002BF9DF8481041F001018DF807
:1004B0004810632A7FF408AF003B18BF01239DF862
:1004C0004820C2F340010B4363F341028DF84820FA
:1004D00000E713F0380FCED1F6E603219DF84A204D
:1004E00013F0780F61F3020214BF012300238DF88B
:1004F0004A20E4E70123E2E79DF948100029ACBF58
:100500004FF0FF311399FBE69E077FF508AF149E6D
:1005100000230428CDE913339DF8493007D199070A
:1005200005D49DF949100029ACBF06260D2602F01E
:100530000702012AC3F3C30332D1DA1E042A04D806
:10054000DFE802F02045452020002268012B4FEA19
:10055000E271CDE910211BD19DF94020D117CDE9E1
:10056000102104349DF84820069292074FD03A4655
:100570005046059B039904F09BFE0028C0F27E8341
:100580000544DCE554F8042BD117CDE91021E9E747
:10059000022BE6D111B242F3C032CDE91012E0E7EE
:1005A000022A24D1DA1E042A04D8DFE802F0181047
:1005B00010181800012B4FF0000154F8042B14D030
:1005C000022BCDE91021CDD192B21092CAE70734A7
:1005D00024F00704F4E80201CDE91001C2E754F861
:1005E000042B109200221192BCE7D2B2CDE7042A6C
:1005F00008D1073424F00704D4E900010834CDE918
:100600001001AFE7032AADD154F8042BDDE79DF8C4
:100610004B80B8F1780F3FF692ADB8F1570F5CD828
:10062000B8F1250F00F0A480B8F1240F7FF687AD54
:10063000B8F1410F04D0A8F14503022B3FF67FAD7E
:10064000DDE91023002BC0F24D810699080700F167
:100650004C81C1F300194FEA4919C3F30A51C3F39E
:100660001303002940F0448152EA030014BF4FF005
:10067000010C4FF0000CD80240EA5250D702CDE9ED
:100680000C70B8F1460F47EA010740EAE17008BF75
:100690004FF06608384300F0B781BCF1000F10D06E
:1006A0001B0343EA125317033A4618464FF0000C57
:1006B000002880F25681BCF1000F40F05981CDE94D
:1006C0000C730D9BA1F2FE3B43F000430D93002100
:1006D000DDE90C230F46052060E1A8F15802202A2D
:1006E0003FF62DAD01A151F822F000BFB70800047C
:1006F0003F0100043F0100043F0100043F010004EA
:100700003F0100043F0100043F0100043F010004D9
:10071000410600043F010004630800047708000458
:100720004106000441060004410600043F010004A4
:10073000770800043F0100043F0100043F0100046A
:100740003F010004BD080004B708000407080004C6
:100750003F0100043F010004810700043F01000441
:10076000B70800043F0100043F010004B70800047B
:1007700040460399D0470028C0F280820135DEE46C
:10078000002E109F3BDB3146384605F006FC002F5B
:100790003FF4D5AC4FF000093E18F31B9DF84A20FA
:1007A00012F01001069100F05E82023312F0400256
:1007B000DDF84C80089218BF149A434418BF9B1868
:1007C000049ACDF81C80002A40F36882D31A9DF861
:1007D000482004935007C2F3800B00F15F8251065A
:1007E00040F14F82B9F1000F07D048460399D04736
:1007F0000028C0F24382D9460135302242E2384611
:1008000005F0B0FBC6E71098002800F027820DF134
:1008100075030093002117AB12AA01F011F84FF0F5
:1008200000090746BDF84A3003F0EF0343F4F043F4
:1008300043F01003ADF84A30002E0CDB9DF8482041
:100840000DF17503DB1B6FF386129E428DF8482075
:1008500001D9F31A1393002F3FF471AC0DF1750613
:100860006DE0109B4FF000098DF85C300DF15D06D6
:10087000012317AF92E7069B1F0754BFC3F300196C
:100880004FF02B09DDE9102358BF4FEA4919002B1F
:1008900006DA4FF02D09524263EB4303CDE91023F2
:1008A000DDE910010DF17503009312AA17AB00F0FA
:1008B000C7FF0746C0E74FF00009F1E7109A072B82
:1008C0003FF63DACDFE803F00C04060C08080C0C06
:1008D000157034E4158032E4EB17C2E900532EE4BE
:1008E00015602CE44FF02D09B7E64FF02B09B4E664
:1008F00040F2FF70814231D1A34908F101085FFA4B
:1009000088F811F80810134301F003011ED10129E2
:100910000BBF492369234E216E210CBF462266225C
:100920008DF85C309DF848308DF85D106FF38613BC
:100930008DF85E208DF848300DF15F0617AFF31B80
:10094000B9F1000F3FF42AAF013327E7012915BFA2
:100950006E234E23612141211A46E1E74FF0000C3E
:1009600089E692184FF0010C01F1FF3140419FE6FA
:10097000CDE90C20A5E6520842EAC3725B08B3F148
:10098000333F59460BF1010BF5D201F1020B012166
:1009900000FB03FCA2FB0023013F63441BF1020F99
:1009A000E9DB09B1CDE90C23DDE90C32BBF1000F25
:1009B0002DDCCBF10401A1F120000BF11C0B02FA9C
:1009C0000BFB22FA00F0CA40CB40079208F0DF028E
:1009D00043EA0B03472A43EA00037BD1F91C01DBFE
:1009E000BE422ADAA8F10208002E5FFA88F87ADD02
:1009F0009DF84820013E920675D4B6F1000B18BF51
:100A00004FF0010B721C26E04FF0000B5FE6023343
:100A100042F100020CA80BF1FF3B0137CDE90C328B
:100A200004F017FCDDE90C32DB185241002A0BF10F
:100A3000FF3BF9DACDE90C32B6E79DF84820F61B0A
:100A400090064DD4B6F1000B18BF4FF0010BF21910
:100A50004FF066084AD4102AA8BF10229FED487BA9
:100A600010208DED0E7B0B90DDE90E01002A3FD1A9
:100A7000079A1B1842EB0101B1F1805F47D2CDE923
:100A80000C31069BB8F1660F03F0200240F0C680DF
:100A9000002F47DC30238DF85C30002A76D1002E01
:100AA00040F3BD812E238DF85D3087B17B42B34288
:100AB000A8BF3346002B1393A6EB0306D4BF002335
:100AC00001239DF84A2063F345128DF84A200DF169
:100AD0005E0340E0B8F1660F4FF0000BB7D091E72E
:100AE0004FF0000BB3E74FF0000B8BE70022B5E7A8
:100AF000400840EAC1704908CDE90E010EA8CDE9D1
:100B0000082304F0A6FB089A099B013AACE75B08AE
:100B100043EAC1730CA84908CDE90C31013704F050
:100B200098FBAEE717AB0B9900290BDD0BA90CA8BE
:100B3000CDE9063204F0A5FB069B013F079A03F8B6
:100B4000010BF0D11397AAB9002E40F366812E2134
:100B500003F8011B0027002E21DD0B9A002A1EDD61
:100B60000BA90CA8069304F08CFB069B013E03F82E
:100B7000010BF0E72E2203F8012BEBE7AFF3008027
:100B8000000000000000000865BA00042E238DF864
:100B90005D30002F9BD0002E88DC0DF15E03BBF191
:100BA000000F4FD114961E4608F0DF03452B24D1C9
:100BB000002FBABF7F422D232B23632FC8BF64228F
:100BC0007370C4BFB7FBF2F302FB13774FF00A0256
:100BD000C8BF03F13001B7FBF2F3C8BFB17003F136
:100BE000300102FB137386F8008003F13003D4BF99
:100BF00002360336317073700236139B002B2BDCE8
:100C0000149B002BD4BF002301239DF84A2063F3DB
:100C1000861200238DF84A2033708FE60BA90CA8AA
:100C2000069204F02EFB069A30288DF85C0018BF5F
:100C300007F1FF3712B9002E40F3F1802E238DF813
:100C40005D3044E71E4616F8012C013B302AF9D0EE
:100C50002E2A08BF1E46A7E70123D6E7714E81461C
:100C60000523771F9AE5110748BF01339EE510461B
:100C700009920399D0470028099A05DA1FB0BDE808
:100C8000F08F2022DDF810B0594600290BF1FF3B10
:100C9000EDDC049BCDF810B02B445D1AB9F1000FC8
:100CA00005D048460399D0470028E7DB0135089B6B
:100CB000002B77D09DF94930002B28DB3B46DFF82D
:100CC000689118789B4619F80020013352073FD4E9
:100CD0009DF84A30EF1B98065F4407D44246002A2D
:100CE00008F1FF383BDC079B3B449F1A9BF8000050
:100CF0002E280AD10399D0470028BFDBB8F1000F96
:100D000007F1010731DC0BF1010B5D4638E0B94614
:100D100099F80000C846702809F1010913D1EF1BAA
:100D2000149D47443D44EB1B002B33DC33464246C5
:100D30005046039904F0BCFA00289FDB3844049E17
:100D40000546064464E00399D0470028E0DA95E7B9
:100D500006930399D0470028069BB2DA8EE730202D
:100D60000399D0470028B9DA88E730200399D047A3
:100D700008F1FF38C0E70399D0470028FFF67EAF9F
:100D80002878A84619F8003001355907F3D4A7EBA5
:100D90000B07C5E730200399D0470028FFF66EAF58
:100DA0000137C0E79DF84A30DA0601D41B0706D5A3
:100DB00030200399D0470028FFF660AF0135069B2D
:100DC0003BB103999DF84B00D0470028FFF656AF82
:100DD0000135A84406E030200399D0470028FFF6EB
:100DE0004DAF0135A8EB0503002BF4DC33463A4642
:100DF0005046039904F05CFA0028FFF63FAF284400
:100E00009DE720200399D0470028FFF637AF013532
:100E1000731B002BF5DCFFF792B91746BFE60DF107
:100E20005D03BCE6C7A8000466BA000430B52548D7
:100E300085B000F091FF03F0B8FD02F08FFF01A82C
:100E400000F050FB204B1B68834203D01F4800F08A
:100E500083FFFEE703991E4800F07EFF1D4800F067
:100E60007BFF69469DF8080002F062FE28B1BE21B2
:100E7000194B1A4A1A4802F0E9FF0199194D082343
:100E80002A460989009804F02CFA044618B1C121B9
:100E9000114B124AEEE7009804F022FA00F03EFCF3
:100EA00000F058FC84F30B8884F30A882B6883F3E2
:100EB000088884F31488BFF36F8FBFF36F8F6B685C
:100EC0009847FEE736A7000448C100044AA700047B
:100ED00068A7000492A70004B2A70004F9A70004C1
:100EE000BAA7000440C1000421B1012906D06FF067
:100EF00015007047044B53F830007047024B03EB6A
:100F0000C0035868704700BFACA200042DE9F04F41
:100F1000AFB0DFF848B112AD2846DDE93A7A904625
:100F20001E46DBF8004000F0CDFB3FB1BAF1000FE8
:100F300004DD52463946284603F090FE4FF0000982
:100F4000B8F80A20B8F808301344D8F80C20D7189D
:100F50004F4548D829460AA803F0A6FE3C9B4BB152
:100F60000AAF3A4603CAAA4218605960174603F10D
:100F70000803F6D100233246009341464FF6FF7333
:100F800004A803F013FD074650BB3046DDF824806B
:100F900003F0BBFD804523D8DFF8C4900DF10A03B0
:100FA00002AA03A904A803F04FFD8046BDF80A3049
:100FB0004846BDF80820039900F0CEFEB8F1000FB6
:100FC0000EDB41D1039904A803F08AFDBDF80A3075
:100FD00000BB4FF6FF701F4931F8022B824217D138
:100FE000DBF8004032E0399BA7EB090A9A4528BF9D
:100FF0009A46494653463046389A04F072F900281A
:10100000EED15246389912A803F028FED1449FE74A
:101010009342E1D1102BC1D1BDF80840202CDFD183
:1010200023462A463046039904F05BF90028D7D1BD
:10103000224629460AA803F061FD0446064B012713
:101040001B688342AAD0CBE7002FC9D020462FB01F
:10105000BDE8F08F08A7000448C10004A0BB00044D
:1010600001A800042DE9F041304B88B0064600206D
:101070000D461C68FFF738FF06A9C0B202F058FD04
:1010800000284ED12946FFF72FFF2C2407A9C0B214
:1010900004FB056402F04CFD00282ED02C276F4382
:1010A00006EB0708D8F81010069B11F0100133D199
:1010B0004FF4807201921E4A08460092CDE9031156
:1010C00022460291FFF722FF04461A4BF259069876
:1010D0009A420CD1D8F80C20B8F808309B1806D2E8
:1010E0008268934203D2144B1B68A34216D09DB171
:1010F0000021826804F01FF90EE0079804F03CF923
:101100000746079804F0ECF8631EE21C13F8011F71
:10111000B942C3D19342F9D1084B1C68069804F038
:10112000DFF8204608B0BDE8F08100BFA0BB000496
:10113000E0DB00043DB8F39648C100049CBB00040A
:101140002DE9F04B0E46904699460024099FDFF8A2
:1011500044B0BC4201D300200EE03D1BB5F5806FCA
:1011600028BF4FF4806530462B460A4A04EB09013C
:1011700004F0B7F810B10120BDE8F08B08992B46B8
:101180005A464046611804F0C1F80028F3D12C44B7
:10119000DFE700BF4CD100042DE9F0470F460021E6
:1011A000A44B04464362A44B88B003650846FFF78E
:1011B0009BFE04F12001C0B202F0BAFC08BB012181
:1011C000FFF792FE04F14C01C0B202F0B1FCC0B9CD
:1011D000204603F0B1FCD8B90021204603F097FC6B
:1011E000054640BB204603F0FAFC20B304A803F0F8
:1011F000C5FC03F0CCFC10BB40F276718F4B904ADB
:1012000003E040F65D018F4B8F4A904802F01EFECE
:101210000123984284F85830DED194F85830042BDA
:101220008DF8173034D8012B34D800F0F980FF2323
:1012300084F85830F4E0012384F85830EDE79DF845
:101240001760012E17D1284600F044FF831E022BA1
:1012500005460DD831462046FFF704FF7C4B1B683E
:10126000984205D07B4B1D68A84214BF0525012577
:1012700084F85850D1E701212046FFF7F3FE744B64
:101280001B68984201D00523D6E784F85860C4E76C
:10129000052BCAE701210020FFF726FE02A9C0B2F4
:1012A00002F046FC08B1029816E0A36BA58E0298E6
:1012B0001D442946042303AA04F013F80028F2D1A0
:1012C00046F60813BDF80C20E68E9A42029828D103
:1012D000BDF80E309E4206D004F002F840F24D51A7
:1012E000584B5D4A91E7042303AA711903F0F9FFF3
:1012F0000028D8D146F60713BDF80C2002989A4270
:10130000EAD1BDF80E301E4403F0EAFF052002A921
:101310002E4402F00DFC38B140F25751494B4E4A71
:1013200073E7002EE6D0D7E7062003A902F000FC01
:10133000054620B140F25B51424B474A65E7804683
:10134000D4F82890C14517D0636A294603EBC80337
:10135000D3F804A00298524603F0EDFF20B140F20A
:101360006151384B3C4A50E75544B54222D3E56DB4
:10137000B6FBF5F605FB0655E06D03F0C1FBA26A6E
:10138000636A013A196803EBC20300225E689C4657
:1013900032449042A3F10803F8D8DCF800300298F8
:1013A000591A03F0C8FF034638B140F27951254B72
:1013B000294A2AE708F10108C4E7CDE90005DDE97B
:1013C00002212046FFF7BCFE002847D1029800F01A
:1013D00009FE0146002841D1236D03985A6803F0A5
:1013E000AAFF20B140F2B751164B1B4A0DE7D4E9D2
:1013F0001423013B52F8331002EBC3001368426818
:10140000C91A039803F097FF20B140F2C1510D4B68
:10141000114AFAE6029803F063FF039803F060FFB5
:1014200094F85830FF2B1ED140F6D201034B064AE8
:10143000EBE600BF4CC900044CC10004B8A700048F
:1014400094A80004B2A70004B2A8000429A80004CC
:1014500048C100049CBB000470A800044FF4CF6195
:101460001B4B1C4AD1E60021012B1B4D03910ED0D2
:10147000204603F04CFB50B12D68E06C03F030FFC8
:10148000206A03F02DFF284608B0BDE8F087002150
:101490002046FFF7E7FD114E33688342ECD12A68FE
:1014A0009A42E9D00E4A12689A42E5D0039B013372
:1014B0000393039B012B00D0FEE7206A03F073FA2D
:1014C0003871236A5B683C603568BB60D5E700BF54
:1014D000B2A7000480A80004A0BB000448C1000417
:1014E0009CBB0004054B10B5602204460021184641
:1014F00006F0DEFC2146FFF74FFE10BD4CD5000480
:101500002DE9F04F002703689DB003934368DFF88F
:10151000B0A104938368DDE903460593C36806938D
:101520000369DDE905BE0793436908938369DDE933
:10153000072C0993C36998460A93099B0193CD59D7
:101540000CAB2DBA5AF8049BDD514FEAF223A944A3
:1015500083EAB213019D83EA72634B4425EA0205D4
:1015600002EA0C0985EA09052B44434486EA0B0587
:101570004FEA743888EAB408254006EA0B0985EA80
:10158000090588EAB458A844043703EB0E05402F38
:101590004344DE46DDF8048000937FD14FF0100A0B
:1015A000464B0B9351460AF1010A1CAB0AF00F0798
:1015B00003EB870757F8403C01F00F094FEAB348A7
:1015C00001F10E070931029388EAF31801F00F01C7
:1015D0001CAB03EB810103EB890907F00F0751F8FE
:1015E000401C03EB870759F8403C57F8407C1944EE
:1015F000029B4FEAF74E88EAD3088EEA774E8EEACE
:10160000972E414471444FEAF52E0B9B05EA0208E0
:101610008EEAB51E2CEA05078EEA756E87EA080782
:10162000774453F804EF49F8401C77440F440B9378
:101630000199009B39444FEA733E84EA06078EEA1B
:10164000B30E1F4004EA06088EEAB35E87EA080775
:101650007744BAF1400F01EB0B0E0F44B346CDF8BF
:1016600004C023D1039B00993B440360049B0B44BB
:101670004360059B23448360069B3344C360079B00
:1016800073440361089B2B444361099B13448361AA
:101690000A9B6344C3611DB0BDE8F08FB346CDF82B
:1016A00004C026469446009C2A4648E794462646AF
:1016B0002A46009C7546009774E700BFF0A200041C
:1016C000B4A2000410B50446C8B17022002103F092
:1016D00048FB0B4B0B4A0C49C4E900230B4B0C484D
:1016E000C4E902130B4BC4E9040301200A4BA361B4
:1016F00003F17453A3F52303A3F69243E36110BDF2
:1017000085AE67BB67E6096A72F36E3C3AF54FA592
:101710007F520E518C68059BABD9831FBFF36F8F2F
:1017200072B600234FF0FF30094A03F12001013364
:10173000102B42F82100F8D100234FF0FF30044A6B
:1017400003F160010133102B42F82100F8D17047FA
:1017500000E100E0002318460649D1F89020C2F3CA
:101760000722934200DB7047C1F89830C1F8A0000F
:101770000133F6E700ED00E0014B1B68184700BF9E
:10178000A4BB000413B502460B46EFF311841021ED
:1017900081F31288BFF36F8F002105480091FEF797
:1017A000B7FC84F31188BFF36F8F02B010BD00BF88
:1017B0007917000430B5002587B0CDE90301044650
:1017C000009503A905480595FEF7A2FCDDE9043064
:1017D0009842B8BF255407B030BD00BF2F52000457
:1017E00080B505460E461746984605F081FE03462D
:1017F00004F024FD0446DFF81890424649F8003012
:1018000039463046A84754F8090000F035F900BFC2
:1018100008000000F0B5024601680A270020074EC4
:101820000B461C780131355D6D0701D41360F0BDA6
:1018300007FB0043A3F13000F2E700BF66BA0004E3
:101840002DE9F84F15469A46D378234A6F2B12F8A4
:1018500003B081460F460BF0030B2BD026D8582B34
:101860000CBF10260A26DDF82880324600234846A1
:10187000394602F0D1FA092A08F1FF38D4B21ED84D
:101880003034B145E4B277F1000788F8004001D365
:10189000D04511D82B789B0605D5082E15D1AB78ED
:1018A00043F00803AB704046BDE8F88F03F0F70340
:1018B000702BD5E70826D6E781460F46D5E7BBF162
:1018C000010F0CBF37345734DBE7102EEBD1AB7868
:1018D00043F01003E6E700BF66BA000470B588B0B5
:1018E00005460C46C0B26946164602F021F90028AA
:1018F0001BDB0098C8B14368226802938368019596
:10190000CDE903360023CDE906230593C56803F02E
:10191000E7FC6DB12846084901AA03F0E9FD0798E4
:1019200008B9059B236008B070BD6FF01500FAE799
:101930006FF01200F7E700BF8753000408B50448B2
:1019400000F00AFABDE80840024800F005BA00BFFE
:10195000C8A80004EEA800042DE9F04105460B4E8E
:10196000DFF83080324606EB0807CC1B20460849DA
:1019700006F0E6F9A01942460021083C06F098FA64
:10198000C5F8A44007F10800BDE8F08100000000A0
:1019900040A2000404000000074A936893F90E1067
:1019A000002907DB926993421FBF044A536843F042
:1019B00080535360704700BF98DA000400ED00E0E8
:1019C000044B5A6942F010025A615A6942F480622B
:1019D0005A61704700ED00E0002080F31488BFF3E7
:1019E0006F8F002080F30A8880F30B8800200E4957
:1019F0000860BFF34F8F0D4880F3088800F01AF895
:101A0000102080F311880A484FF40061401880F3D9
:101A10000988EFF314800221084380F31488BFF390
:101A20006F8F00F059F8000094ED00E050F10004D1
:101A300010E0000472B6002383F313884FF0FF30E8
:101A40000C4A03F120010133102B42F82100F8D198
:101A500000234FF0FF30074A03F160010133102BE0
:101A600042F82100F8D162B6BFF34F8FBFF36F8FFA
:101A7000704700BF00E100E0084B9B6883420BD138
:101A8000EFF3058343B1064B5A6842F080525A6027
:101A90005A6A22F400425A6206F04FB898DA0004FB
:101AA00000ED00E06FF00A01094A9368C3F8AC103A
:101AB0000849C3F8A8004B6843F080534B600023EB
:101AC00083F31188BFF36F8F9368D3F8AC0070472E
:101AD00098DA000400ED00E0134A08B5134B22F039
:101AE0007F029A60BFF34F8FBFF36F8FD3F88820C8
:101AF00022F47002C3F88820D3F8882042F4A002B0
:101B0000C3F888204FF04042C3F83422BFF34F8F10
:101B1000BFF36F8F0023E1EE103A04F0EFFE00F008
:101B200087F804F02FFF00BF0064000400ED00E020
:101B300042F8203C009B0D4942F81C3C019B21F0DF
:101B4000010142F8183C029B42F8081C42F8143C80
:101B50004FF0807342F8043C0023C0F8A8304FF4E3
:101B60007D43203A0265C0F8F0307047E117000469
:101B7000104B9B6883421AD1EFF30580B8B9EFF39D
:101B80001181102282F31288BFF36F8F1A7B22F02B
:101B900002021A73EFF3148323F0040383F314880F
:101BA000BFF36F8F81F31188BFF36F8F70476FF0B2
:101BB0001500704798DA000408B504460E4615462D
:101BC0000023E1EE103AEFF3148323F0040383F3D0
:101BD0001488BFF36F8FBFF36F8F104BD0F8A42022
:101BE00098600F4B1A6005F011FFD4F8943083F31E
:101BF0000B882C4686F309884FF00000054B984768
:101C000020464FF000014FF000024FF00003024C5D
:101C1000204700002D540004E117000498DA000466
:101C2000ACD500041022014B1A61704700ED00E0B2
:101C3000002310210348C2180133352B82F800130A
:101C4000F9D1704700E100E0F8B506460D460024E2
:101C5000064FAC4208DA3B6898470A28305504F131
:101C6000010401D00D28F4D12046F8BDA8BB000422
:101C7000F8B50D46094F461EC0F10104A3199D4257
:101C800001DC2846F8BD73780A2B02D10D203B6891
:101C900098473B6816F8010F9847EFE7ACBB000484
:101CA00010B5074C2368C2180648C0F1806101F5E1
:101CB000C0218A4236BF22604FF0FF30C01810BDED
:101CC000B0D500045015010408B5054800F044F8EB
:101CD000002383F31188BFF36F8F0423184602DFBC
:101CE0001AA900040FB470B5A2B026AB53F8046B68
:101CF0008021324602A80193FFF75CFD8028A8BF2F
:101D000080200025044602A9A5420FDB30460A497F
:101D100004F04FF928B90D2004F0FCFB0A2004F070
:101D2000F9FB22B0BDE8704004B0704711F8010B18
:101D300004F0F0FB0135E7E743AE000410B50548B9
:101D400004F030FD026951798368BDE81040DB681A
:101D5000184700BF9DAB00040FB413B50C4B049C97
:101D60001B687BB105A920460191FFF70BFD2046BA
:101D7000084904F01EF928B90D2004F0CBFB0A2015
:101D800004F0C8FB02B0BDE8104004B0704700BFCB
:101D9000B8D5000443AE0004D0E900230148FFF7A2
:101DA000DBBF00BFABAB000407B50092D0E9002356
:101DB0000248FFF7D1FF03B05DF804FBFAAB000463
:101DC000F0B50446264A8BB01068516802AB03C3D5
:101DD000244E18220021184606F06AF822482146AF
:101DE0003268FFF7B9FF01A807F027FB34B12623BB
:101DF00031681E4D03FB01F2AA587AB1019807F031
:101E00002AFB0BB0F0BD03FB02F02858844204D13A
:101E100021461748FFF7A0FFF0E701329142F2D1C7
:101E20004B43EA181171EC5094F90E30204653716F
:101E300005F0E8FD02AF002818BF0746384604F059
:101E400091F826233468202803FB045502463946BE
:101E500028BF2022A81D013405F072FF3460CDE7B1
:101E600070A20004B4D5000457AC0004E0DC000408
:101E70008EAC00047FB5044603A807F0DEFA2625E1
:101E80000022184B1868184B904216D005FB02F13F
:101E90005E58B44224D106310B442022002118465A
:101EA00006F006F8034604F1740204F1940152F8B6
:101EB000040B8A4243F8040BF9D1039807F0CBFADC
:101EC00094F877302146019394F8763007480093D0
:101ED00094F8753094F87420FFF73EFF04B070BD9D
:101EE0000132D1E7B4D50004E0DC0004D6AC000434
:101EF000F0B58BB06C460F46284D06460FCD0FC48B
:101F00000FCD0FC495E80300254A84E803003C0286
:101F1000B2FBF4F00A25B0FBF5FC002305FB1C0026
:101F20007361A3F5806373621E4BB3FBF4F108B9D0
:101F30009C4200D9013107FB01F01A4CB3FBF0F3CE
:101F40003844B3F5807F24D888B2F0617943981E75
:101F5000013B40081B0443EA006343F00303336280
:101F6000B2FBF1F30A22B3FBF2F102FB11330AAA2E
:101F700002EB830353F8283C73620B4B9F4206D954
:101F80000A4B9F420CBF1123122386F836300BB048
:101F9000F0BDB4FBF0F301313844D2E740A20004B5
:101FA00000D012130048E801BFC62D00903B84000A
:101FB00010B5094C4FF46121204603F086FAFFF773
:101FC00097FF2323012284F83430044B0020E3627E
:101FD000034B1A6010BD00BF00002442010801013C
:101FE000B8D50004F0B585B06E4681680546103955
:101FF00021F0070403F0C0F932460A4B03F1100C3C
:10200000374618685968083303C763453E46F7D119
:1020100010232146284603F079F9003818BF012023
:1020200005B0F0BD26A7000430B50D46816887B025
:10203000102302AA1039044603F053F9002802DAEB
:10204000012007B030BD1022204602A903F090FA0B
:1020500000283AD110221E4902A803F0CEFE002823
:102060000CBF012302232B70204603F06DFA0123DD
:1020700001460DF10702204603F033F90028DFDBAB
:102080009DF80730204603F00F021B096A702B7180
:1020900001220DF1070103F06BFA10B96B78042BE4
:1020A00003D901236B7000232B71A2682046183AD4
:1020B00022F00702083AA91C03F06DFA0028BFD1EC
:1020C0002046E91C03F083FABBE70323CBE700BFFC
:1020D00026A700047FB5264D4400694655F8240024
:1020E00003F07BFA002835D1013455F8240002A909
:1020F00003F073FA01282BD103238DF808308DF8F3
:102100000B3000249DF800509DF80860194A2946BC
:10211000107803F01FFA18B33146507803F01AFA1A
:10212000F0B19378042B03D09DF80310994217D196
:10213000D378042B03D09DF80B10994210D113795A
:10214000042B09D15079831E022B03D804B070BD33
:102150000028D6D0FF20F9E79DF802109942F1D06F
:102160000134032C02F10602D1D10120EEE700BFB9
:10217000B4A3000407AD000470B588B001AA1446EA
:102180000B4B03F11806154618685968083303C548
:10219000B3422A46F7D11B882B8000256178013590
:1021A00014F8020B07F06CFA0D2DF7D108B070BDD2
:1021B00090A2000470B51B4B1B7F6BBB1A4C90B9EF
:1021C0002823207263722523A3720D23E372174B19
:1021D0005A7B0C2A0CBF0222012222741B7B032B88
:1021E0001BD10123637401250E4E0520357706F0BF
:1021F0004FFF6571A5716570A57000240F2006F072
:1022000047FF75772946B5779D20F5773476747644
:1022100007F036FA064B1C7070BD042B0CBF02236E
:102220000023DFE70000054200701042B0BB00044D
:1022300042DF0004084A137F63B100230749537744
:102240009377D3778B704B718B714B70137701231E
:1022500013765376704700BF0000054200701042AD
:10226000024B1A7B1868B0FBF2F07047B0BB000459
:10227000A0F1D102042A08B5034607D8054A134441
:1022800013F8D10CB0FA80F0400908BD002107F026
:10229000F7F9F7E742DF00042DE9F843064600248A
:1022A000134DDFF8509005EB440393F801800D23A4
:1022B00015F8147003FB079313F8083003F00F03AD
:1022C0005EB9022B0BD10134E4B215F81430202B87
:1022D000E9D1BDE8F84307F0D9BB022BF3D1414661
:1022E000384607F0B7FA4146384607F04FFAEAE7B2
:1022F00094AD0004A49F00041F2816D80D220C4B97
:1023000002FB00339A7902F00302022A04D1094B3E
:10231000034413F81B0C70470D2801D107F064BA71
:10232000D3F807301878C0B270470020704700BF5C
:10233000A49F000447DF0004F8B5002601230446EB
:102340001E481F4D8671C371C671D5F8243201EB4A
:1023500004271B0C1B043B44C5F82432C5F8002499
:10236000467207F093FC40F2513398420CD80F2983
:1023700005D025291BD1134B9B7D032B04D10022B3
:102380000E4B1A7201225A7201230C4D002C14BFFD
:10239000C8200520AB7106F07BFEAB881B06FCD481
:1023A000074BD3F80C046B7A03B14000F8BD342915
:1023B000EAD195F82C30022BE0E700BF000403427D
:1023C00000000342007010420A4610B50C46014658
:1023D0000020FFF7B1FF04490023621CA0FB0101AC
:1023E00001F01AFD10BD00BF0048E8010146014898
:1023F00003F011B90048E8012DE9F84F4FF47A7362
:102400000D464B43A0BB1D4A4FF01108107203222A
:102410002024B3FBF2F3B1FBF2F5DFF868A0184615
:10242000FFF7E4FF274681464FF0000B144E86F875
:102430001FB0142086F81DB086F81EB08AF8004040
:1024400006F026FE01234946F37740467377B377BB
:1024500003F0D7F885429CBFE41BE4B2C7F34707FB
:102460003C44E4B2002FE2D18AF80040BDE8F88F86
:102470004FF00F081024DFF810A0D0E700701042D2
:102480000000054209701042087010422DE9F04F1B
:102490004C4E93B0F37BB27B71684B48FFF75CFC0A
:1024A000FFF7DEFE42F2107374683168A3EB54024A
:1024B0001C1B02FB01F50C916143B1FBF3F1B5FB71
:1024C000F3F54243CDE90E106043B2FBF3F2B0FBEB
:1024D000F3F00D950025DFF8FC80DFF8FCA01092EA
:1024E00011900CAC0DF1180909AF54F804BBA168A8
:1024F0005846059103F0A8F898F809300599DBB221
:1025000049F8043B98F808205046D2B247F8042B0B
:10251000CDE9013200912B4629465A460135FFF795
:102520001BFC032DE1D101274FF00008069A099BFF
:10253000264C03EB42139BB26382677084F80480DD
:102540006571237C4FF4A5707B40237406F0A0FDD9
:102550002770079A0A9B502003EB42139BB26382B9
:102560000223677084F804806371237C7B402374AA
:1025700006F08EFDB37B1648033BDBB2A371F37B01
:10258000072B98BF23FA07F5E571A179E279FFF7E8
:10259000E3FBDDE906329A1ADDE909315B1A03EB48
:1025A00042139BB2A381DDE907329A1ADDE90A31B1
:1025B0005B1A03EB42139BB2E3810123A37013B0B8
:1025C000BDE8F08FB0BB000419AD00040000054267
:1025D00073AD00040070104243AD000438B5002014
:1025E000FFF7E8FDFFF73CFE0C4C01462568284646
:1025F00003F02AF8637C0BB1FFF748FF637B062BDF
:1026000007D10121182007F025F90121182007F032
:10261000BDF8BDE838400020FFF73EBEB0BB000467
:1026200010B5FFF7A9FD0122074B00241A705A705C
:102630009A70DA701A710222044B1C70044B1A74DF
:10264000FFF7CCFF204610BD42DF000441DF00044D
:10265000B0BB00040346084A30B400F1100514462C
:1026600018685968083303C4AB422246F7D118688A
:10267000206030BCFFF7D4BFB0BB0004012273B5AB
:102680002D4B2E4C1A70DA71618C2D4889B2FFF7F0
:1026900063FB2C4BE17F9A69072061F30B229A615F
:1026A00001A9032200F066FA9DF8043003F040030C
:1026B0000343DBB25BB99DF8053003F01F0384F8D8
:1026C00024309DF8063003F00F0384F825300125EF
:1026D000002607232576E6766376174B1A4883F89B
:1026E0003C50A3F1FD73D3F8982065F30A22C3F898
:1026F0009820FFF731FB84F8296007F0EBF82946B2
:1027000084F82950092007F067FA42F21071252059
:1027100002F07FFF42F210710446262002F079FF9A
:10272000054607F0B3FA2A46034621460748FFF755
:1027300013FB02B070BD00BF0000064200701042E3
:10274000AAAD000400000C40BFAD0004D6AD0004EB
:1027500008B50248FFF700FB002008BD09AE0004E1
:10276000F0B500240B490A46002312F8115F0CE073
:1027700012F8017FC65CB74206D00134032C01F188
:102780000A01F0D1002004E001339D42F0DCF4D1D5
:102790000120F0BDBCA300040A22024B02FB003062
:1027A000704700BFCCA30004014B196802F059BF69
:1027B00080D7000470B5144605460E46102200214D
:1027C000204605F075FB044B224631462846BDE8FD
:1027D00070401B6802F069BF80D7000408B548B993
:1027E00005F0C6FB074A0028106008DBFFF7D4FF9E
:1027F000054B18600020054B054A1A6008BD0120F2
:10280000FCE700BF8CD7000488D7000484D70004FD
:10281000FCA30004F7B51F4C01222146002000F064
:10282000A9F918B14FF0FF3003B0F0BD1A4D0122E5
:102830002946022000F09EF90028F3D12378174F93
:1028400003F0FD03012B1DD12B78062B1AD1144B5D
:102850001A78202A16D15A78502A13D19B78152B32
:1028600010D14FF48013019001A83B6006F0E5FD04
:1028700006F0B1FC0646019806F0EDFD3146094828
:10288000FFF76AFA08483B682A782178FFF764FA6C
:102890000020C9E751DF000450DF0004A0D6000487
:1028A0004CDF000424AE000446AE00042DE9F84FCE
:1028B0000020FFF793FF0746002853D12B4A2C4BEB
:1028C000156828221B682B4C02FB03552A4B6A888B
:1028D00005F128061A60294B05F108021A6005F176
:1028E0001803224618685968083303C2B3421446D5
:1028F000F7D1234C234BDFF8A490C4F8AC30224B23
:102900004FF0006BC4F8B0304FF000086FEA0903D5
:1029100018482360A4F8C680C4F804B002F0B9FED9
:102920001A4EDFF87CA030605A46214650466B684C
:1029300002F0B2FF783008D106F038FD40F20641CF
:10294000134B144A144801F081FA4A464046316854
:10295000FFF730FFC6E901A4C4F8149086F8808020
:10296000FFF758FF3846BDE8F88F00BF84D7000452
:102970008CD7000470D700046CD7000480D7000403
:10298000BCD500046BDF000452DF0004A0D60004B5
:10299000B8A70004C9AE00047EAE000424D700042A
:1029A00034D7000438B5094D95F90030053302D00D
:1029B0000024204638BD02F0B6FE04460028F8D1B7
:1029C000034802F0B2FE2C70F2E700BF84BC0004A2
:1029D000A0D60004024B0146986806F061BC00BF17
:1029E000A0D60004023808289ABF024B18566FF090
:1029F0000600704739AF000408B51C2006F06AFBDA
:102A00001C20084900F0CAF9074B1C201A6842F440
:102A100000721A605A6C42F4E0125A64BDE8084031
:102A200006F046BB4D800004000008402DE9FF4140
:102A30003D4B20F000671B689F4204D96FF00200F5
:102A400004B0BDE8F081F1B9C0F30B03002B0CBF5B
:102A500000256FF002054FF480564FF00108002367
:102A600031460DF1030240F000608DF8033001F0B3
:102A700003F99DF8034034B340F291212B4B2C4ACB
:102A80002C4801F0E3F901290BD1C0F30E03002B10
:102A90000CBF00256FF002054FF400464FF002080E
:102AA000DDE702290AD183B2002B0CBF00256FF0AD
:102AB00002054FF480364FF00408D0E700266FF08F
:102AC0000205B046CBE73846FFF784FF431C08BF3A
:102AD0006FF00205234647F000679E4201D80020B0
:102AE000AEE7FA5801320BD10433F6E703A901200F
:102AF00007F022F9DDE9020101AA07F02AFAEEE760
:102B000040EA0878002D99D102A9012007F014F9B4
:102B10004146054802F01BFE0028E7D004B0BDE89E
:102B2000F041FFF75FBF00BFA0D60004DEAE000497
:102B300052AF0004F3AE000408B513460A4620F075
:102B40000061044806F06CFB18B1BDE80840FFF7CF
:102B500049BF08BDA0D6000438B1054B1B6803600F
:102B6000B3FA83F04009404270474FF0FF3070479E
:102B7000A0D6000407B51346012200920A4601467A
:102B8000054802F000FE002814BF6FF0020000208C
:102B900003B05DF804FB00BFA0D60004FF20104A7C
:102BA000D1F8AC30C1F8BC200E4AC1F8DC200E4A86
:102BB000C1F8E0200D4AC1F8D820D1F8B0209075B6
:102BC0003820D1F8B020D0754220D1F8B02010754F
:102BD000D1F8B020482151753C2200209A717047ED
:102BE00000030001B98500045D8F0004D98E000444
:102BF000FF20104B10B5C1F8BC300F4BD1F8AC2002
:102C0000C1F8DC300D4B4224C1F8E0300C4BC1F868
:102C1000D830D1F8B03098753823D1F8B000C375EA
:102C2000D1F8B00004754820D1F8B0104875937100
:102C3000002010BD00030001B98500045D8F000471
:102C4000D98E000438B500252E4BC0E90855036025
:102C50002D4B456083602D4B0C46C3602C4BC0E967
:102C600004352C4BC0E906352B4B83622B4BC362DA
:102C7000A1F8BC50C0E90C5502F049FDB0F1807FCD
:102C800094BF03230423AF2284F8C530D4F8B030B6
:102C900028465D74D4F8B0309A729F22D4F8B030D0
:102CA0005A720222D4F8B0301A702022D4F8B03010
:102CB0009A715222D4F8B030DA71D822D4F8B030F8
:102CC0001A72B022D4F8B0309A703022D4F8B030F2
:102CD000DA700622D4F8B0305A70B922D4F8B03085
:102CE0009A74AB22D4F8B030DA740522D4F8B0303C
:102CF0001A741E23C4E90255A4F8B850257484F848
:102D0000C03038BD1393000475920004E98C0004B0
:102D1000258B000445890004599300044F93000457
:102D200038B50E480378B3B90D490E4D4A780F2ACD
:102D300005D9B8210C4B0D4A0D4801F087F8EC1865
:102D400012010133D2B2352B84F8002301F10601C0
:102D5000ECD101230370002038BD00BFF7DF000471
:102D60003DB2000400E100E0B8A700042FB2000467
:102D700052B00004C3B2342B0AD8012206494309D9
:102D800000F01F0082406033002041F8232070478C
:102D90006FF00200704700BF00E100E0C3B2342BC7
:102DA000024613B515D8A1B101A806F046FB0120D3
:102DB00002F01F04A0405309074C603344F823007D
:102DC000064B019843F8221006F045FB002002B0A4
:102DD00010BD6FF00100FAE700E100E0D0D7000479
:102DE00010B501B101382F4B1C6844F480341C60CD
:102DF0002D4C002A3ED11A6842F480321A6010220B
:102E00009A601A6822F480321A604FF47A72B0FB2A
:102E1000F2F207EE902AF8EEE77A27EE800A012216
:102E2000BCEEC00A83ED070A5A60E368D807FCD4F9
:102E30002369DB07FCD41B4B1A6822F440721A602A
:102E400029B101291A6826D142F480721A60636898
:102E5000002003F002036360A36803F00203A36091
:102E60000123104CE36006F023F9236843F00103CB
:102E7000236010BD1A6842F480321A600D229A60F5
:102E80001A6822F480321A600122D8615A60E3681D
:102E9000DA07FCD4CCE702290CBF42F4007242F4FA
:102EA0004072D3E700001742000117420122014B94
:102EB0005A6170470000174213B52E4C01A806F066
:102EC000BCFA94F82C20002A4DD12B4BC3E90022E8
:102ED0002A4B1B68D3F8001862F31041C3F800189E
:102EE0001021D3F8042F22F00102C3F8042FD3F8E5
:102EF0000C2F22F00102C3F80C2FD3F8082861F33D
:102F000004020221C3F80828D3F8002861F309223B
:102F1000C3F800280122C3F80428D3F8142FD107DE
:102F2000FBD50122C3F814284FF0FF32C3F81C2848
:102F3000D3F8182FD207FBD5D3F80C2842F00102A2
:102F4000C3F80C28D3F8002842F00102C3F8002887
:102F500000220B4B63620B4B1A70A36200F0CEF899
:102F6000012384F82C30019806F075FA002002B095
:102F700010BD00BFB0D80004A8D80004D0BB000426
:102F800079310004F8DF000407B50C4B02681A60C1
:102F900042685A60028901A81A8106F04EFA02209E
:102FA00000F05CF9064B1A78586001985A7006F0E8
:102FB00052FA002003B05DF804FB00BF7ABC0004A5
:102FC000A8D8000410B5174C23681A69D1070BD58F
:102FD000DA68D20708D55A6942F001025A61124AEA
:102FE00053680BB1906898472368D3F81021D00735
:102FF00048BFD3F80C21D3F81028D10710D5D3F847
:103000000C28D2070CD5D3F8142842F00102C3F8DB
:103010001428054A536A1BB1BDE81040906A18474E
:1030200010BD00BFD0BB0004B0D8000413B50446E7
:1030300001A806F002FA064B1B68C3F81C48D3F837
:10304000182FD207FBD5019806F005FA02B010BD83
:10305000D0BB0004F0B50E460746044687B001AD6C
:103060000FCCD4F800C00FC53C4635460FCD0FC479
:103070002B6801AD236034460FCD0FC4094AC4F854
:1030800000C0136839685B6853F82100346853F84E
:10309000244043F82140136832685B6843F82200FB
:1030A00007B0F0BDA4D8000470B50C4686B0064643
:1030B0001422002101A804F0FBFE5CB94FF0FF339D
:1030C0003446019301AD0FCD0FC42B682360304609
:1030D00006B070BD94F90930002B03DC0648FEF7FA
:1030E0003BFEEBE72468637A022BE7D10FCC354631
:1030F0000FC523682B60EAE77BB3000410B5084CCA
:1031000023785BB9152005F0E5FF06491520FFF788
:1031100045FE152005F0CCFF0123237010BD00BF34
:10312000F9DF0004C52F00042DE9F8434FF0000932
:103130004B464FF47A75904600F06EFE0446A2FBB3
:10314000050C05FB03CC0B4F0E46D7E90031C01828
:103150004CEB010142464B4600F05EFEC7E90023FE
:10316000A4FB054305FB0633201843EB0101BDE832
:10317000F88300BF18BD000405232DE9F047324C49
:1031800086B02360037873B3DFF8CC902F4DD9F865
:103190000030296801A8D3F81878FFF785FFDDE92A
:1031A0000186B8F1FF3F9DF80CA04AD0684606F0B2
:1031B00044F99DF80D30022B2CD125490B7853454D
:1031C00008BFB74226D3DDE90476B6B1326821489C
:1031D000824212D1013301200B7006F0D3FD00981A
:1031E00006F039F9D3E70120194A13780133137037
:1031F00006B0BDE8F04706F0C5BD2868012241468B
:1032000002F00AFC009806F026F9002FBFD03046E5
:10321000B847BCE7009806F01EF9684606F00DF9BD
:103220002368052B0AD1296801A8FFF73DFFDDE9D6
:1032300001506B1C02D0FFF7F9FE2560009806F0E4
:103240000AF906B0BDE8F087D4BB0004A4D8000496
:10325000A8D8000400005555D0BB0004044B022838
:103260001B681ABF03EB00239869D3F8180870474E
:10327000D0BB00042DE9FF41054604A800E90E007B
:103280000A9BBDF80C000B99C01841F100014FF4E6
:103290007A72002300F0C0FD9DF804702A8138186E
:1032A00041F100013C22002300F0B6FD9DF80560CD
:1032B0002A70301841F100013C22002300F0ACFDDF
:1032C0009DF806406A70201841F100011822002381
:1032D00000F0A2FD4FF0010803269DF808309DF88C
:1032E00007402B71BDF80A302418204FAA7041F115
:1032F0000001EB802B79E888022B20D102F013FB30
:10330000B8B11E2C71F1000322D31D3C61F1000104
:103310002E71EFE70133DBB20C2B2B7104D8A21A0C
:10332000144661EB0C01E5E70130E88085F8048084
:10333000F5E71D2C71F100030AD31C3CE6E75A1E89
:1033400057F822204FEAE27CA2427CEB010EE1D347
:103350000723E4B2B4FBF3F30020C3EBC303EC7028
:10336000E41A6C7104B0BDE8F08100BF28A5000428
:103370000A4610B5C0B20C460321FEF7DDFF044932
:10338000013402460023A4FB010100F045FD10BDFD
:103390000048E80110B50B4C627C636862B1A3F58C
:1033A000F843183BB3F5FA6F04D963210120FFF706
:1033B000DFFF6060606810BD6321BDE81040012040
:1033C000FFF7D6BFE0D8000473B5044618B96FF014
:1033D000010002B070BDFFF7DDFF124B02461B6813
:1033E0001148D3F81838456801789D42467811D8BD
:1033F000581B891BFFF798FECDE900010B4B2046B7
:1034000019685A681B89FFF735FF2046FFF7BCFD96
:103410000020DEE78E42DAD2891B013DE81A01392D
:10342000E8E700BFD0BB0004A8D800047ABC0004C1
:1034300070B50024084E204600F020F905462046CD
:1034400000F02CF920B156F824300BB128469847EB
:1034500004B170BD0124EEE7F4D8000410B50446B1
:1034600038B30378012B24D84368013BB3F57A7F46
:103470001FD20021084600F0EDF80020616800F03E
:103480009BF80020217800F0D3F82378012B06D197
:1034900019200949FFF782FC192005F009FE0020D8
:1034A00000F006F9054862682178FEF755FC002017
:1034B00010BD6FF00100FBE73134000489B3000454
:1034C00008B5002000F018F90020014B186008BD75
:1034D000F4D8000418B1024B1A68186010467047FF
:1034E000F4D8000408B5054B984204D1002000F040
:1034F00089F8002008BD4FF0FF30FBE7FECAADDEC3
:1035000008B5074B984208D10121002000F0A2F82D
:10351000002000F077F8002008BD4FF0FF30FBE7F7
:10352000BEBAFECA08B5064B984205D1002108462E
:1035300000F090F8002008BD4FF0FF30FBE700BF1F
:103540006500FECAF0B50024064685B0184F03A8F2
:103550000D46CDE9014405F070FF01A9204606F0B3
:10356000EBFB019957F8260002AA06F0F2FC029B39
:10357000072B104B05D853F82620012A0CD0022A1D
:103580000ED0019A43F8265047F82620039805F0FC
:1035900062FF204605B0F0BD012D06D00224F0E701
:1035A0006C1E18BF01246400EBE72C46EEE700BF59
:1035B00004D90004FCD8000438B50C4602210546A5
:1035C000FFF7C0FF022803D14FF4807005F060FDC3
:1035D0008DB940F2FF339C4228BF1C4643F6095286
:1035E000054B6343B3FBF2F3044A1B0443F012039D
:1035F0005360034BD36038BD40420F0000000942C6
:103600009A78561410B501210446FFF79BFF012854
:1036100009D0022803D14FF4807005F039FD14B9A8
:10362000014B024ADA6010BD000009429A78561434
:10363000012904D110B9044B044ADA61704700280B
:10364000FCD1014B024AF8E70000094217011801BA
:103650001700180030B9064B29B1064A1A604FF41A
:103660008B725A617047044A1A601622F9E700BF4C
:1036700000000942100111001000110048B9064B6A
:103680009B699A0704D403F00103C3F10203D8B283
:1036900070470023F7E700BF0000094220B9034B41
:1036A000186A00F0010070470020704700000942CE
:1036B000044B20B14FF49372A3F886207047262262
:1036C000FAE700BF00000942044B20B14FF49272A8
:1036D000A3F8822070472422FAE700BF00000942C5
:1036E000044B20B140F22312A3F88020704723221C
:1036F000FAE700BF0000094280B9094B1A6A10229C
:103700001A60084A5A6002F1006201329A60162279
:103710005A61054ADA6119229A629B6A704700BFB2
:10372000000009421200FF071700100008B5002032
:1037300005F0D0FC0020FFF71DFB07490020FFF734
:103740002DFB01229FED050A11464FF47A70FFF719
:1037500047FB002008BD00BF799100046F120342AF
:103760000048704758A50004034B00201A880A80BF
:103770009B788B70704700BF4CDF000438B50D4656
:1037800014464FF400714FF480520448FEF7E4FAF7
:10379000034B2B600123236038BD00BFA9B3000495
:1037A0007CA5000470B50C4615460DB92E4614E0F4
:1037B000A3B2A3B9B5F5803F11D320460221FFF78C
:1037C00035F9064604F58034A5F58035002EECD099
:1037D00021461048AA0AFEF7BFFA304670BDC4F36E
:1037E0000E0363B9B5F5004F09D320460121FFF759
:1037F0001DF904F500440646A5F50045E6E7204618
:103800000021FFF713F904F580540646A5F580550D
:10381000DCE700BFD6B3000410B501F0A8FF0446F2
:1038200001460748FEF798FA34B9064906488B78EE
:103830004A780978FEF790FA044B20461C6010BDC8
:10384000F3B300044CDF000420B40004D8BB000430
:1038500010B5044601460548FEF77EFA2369044880
:103860005979BDE81040FEF777BA00BF5BB4000499
:103870008DB4000438B5036975465B79044643B9D5
:103880000548FFF72FFE23699D60246904F0AFF916
:10389000E060002038BD00BFFECAADDE37B50C4683
:1038A00005461848FEF758FA236843BB2B695B7935
:1038B0001BB10024204603B030BD02F0CDF8014614
:1038C0001148FEF749FA2B6961681B680F488DF8AB
:1038D00000300191FEF740FAA3682BB10C48FFF7C6
:1038E000F9FD0C48FEF738FA6846FFF7B7FD0446C5
:1038F00001460948FEF730FA002CDAD0DAE76FF01B
:103900008504D7E79FB40004C7B40004E0B4000402
:10391000C9390004FBB400041CB5000438B50C46DA
:1039200005461648FEF718FAE20702D50120FFF710
:10393000CBFEA30705D50120FFF7D2FE1048FEF706
:103940000BFA2B695B792BB90E48FFF7D9FD0E48AE
:10395000FEF702FA0D4C0E482168FEF7FDF9A1684A
:103960000C48FEF7F9F961680B48FEF7F5F9E168D4
:103970000A48FEF7F1F9002038BD00BF35B5000454
:1039800053B50004BEBAFECA72B50004001010E0C0
:1039900098B50004AFB50004C6B50004DDB5000459
:1039A00010B504460648FEF7D7F923695B7923B9B9
:1039B0000448FFF7B7FDFFF783FD002010BD00BFEF
:1039C000F4B500046500FECA08B5034802F0EAFE3B
:1039D0000021FFF73DFF08BD9DAB000410B5044674
:1039E00000210A48FEF7B8F9A36820469B680849F9
:1039F0009847084B1979A36820461B68984700210F
:103A000002460548FEF7A8F9002010BD14B60004D0
:103A100084A50004DCBB00042EB6000430B5154DAF
:103A20000C462B7885B01BB9FFF746FA01232B70A3
:103A30004FF47A72236801A88DF8043063688DF81A
:103A40000530A3688DF80630E3688DF807302369E8
:103A50008DF808306369ADF80A30A3698DF8093034
:103A6000636A93FBF2F3ADF80C30FFF78DFA002098
:103A700005B030BDFADF000410B50F2188B0104842
:103A8000FEF76AF940F21A424EF660210D4B00240F
:103A9000CDE903320C4B0D48CDE9051340F201137B
:103AA000ADF81E300423214600930323ADF81C40DB
:103AB000FEF752F903A8FEF7CDFD204608B010BD71
:103AC00058B60004C0C20400020603049EB60004F7
:103AD00008B514210348FEF73FF9FEF7CFFD00209B
:103AE00008BD00BF06B7000408B515210348FEF75E
:103AF00033F9FEF72DFE002008BD00BF4FB70004CC
:103B000008B562210348FEF727F901F0A9FD00205E
:103B100008BD00BF98B7000408B50F210348FEF7A1
:103B20001BF901F0F0FE002008BD00BFE0B7000463
:103B3000002330B5074C1A01A25C04EB0315824246
:103B400002D100200D6030BD0133082BF3D16FF09E
:103B50000100F8E760D9000438B50C460C4802F0C3
:103B600021FE0023227C0B4951F8335095420AD1A3
:103B7000094A02EB0313A269D86002F178425A6045
:103B8000E2699A6038BD0133082BEDD1FAE700BF36
:103B900041B4000430A6000460D900048022024928
:103BA000024804F0CDB800BFACA5000460D9000401
:103BB0002DE9F341FFF7F2FF1248FEF7CDF84FF081
:103BC00000640025104FDFF84C80104E2368BB4284
:103BD00002D16368434511D0E369304600932169FF
:103BE000D4E90523FEF7B8F821462846FFF7B4FFCD
:103BF000074B40349C4205F10105E7D1002002B09B
:103C0000BDE8F08128B8000444554D4D62B8000469
:103C10000010000859454E4410B569B14FF00063DB
:103C2000074A1C69A04203D040339342F9D1054BA7
:103C30000020DB690B6010BD6FF00500FBE700BFE3
:103C400000100008C00F000810B569B14FF0006304
:103C5000074A1C69A04203D040339342F9D1054B77
:103C600000209B690B6010BD6FF00500FBE700BFF3
:103C700000100008C00F000870B5154642182CBF90
:103C80000124002486B023462DB91E48FEF764F8AF
:103C90006FF0050029E0B0F1026F00D2ACB1B0F1D5
:103CA000026F049334BF00230123CDE902234FF0B8
:103CB00002630A4601900146009313484FF00063E7
:103CC000FEF74AF801232B70E2E710492C70D1E986
:103CD000003698420BD3B04209D201212970014627
:103CE00000960B48FEF738F8002006B070BD9A42E7
:103CF00001D9B242F1D30134042C01F10801E6D11B
:103D0000F2E700BF90B80004ADB800046CA6000450
:103D100025B9000408B50448FEF71EF80348FEF76D
:103D20001BF8002008BD00BF68B9000478B9000482
:103D300010B560B1084C23785BB901F018FD00386C
:103D400018BF012001234042C0B2237010BDFE20E5
:103D5000FCE70020FAE700BFFBDF000408B5012004
:103D6000FFF7E6FF044800F00BF80022034B1A703F
:103D7000BDE8084000F046B860DA0004FCDF00044B
:103D80002DE9F743054680B3046874BB194E1A4FFA
:103D9000DFF86C8012236343F15C03EB0609FF2913
:103DA00002D101202E6021E00A291BD1694614208E
:103DB000FFF74AFF28B10B214046FDF7CDFF013444
:103DC000E8E7009B142003F1784301A9C9F8053006
:103DD000FFF722FF10B10B213846EEE7019BC9F82F
:103DE0000D30ECE70548FDF7B7FF002003B0BDE854
:103DF000F08300BF85BC0004CFB90004FCB9000407
:103E00009BB90004024B1A680AB9024A1A6070474B
:103E100064DA000468DA000453B94AB9002908BF1B
:103E200000281CBF4FF0FF314FF0FF3000F00CB8FE
:103E3000ADF1080C6DE904CE01F091FEDDF804E06F
:103E4000DDE9022304B07047704700BF1FB5144678
:103E50001A46094B05461B68D86854B9074B1C46DF
:103E600000910749CDE901342B4600F00DF8FDF72C
:103E70002BFF044BF4E700BF14BC000445AE000464
:103E800036BA000429BA00040EB403B503AB0146E8
:103E9000054853F8042B0068019300F007F802B0BE
:103EA0005DF804EB03B0704714BC00042DE9F04F3B
:103EB0000D469DB014469846064618B183690BB965
:103EC00000F08AFB874B9D421BD175686B6ED9074A
:103ED00005D4AB899A0502D4A86D01F0E8FAAB8944
:103EE0001B0701D52B69EBB92946304600F08AFA49
:103EF000C0B16B6EDC070ED54FF0FF301DB0BDE8D2
:103F0000F08F794B9D4201D1B568DFE7774B9D4239
:103F100008BFF568DAE7AB899805EDD4A86D01F024
:103F2000CCFAE9E70023CDF80C804FF00109DFF867
:103F3000C081099320238DF8293030238DF82A3051
:103F400023469A4613F8012B0AB1252AF9D1BAEB78
:103F5000040B0BD05B4622462946304601F074FF25
:103F6000013000F0A680099A5A4409929AF800306C
:103F7000002B00F09E8000234FF0FF320AF1010A6F
:103F8000049307938DF853301A93CDE905235446D3
:103F90000522574814F8011B02F0FEF8049BD0B923
:103FA000D90644BF20228DF853201A0744BF2B2284
:103FB0008DF853209AF800202A2A14D0079A5446E4
:103FC00000204FF00A0C214611F8013B303B092B31
:103FD0004AD970B914E0A0EB0800A24609FA00F033
:103FE00018430490D3E7039A111D1268002A039125
:103FF00001DB079204E0524243F00203079204936C
:1040000023782E2B0AD163782A2B32D1039B0234DA
:104010001A1D1B6843EAE37303920593DFF8E0A0DF
:1040200003222178504602F0B7F838B1A0EB0A001D
:104030004022049B013482401343049314F8011B73
:1040400006222C488DF8281002F0A6F800283FD050
:10405000294B1BBB039B073323F007030833039350
:10406000099B3B4409936BE70CFB02320C46012091
:10407000A9E7002301344FF00A0C194605932046A6
:1040800010F8012B303A092A03D9002BC6D005912C
:10409000C4E70CFB012104460123F0E703AB2A46E9
:1040A00004A930460093154BAFF300800746781CF7
:1040B000D6D16B6ED90705D4AB899A0502D4A86D09
:1040C00001F0FBF9AB895B063FF516AF099815E7E0
:1040D00003AB2A4604A930460093084B00F012F8BF
:1040E000E4E700BFE8A60004C8A60004A8A60004F0
:1040F00066BB000470BB000400000000495E0004C1
:104100006CBB00042DE9FF470F7E914680460C46AC
:10411000782F9A460C9D01F1430207D8622F0AD8E6
:10412000002F00F0E080582F00F0BB8004F1420621
:1041300084F842703AE0A7F16303152BF6D801A189
:1041400051F823F09D410004B14100042D410004C9
:104150002D4100042D4100042D410004B141000413
:104160002D4100042D4100042D4100042D41000487
:10417000CD42000441420004834200042D4100046A
:104180002D410004EF4200042D410004414200048F
:104190002D4100042D4100048B4200042B6804F1E2
:1041A00042061A1D1B682A6084F842300123ABE0E6
:1041B000236829681F0601F10400286001D50D68F5
:1041C00003E05E06FBD5B1F90050002D61687ADA94
:1041D0002D200029A16084F843002DDA6D425E484D
:1041E0000A231646B5FBF3F103FB1157C75D06F82A
:1041F000017D2F460D46BB42F4D9082B0BD1236815
:10420000DF0708D5236961689942DEBF302306F8CD
:10421000013C06F1FF36921B22614B4603AA214660
:104220004046CDF800A001F021FE013071D14FF0E1
:10423000FF3004B0BDE8F08723F004032360CDE72E
:104240002B682068191D2960050601D51D6802E04C
:104250004106FBD51D886F2F3F4814BF0A23082352
:10426000002184F843106668002EA660B9DB21683F
:1042700021F004012160002DB3D1002EB1D11646EA
:10428000BBE7236843F0200323607827334884F892
:104290004570296823680E1D2E601E0603D50D6823
:1042A00004E02D48F3E75D06F9D50D88D90744BF32
:1042B00043F0200323600DB11023D1E7236823F0DE
:1042C00020032360F8E724480A23CCE72B682668FC
:1042D000181D6169286035061B6801D5196002E068
:1042E0007006FBD5198000231646236195E72B68DD
:1042F00000211A1D2A601E686268304601F04CFFDA
:1043000008B1801B606063682361002384F8433038
:1043100083E72369324649464046D047013086D07C
:1043200023689B0714D4E068039B9842B8BF1846E3
:104330007FE70123324649464046D04701303FF4EB
:1043400076AF0135E36803995B1AAB42F1DCEAE72B
:10435000002504F11906F5E777BB000488BB0004CB
:10436000F8B50E461446054618B183690BB900F03E
:1043700033F9214B9C4210D16C68A369A360A389D7
:104380001A0701D5236993B92146284600F03AF867
:1043900068B14FF0FF373846F8BD184B9C4201D149
:1043A000AC68EAE7164B9C4208BFEC68E5E7236976
:1043B000F6B220683746C01A6369834205DC21469D
:1043C000284600F08BF80028E3D1A3680130013BB8
:1043D000A36023685A1C22601E706369834204D064
:1043E000A389DB07D7D50A2ED5D12146284600F070
:1043F00075F80028CFD0CCE7E8A60004C8A60004D2
:10440000A8A60004314B70B51D6806460C4625B1C0
:10441000AB6913B9284600F0DFF82D4B9C420ED152
:104420006C68B4F90C301A072CD4DD0611D40922BB
:10443000326043F040034FF0FF30A3813DE0254B55
:104440009C4201D1AC68ECE7234B9C4208BFEC686E
:10445000E7E7580712D5616B41B104F14403994273
:1044600002D0304600F076F900236363A38923F07D
:104470002403A3810023636023692360A38943F09D
:104480000803A38123694BB9A38903F42073B3F50F
:10449000007F03D02146304600F01CF9B4F90C30FF
:1044A00013F001020AD00022A26062695242A261A6
:1044B000226942B913F08000BBD170BD990758BF83
:1044C0006269A260F4E70020F7E700BF14BC0004B3
:1044D000E8A60004C8A60004A8A6000438B50B6925
:1044E00005460C4613B90025284638BD18B1836926
:1044F0000BB900F071F8144B9C421BD16C68B4F9F5
:104500000C30002BEFD0626ED00704D4990502D492
:10451000A06D00F0CCFF2846214601F060FD636EDF
:104520000546DA07E0D4A3899B05DDD4A06D00F031
:10453000C4FFD9E7054B9C4201D1AC68DFE7044BCF
:104540009C4208BFEC68DAE7E8A60004C8A60004AD
:10455000A8A60004002310B5044683608181194693
:104560004366C28108228361C0E90033C0E9043395
:104570005C3003F09DFC054B24626362044BA36234
:10458000044BE362044B236310BD00BFB56100041C
:10459000D76100040F62000433620004014901F096
:1045A000B7BD00BFDD440004014800F080BF00BF7C
:1045B000E8BC0004014800F080BF00BFE8BC000474
:1045C000014800F074BF00BF00BD0004014800F0C6
:1045D00074BF00BF00BD000410B50446FFF7F0FF34
:1045E000A3691BB1BDE81040FFF7F0BFC4E9123367
:1045F00023652046124B134A1B68A262A34204BFE4
:104600000123A36100F020F86060204600F01CF850
:10461000A060204600F018F800220421E0606068E5
:10462000FFF798FF01220921A068FFF793FF0222FC
:104630001221E068FFF78EFF0123A361D2E700BFDC
:10464000A4A600049D450004F8B50746FFF7ACFF9B
:104650001E4B1E68B36913B93046FFF7BDFF4836DD
:10466000D6E90134013B03D533680BB33668F7E76D
:10467000B4F90C50D5B9164B04F158006566E360E7
:1046800000F00BFFFFF796FF0822294604F15C00BB
:104690002560A561C4E90155C4E9045503F008FC8F
:1046A000C4E90D55C4E912552046F8BD6834D9E770
:1046B0000421384601F016FD044630600028D5D1AB
:1046C000FFF778FF0C233B60EEE700BFA4A60004D1
:1046D0000100FFFF8B89F7B59D0706460C4607D5FD
:1046E00004F14703236023610123636103B0F0BD3C
:1046F00001AB6A4601F02BFD009F05463046394666
:1047000000F072F848B9B4F90C309A05EED423F0F1
:10471000030343F00203A381E2E70D4BB362A389D5
:10472000206043F08003A381019BC4E904075BB1CF
:10473000B4F90E10304600F0F5F828B1A38923F043
:10474000030343F00103A381A3891D43A581CDE7A2
:104750009D45000438B50546002941D051F8043C78
:104760000C1F002BB8BFE41800F0FEF81D4A1368B8
:1047700033B9636014602846BDE8384000F0FAB8E9
:10478000A34208D9206821188B4201BF19685B68D1
:1047900009182160EDE71A465B680BB1A342FAD90C
:1047A00011685018A0420BD12068014450181160C4
:1047B0008342E0D118685B68084453601060DAE710
:1047C00002D90C232B60D6E7206821188B4202BF48
:1047D00019685B680918636008BF21605460CAE704
:1047E00038BD00BFD8DB0004F8B5CD1C064625F067
:1047F000030508350C2D38BF0C25002D01DBA9421F
:1048000003D90C2333600020F8BD00F0ADF8214936
:104810000A6814469CB9204F3B6823B921463046AC
:1048200000F03CF838602946304600F037F8431C69
:1048300023D10C233046336000F09CF8E3E7236873
:104840005B1B17D40B2B03D923601C44256004E0A9
:104850006368A2420CBF0B605360304600F08AF8D8
:1048600004F10B00231D20F00700C21A1CBF1B1A05
:10487000A350C9E722466468CCE7C41C24F00304B3
:10488000A042E3D0211A304600F008F80130DDD113
:10489000CFE700BFD8DB0004D4DB000438B5002329
:1048A000054D044608462B60FDF7FAF9431C02D17A
:1048B0002B6803B1236038BDDCDB000438B5044647
:1048C000064D0846114600222A601A4600F0D2FD25
:1048D000431C02D12B6803B1236038BDDCDB00042C
:1048E00038B50023054D044608462B6000F0C6FD90
:1048F000431C02D12B6803B1236038BDDCDB00040C
:1049000038B50023064D0446084611462B6000F0DA
:10491000BFFD431C02D12B6803B1236038BD00BF2B
:10492000DCDB000438B50023054D044608462B6047
:1049300000F0A9FD431C02D12B6803B1236038BDF0
:10494000DCDB000438B50446064D0846114600225B
:104950002A601A4600F095FD431C02D12B6803B172
:10496000236038BDDCDB0004014800F0A0BD00BFBF
:10497000D0BC0004014800F0A0BD00BFD0BC0004C2
:1049800038B50446064D0846114600222A601A46EC
:1049900000F06CFD431C02D12B6803B1236038BDCD
:1049A000DCDB000470470078704770472DE9F7435F
:1049B0000E4617469946044628B94FF0FF38404640
:1049C00003B0BDE8F0830029F7D0002AF5D0CB680A
:1049D0000D8938461D44042329460DEB030200F0DF
:1049E00080FC80460028E8D146F60812BDF8041085
:1049F0007389914225D1BDF806109942DDD1042377
:104A000038460DEB0302294400F06BFC0028D4D19A
:104A100046F60713BDF804209A42CED1C4E90067D8
:104A20009DF82830A4F80890A3727389BDF8062079
:104A30002B44E360738913442B440435636125617F
:104A4000BDE7002BE4D0B8E72DE9F3410E46174649
:104A50001D46044620B94FF0FF3002B0BDE8F0819A
:104A60000368002BF7D04368002BF4D04FF6FF7893
:104A7000D4E904239A4216D223685B8923B1E36800
:104A8000934204BF043323610423216960680DEB62
:104A9000030200F026FC0028DDD1A37A2BB1D4E973
:104AA00003329A4201D30120D7E72389BDF80610CB
:104AB000434501F1040203D0BDF804C09C450BD16D
:104AC00015B1BDF804302B8023690433336039807D
:104AD000236913442361C0E7236913442361C7E7B3
:104AE00048B103683BB143682BB1C068884294BFAA
:104AF0000020012070474FF0FF30704701F07DB972
:104B00004FF4407358433030704700F01DBD38B546
:104B100000230D4602461946044600F045F80346B8
:104B200048B90121204604F12C0200F03DF810B1F3
:104B3000002D08BF002038BD37B54FF480750446FE
:104B4000426A01A905200195FCF7C8FE58B9019BEE
:104B50000620226DA36201A90195FCF7BFFE054660
:104B600028B1092500E00125284603B030BD019B8E
:104B7000206A636500F0F9FBE065F5E70123036057
:104B800003F1012343600023C0E9023370474379F6
:104B9000012B07D10368012B04D10079431E584231
:104BA000584170470020704713B500201446FCF7A9
:104BB0009BF901A9C0B2FEF7BBFF014668B92246C6
:104BC0002023019800F08DFB0446019800F088FB3B
:104BD000201E18BF012002B010BD0120FBE7F0B578
:104BE000D0F828C0BCF5807F36D8466DB6F5807FFA
:104BF00032D800210B460A460D460C46624507D3C3
:104C0000B34205D3624527D19B1B58425841F0BDA2
:104C1000AC420CD1476A07EBC2077F6801323C44C3
:104C2000076D07EBC3077F6801333D44E6E709D210
:104C3000476A022907EBC2077F683C440CD0012178
:104C40000132DBE7076D012907EBC3077F683D44AD
:104C500002D002210133D1E70020D8E7F8B50C4695
:104C600010B1F9B10AB90120F8BD00278D1800F183
:104C70002806836E5A1C826614F8011B03443F2ADF
:104C800083F828100BD93146FCF73AFCD0E90832FA
:104C900013F5007342F10002C0E908328766A542AD
:104CA000E7D1E0E70846DFE7F8B50C4605460028FF
:104CB00054D0002953D08B6ED1E90821D8001218A6
:104CC00041F10001C4E908218022581C38282344FE
:104CD000A0664FF0000783F8282004F128060AD9BF
:104CE000C0F140023946304400F03BF831462046DE
:104CF000FCF706FCA766A06E0021C0F13802304424
:104D000000F02FF8236A31461ABA636A62661A0AFB
:104D100084F8633084F862201A0C1B0E84F860302B
:104D2000204684F86120FCF7EBFB2B1D211F243566
:104D300051F8042F0433100E03F8080C100C03F87C
:104D4000070C100A03F8060C03F8052CAB42EFD150
:104D500020467022002100F004F80120F8BD08462A
:104D6000FCE703F0A5B8836800EBC101B3F5004F81
:104D70002CBF51F8220031F81200704700EBC1013E
:104D80008068B0F5004F2CBF41F8223021F8123076
:104D90007047012208B5FFF7E6FFD04008BD8368E1
:104DA00000EBC101B3F5004F08D34B681AB143F0D3
:104DB00001034B60704723F00103FAE74B881AB1F7
:104DC00043F001034B80704723F00103FAE75300DF
:104DD0000122FFF7D3BF8368B3F5004F34BF04232C
:104DE0000823C91A081AC0087047B0F5004F34BF2D
:104DF00004230823481C0833A0EBD300B0FA80F04A
:104E0000C0F11F0070472DE9F04117460322884684
:104E10000446FFF7A8FF8045054607F106061AD1AC
:104E20000122E368BA4023EA0203E360002304EBB3
:104E30008606736041462046FFF7ABFFA368B3F5D3
:104E4000004F34BF042208222369A3EBC00313449C
:104E50002361BDE8F081414602222046FFF783FF2F
:104E6000074604EB86062B46014603222046756062
:104E7000FFF784FF3B46022229462046FFF77EFFCC
:104E8000D8E72DE9F04705468068FFF7AEFF05EB50
:104E9000800ADAF81C9088460646B9F1000F1BD04C
:104EA0000327DAF81C4028462146FFF772FF4045E9
:104EB00007D3324621462846FFF7A5FF2046BDE826
:104EC000F087032221462846FFF74DFF013FCAF82D
:104ED0001C0001D08145E4D14FF0FF34EB6801366E
:104EE000B4401C40EAD094FAA4F2B2FA82F205EB84
:104EF0008203DC69DEE72DE9F04114460E460546E3
:104F0000FFF747FFA4EB0608371B0744424631462C
:104F10002846FFF75CFF3A4621462846FFF757FF31
:104F20004346002221462846FFF728FF214628460F
:104F3000FFF72FFF3B46211800222846BDE8F0412D
:104F4000FFF71CBFF8B50D4686680446FFF721FF42
:104F5000B6F5004F014601D3012826D03046FFF7B1
:104F600044FF04EB8001CE6906BB0122E368824066
:104F70001343E3600222CD612B4629462046FFF70A
:104F8000FDFE032229462046FFF7F8FE294620466B
:104F9000FFF7FFFEA368B3F5004F34BF04220822D9
:104FA000236903EBC0039B1A2361F8BD022231463B
:104FB0002046FFF7D8FE0746034629462046FFF75E
:104FC000DDFE0322334629462046FFF7D7FE394649
:104FD0002B462046FFF7D2FE02223146D3E7F8B532
:104FE000056811B900273846F8BDAB68B3EBD10F9F
:104FF000F8D9B3F5004F34BF04230823CC1D1C445B
:10500000E40821462846FFF73CFF06460028E9D081
:1050100001462846FFF7BDFEA04209D93444314677
:1050200028462246FFF767FF21462846FFF78AFFFA
:10503000012231462846FFF7B2FEAB683146B3F590
:10504000004F34BF04240824FFF7A3FE6B6904EB70
:10505000C607C4EBC0041C44AB692F446C61A34277
:105060002CBFAB61AC61BEE72DE9F843056814467F
:10507000AA6801F1FF39B2F5004F34BF04230823B9
:1050800019EA01090F460BD0494239408B424F467D
:1050900028BF0B46894654B900263046BDE8F88340
:1050A0009942F8D82146BDE8F843FFF798BFB2EB24
:1050B000D40FF1D9B2F5004F34BF04220822E11D0C
:1050C0003944C91A11442846C908FFF7DAFE804658
:1050D0000028E1D0AB6809EBC006B3F5004F34BF40
:1050E000042308231E442E447B1E1E44B6FBF7F601
:1050F0007E43A6EB090631462846FFF76CFE344492
:10510000073424F00704641B804507464FEAE40493
:1051100008D2024641462846FFF7EDFE41462846A2
:10512000FFF710FF39462846FFF733FE3844844224
:1051300008D2394628462246FFF7DDFE214628469A
:10514000FFF700FF012239462846FFF728FE3946BF
:10515000FFF71FFEAB68B3F5004F34BF04220822EF
:105160006B6903EBC000AB69801A686183422CBF96
:10517000AB61A86191E7B2F5802F2CBF082304230F
:105180002DE9F0410025D21A8C18CE1D26F0070615
:1051900024F00704A41BE408066021462046C6E963
:1051A0000355C6E90555B460FFF71FFE00F108027C
:1051B0009200013002F107074FEAD7072946A2F112
:1051C0001C0206F11C00B8BF2A4602F071FE3A46E6
:1051D00029463046FFF7FBFD2B462A462946304636
:1051E000FFF7CCFDA4EB0708304629460122FFF764
:1051F000D6FD42463946FFF7EAFD3B462A46394688
:105200003046FFF7BBFD21463046FFF7E0FD434641
:105210002A4621463046FFF7B1FD2146304601229D
:10522000FFF7BDFD3946BDE8F041FFF78BBE30B555
:105230000C688B6814B14A689A4202DC01338B60B7
:1052400030BD013A9A4214BF05460025E5548B68EB
:10525000F4E7D0E9002130B54FF03333A2FB03244B
:10526000D51843EB0405A1FB0313521844EB0304C8
:10527000521944F10002891843F10003C0E90013F8
:1052800030BD10B50A680346002A0FDD013A0A60F6
:1052900044680A201A68A2FB001200FB0422100FC7
:1052A00022F07042C3E90012303010BD3020FCE71C
:1052B0002DE9F0410746884615461E461446B4427D
:1052C00005D30EB1601B08E02378002BFAD04146CD
:1052D00014F8010BB8470028F1DABDE8F0817047F7
:1052E0007047002930B4044618460BDBA568084413
:1052F000A84207D8E0686468214484682468A4460A
:1053000030BC60476FF0150030BC7047002930B4E6
:10531000044618460BDBA5680844A84207D8E06895
:105320006468214484686468A44630BC60476FF0B8
:10533000150030BC70470029034610B410460CDB42
:105340009C680844A04208D8D8685B681944836800
:105350009B683BB15DF8044B18476FF015005DF892
:10536000044B70476FF05700F9E708B5C0688368D1
:10537000DB689847006808BD08B5C0688368DB68CB
:105380009847407908BD70B54C680368A34201D2C4
:10539000012070BD8A682244934201D30020F8E7BF
:1053A0004E69D1E90325B54203D36FF00B038B613E
:1053B000F4E71B1B42F835304368086902EBC00272
:1053C00053600B6901330B61E2E770477047704728
:1053D000704708B5FCF7F4FC08BD08B5FCF74AFDBA
:1053E00008BD08B500F06DF808BD08B500F06AF812
:1053F00008BD08B5FFF7EBFF08BD08B5FFF7E5FFEF
:1054000008BD08B5FFF7E2FF08BD08B5FFF7E0FFEC
:1054100008BD08B5FCF7C0FC08BD08B5FCF7C4FC26
:1054200008BDD0F8943083F30B88704761B662B63C
:1054300080F31188BFF36F8F704708B5FFF7E5FF62
:1054400000F03DF872B6002383F31188BFF36F8F2D
:10545000BFF34F8F30BF62B6BFF36F8F08BD002020
:1054600070474FF0FF3070470020704708461146E4
:10547000FCF7EABB08461146FCF7FABB4FF0FF30D9
:105480007047002070470228CCBF002001207047E1
:105490004FF4005300204B60704710B504461820AD
:1054A00000F011F82060BDE8104002F099BA4FF00A
:1054B000FF324FF0FF3301F0F1BA01F067BBFCF7A8
:1054C0003DBC7047704702F0ECBB00234363436070
:1054D000C3610364C36203604365C36503624361E0
:1054E00003618360836203634362C36383637047C2
:1054F0002DE9F0470024836886B0884691461B69F1
:1055000002AA01A99847A2462546029BAB4202D8AF
:1055100006B0BDE8F0870026019F07EBC5077B6852
:1055200004933A680AEB0603B24202D89A46013560
:10553000EBE749460394059303A8C0470028E7D04A
:10554000049B01361C44ECE78068183820F0070003
:1055500010387047042809D0052803D1481E18BF09
:1055600001207047431A5842584170470120704744
:1055700038B515460C4661B15AB1FFF7FDFE21461C
:10558000254411F8013B834203D1A942F9D10120FE
:1055900038BD0020FCE738B50C46012311462246F1
:1055A0000546FFF79EFE00280FDB01222146284614
:1055B000FFF7DEFF38B92378012B14BF0223012344
:1055C0000020237038BD0323FAE70120FAE7826840
:1055D000183A22F00702FFF7DEBF13B50C46C0B23F
:1055E00001A9FEF7A5FA50B921460198FCF71CFD68
:1055F00004460198FFF774FE204602B010BD012456
:10560000FAE708B5FCF7E0FE4FF47A73B0FBF3F06D
:1056100008BDFFF7F6BF38B5044642F210700A46DF
:105620000D460023A4FB0001FEF7F6FB0138B0F5A0
:10563000001F08D34FF4C8702A460023A4FB0001C2
:10564000FEF7EAFB013838BD10B50C4601460020D4
:10565000FCF7D2FE2146BDE810400120FCF7CCBE8D
:10566000704770B5002420F07840A3B2013301EBFD
:10567000C306DA007668083A8D180EB9686870BDFE
:105680008A58824203D851F833308342F6D8013425
:10569000EBE7031D002053F8042C083302B97047D0
:1056A00053F8081C01FB0200F5E72DE9F04700273D
:1056B0000446164699463D464FF0010A00EB0108A4
:1056C000444502D30020BDE8F08749462046FFF755
:1056D000C8FFEA0006EBC50137B9012246F83500DC
:1056E0004A6004440137EBE756F83530834202D173
:1056F0004A680132F4E70135032D06D002F10803B0
:10570000F218F050C2F804A0EBE70620DBE713B56F
:10571000002401A80194FDF71FFA10B9019802B006
:1057200010BD2046FBE7FDF7C1B810B590F88030FA
:1057300004465BB943681B6843B100F10C01806803
:1057400098470028A4BF012384F8803010BD08B515
:10575000C26821F070439A4207D943688068DB68C9
:105760009847002818BF062008BD0220FCE710B5A6
:10577000FDF718F9044618B9FDF73EF9204610BDAB
:105780004FF0FF30FBE7F0B40D46044680689DF80B
:105790001010B0F8BCC0AC450ED9B0F8BE60EF1820
:1057A0006644B74208D86468A46A44B10493A44626
:1057B00013462A46F0BC60470220F0BC70472046E2
:1057C000FBE70222D1F8AC3010B55A7080220120DC
:1057D0003C249A70DA705A719F2218701C71D1F8AB
:1057E000B0309A723523D1F8B020D373D1F8B020FD
:1057F00053730522D1F8B030DA727522D1F8B03087
:105800001873D1F8B03000209A707A22D1F8B030F5
:10581000DA701E23C1F8D40081F8C03010BD38B54D
:10582000D1F8AC50FFF7CDFF00201E23A870E87020
:1058300081F8C03038BD38B5D1F8AC50FFF7C1FFA2
:1058400000201623A870E87081F8C03038BD38B544
:1058500091F8C1200546C82A0B4610D006D8202A48
:1058600017D0512A0BD06FF0770011E0EF2AFAD150
:10587000FFF7A7FF04462846FDF790F907E0194611
:105880002846FFF7CCFF04462846FDF7B1F9204330
:1058900038BDFFF7D0FFEDE770B50C46054678B38D
:1058A00071B3D1F8B0605EB3D1F8AC6046B34A6072
:1058B000A1F8BA30FDF7C6F9AF22D4F8B03004F140
:1058C000C1069A723146204603F0C8FB94F8C130F5
:1058D000013BDBB2FD2B0DD99F22D4F8B03031460D
:1058E00020469A7203F0BAFB21462846BDE8704074
:1058F000FFF7ADBF3046FCF733FF0028ECD0F3E7ED
:105900006FF0770070BD7047FDF75EBD00207047F7
:1059100010B5044620B1FDF73DFD2060002010BD0C
:105920006FF00100FBE7830705D1642290FBF2F3DF
:1059300002FB13034BB94FF4C87390FBF3F203FB64
:105940001200B0FA80F04009704701207047427A97
:105950004B7A9A4203D0022A06D0022B0FD0027A49
:105960000B7A9A4203D00AD24FF0FF30704740685A
:105970004B6898422CBF01204FF0FF307047012048
:105980007047F8B50646142701B9F8BD33684D1EB7
:1059900007FB01346D10204607FB0531FFF7D7FFE9
:1059A0000028F2DA2046FDF755FBE9B2ECE72DE9D5
:1059B000F84307460D464FF014086E0097F909901A
:1059C000741CA14506F1020603DCB14522DCBDE8EA
:1059D000F883386808FB050108FB0400FFF7B7FFF0
:1059E0000028F2DAB1450ADD386808FB040108FB3B
:1059F0000600FFF7ACFF34EA200428BF3446AC426F
:105A0000E5D0386808FB040108FB0500FDF722FB20
:105A1000E5B2D2E72C46E7E730B4D8B114254468A4
:105A200054F82110046805FB0144657A954211D0B1
:105A300085B1022A627203D130BCC9B2FFF7A1BF9F
:105A4000022D03D130BCC9B2FFF7B1BF12B9427AFF
:105A5000013A427230BC70470020FDF70FBE0020B3
:105A60007047EFF31183102282F31288BFF36F8F18
:105A700083F31188BFF36F8F704708B503F0CBFB3A
:105A8000002008BD08B5084611461A4604F008F97A
:105A900008BD08B5084611461A46FDF74DF808BD81
:105AA00008B5FDF73DF908BD1FB50C4601A8FFF785
:105AB0002BFF9DF804304FF47A7223609DF8053077
:105AC000002063609DF80630A3609DF80730E36016
:105AD0009DF808302361BDF80A3063619DF80930F4
