:020000040801F1
:10C000003DB8F396000000000002000020770B000E
:10C01000000000000100010000000000000000001E
:10C020000000000000000000000000000000000010
:10C030000000000000000000000000000000000000
:10C0400000000000000000000000000000000000F0
:10C0500000000000000000000000000000000000E0
:10C0600000000000000000000000000000000000D0
:10C0700000000000000000000000000000000000C0
:10C0800000000000000000000000000000000000B0
:10C0900000000000000000000000000000000000A0
:10C0A0000000000000000000000000000000000090
:10C0B0000000000000000000000000000000000080
:10C0C0000000000000000000000000000000000070
:10C0D0000000000000000000000000000000000060
:10C0E0000000000000000000000000000000000050
:10C0F0000000000000000000000000000000000040
:10C10000000000000000000000000000000000002F
:10C11000000000000000000000000000000000001F
:10C12000000000000000000000000000000000000F
:10C1300000000000000000000000000000000000FF
:10C1400000000000000000000000000000000000EF
:10C1500000000000000000000000000000000000DF
:10C1600000000000000000000000000000000000CF
:10C1700000000000000000000000000000000000BF
:10C1800000000000000000000000000000000000AF
:10C19000000000000000000000000000000000009F
:10C1A000000000000000000000000000000000008F
:10C1B000000000000000000000000000000000007F
:10C1C000000000000000000000000000000000006F
:10C1D000000000000000000000000000000000005F
:10C1E000000000000000000000000000000000004F
:10C1F000000000000000000000000000000000003F
:10C200003892040409C2010872B6002080F30A883B
:10C2100080F30B882348016821F001010160DFF8F9
:10C2200088D022484FF488710160214941604FF461
:10C230001811C0F884101F49C1601F484FF0400119
:10C24000016031F043FE00201C49174A41F8040BFD
:10C250009142FBD31A491B4A1B4B00F05DF81B4966
:10C260001B4A1C4B00F058F81B491C4A1C4B00F0A1
:10C2700053F81C491C4A1D4B00F04EF81C4A1D4B3C
:10C2800000F052F81C4A1D4B00F04EF81C491D4AA4
:10C290001D4B00F041F81D4A1D4B00F045F81D48AC
:10C2A0000047704794ED00E0389204040000094212
:10C2B000120000029A78561430000942388A0404A9
:10C2C000D80F020800C0010460D6030436C3010879
:10C2D0000000000400340004841B0D0860D6030431
:10C2E000B0DC0304D4210D08B0DC030448E50304EA
:10C2F00048E5030454620404586204047CD904042D
:10C300006C2A0D0800000604B00E0604B00E0604E8
:10C31000F03D0604C5DA04089A423EBF51F8040B0A
:10C3200042F8040BF8E770479A423EBF002042F8FB
:10C33000040BF9E770473892040409C20108C501EB
:10C340000004E9010004F7010004050200041302DF
:10C3500000042102000400000000000000000000B2
:10C3600000003D0200042F020004000000008502CE
:10C37000000493020004691A0004691A0004691A8F
:10C380000004691A0004691A0004691A0004691A91
:10C390000004691A0004691A0004691A0004691A81
:10C3A0000004691A0004691A0004691A0004691A71
:10C3B0000004691A0004691A0004691A0004691A61
:10C3C0000004691A0004691A0004691A0004691A51
:10C3D0000004691A0004691A0004691A0004691A41
:10C3E0000004691A0004691A0004691A0004691A31
:10C3F0000004691A0004691A0004691A0004691A21
:10C400000004691A0004691A0004691A0004691A10
:10C410000004691A0004691A0004691A0004691A00
:10C420000004691A0004691A0004691A0004691AF0
:10C430000004691A0004691A0004691A0004691AE0
:10C440000004691A0004691A0004000000000000DA
:10C45000000000000000EFF3108272B64948006847
:10C4600000F14C00EFF3888140F8041BEFF3898161
:10C4700001601CF0400F09D1EFF390821CF0040F13
:10C480000CBFEFF38881EFF3898111E03E4800682B
:10C4900000F14C00EFF3088140F8041BEFF3098131
:10C4A00001601CF0040F0CBFEFF30881EFF309816A
:10C4B000002383F30A88344B1B68002B18BF9D466A
:10C4C0001CF0400F0CBF2E482F4800681CF0200FB6
:10C4D00003D000F11000A0E8F00F0C46604600B554
:10C4E00023F077FF24F039F85DF804EB204670471D
:10C4F00000000000000034EF00E0F446244B9847B1
:10C50000002805D1FFF7A7FF4FF00001214B984706
:10C510004DF804CD204B98475DF804CB6047F446B6
:10C52000FFF799FF4FF001011A4B9847F446FFF7C8
:10C5300092FF4FF00201164B9847F446FFF78BFF2E
:10C540004FF00301134B9847F446FFF784FF4FF079
:10C5500004010F4B9847F446FFF77DFF4FF00501AC
:10C560000C4B9847F446FFF776FF4FF00601084B57
:10C570009847F446FFF76FFF4FF00801054B9847C7
:10C580000000680300046C030004700300041166DB
:10C590000B08B99A070815660B08064B82B09A6D0E
:10C5A00001929A6D0192019A9206FAD5C0B2D864AE
:10C5B000002002B070470000244200B500F04BFE9E
:10C5C0005DF804EB00F00DB8642108B55420FFF7C6
:10C5D000E4FF0139FAD1FEE708BD002022F059BD81
:10C5E000000001B503F05FF8BDE8014029498A6801
:10C5F00082F8DDE04FF030001044EFF3098C80E862
:10C60000F01F1EF0100F03D102F19C0080EC108A85
:10C61000102080F31288BFF36F8F1E4F4FF000661B
:10C62000CA698A603E604FF09004141920681A4C61
:10C63000206092F9DDE0D2F894000023C2F8943033
:10C6400080F311881EF0100F03D00023E1EE103AA2
:10C6500003E002F19C0090EC108AEFF3148323F0C6
:10C66000040383F31488BFF36F8F02F1300090E866
:10C67000F01F8CF3098802F1000004B503F023F8E1
:10C68000BDE8044001B503F01AF8BDE80140704769
:10C690000000FCBE000404ED00E0BC6F000444AEEA
:10C6A000040430AF04047CB804040000000001B4AA
:10C6B000032A51D910F0030C14D011F8013B00F8F3
:10C6C000013BBCF1020F9CBF11F8013B00F8013B9C
:10C6D000BCF1010F04BF11F8013B00F8013B6244BB
:10C6E000A2F1040211F003034DD0032A34D9A2F1C0
:10C6F0000402A1EB0301D1F800C0022B0FD01DD81A
:10C700004FEA1C2351F804CF043A43EA0C6340F883
:10C71000043BF5D202F1040201F101011CE04FEAF1
:10C720001C4351F804CF043A43EA0C4340F8043B5D
:10C73000F5D202F1040201F102010DE04FEA1C639F
:10C7400051F804CF043A43EA0C2340F8043BF5D2F5
:10C7500002F1040201F10301002A04BF01BC704789
:10C7600011F8013B00F8013B022A24BF11F8013BFC
:10C7700000F8013B032A04BF11F8013B00F8013B1C
:10C7800001BC704701B4202A28BF2DE9F04138BF11
:10C790002DE91040203A1ED322BFB1E8F851A0E89D
:10C7A000F851B2F12002F7D25FEA027C24BFB1E86F
:10C7B0001850A0E8185044BF18C918C0BDE8F0418F
:10C7C0005FEA827C24BF51F8043B40F8043B04BF7D
:10C7D00001BC704715E05FEA027C24BFB1E8185045
:10C7E000A0E8185044BF18C918C0BDE810405FEA5F
:10C7F000827C24BF51F8043B40F8043B04BF01BCD9
:10C800007047D20724BF31F8023B20F8023B44BFF7
:10C8100011F8012B00F8012B01BC704700BF01F09B
:10C82000FF0311462DE9014043EA032242EA024296
:10C8300000F00CF8BDE80140704702F0FF0343EA46
:10C84000032242EA024201E04FF0000204290FD322
:10C8500010F0030C19D0CCF1040CBCF1020F18BF7E
:10C8600000F8012BA1EB0C01A8BF20F8022B0CE073
:10C870005FEAC17C24BF00F8012B00F8012B48BF00
:10C8800000F8012B70474FF000024DF804ED1346FD
:10C890009446964620390AD32DE9F00014461546F1
:10C8A00016461746A0E8FC502039FBD2F0BC090719
:10C8B00028BFA0E80C5048BF0CC05DF804EB89000D
:10C8C00028BF40F8042B08BF704748BF20F8022B50
:10C8D00011F0804F18BF00F8012B704700BF104BBC
:10C8E0005A6822F01E025A605A6842F013025A60D7
:10C8F0001A6822F001021A60BFF34F8FBFF36F8FE7
:10C9000000220849D300A3F1FF53A3F5FE231868C2
:10C91000013208605B68042A4B6001F10801F1D123
:10C920007047000018E054CD00041B4B5A6B12F006
:10C93000010210D11A4B19681A4B1960DA625A6851
:10C9400022F01E025A605A6842F003025A60BFF396
:10C950004F8FBFF36F8F00221349D3000868A3F1F4
:10C96000FF53A3F5FE23186048680132042A58607B
:10C9700001F10801F1D10C4A0D4B1068094918600A
:10C980005068186490685860D2685A64094B1B68F4
:10C99000CB62024B1B680B6070470000024288CDDF
:10C9A0000004000018E054CD000474CD0004000021
:10C9B00019E084CD0004074B30B1D3F8802B42F44A
:10C9C0000032C3F8802B7047D3F8702B42F400324A
:10C9D000C3F8702B704700000442F7B51A4CB4F945
:10C9E000000000282DDA6A4600204FF4801102F082
:10C9F00078FC154BBDF8002015481A70BDF80220D0
:10CA00005A70BDF804209A70BDF80620DA70002232
:10CA100003466D46002113F8116F0CE035F8027BD8
:10CA200013F801CFBC4505D00132032A00F10A00FA
:10CA3000EED104E001318E42F0DCF5D12280B4F970
:10CA4000000003B0F0BD1A40000493C40004E49B4E
:10CA50000C0813B51C2001F082F9244B19681A68E0
:10CA6000520407D51A6842F400421A601A6822F488
:10CA700000421A6011F4E00F20D001A802F080FDFE
:10CA80000A231A490A68013B42F460220A60F9D17C
:10CA90000A24164A1368013C23F460231360F9D179
:10CAA000019802F07BFD124B1A783AB90120114926
:10CAB0001870114B0C601C6022F0F5F90C4B1C2017
:10CAC0001A6842F480721A601A6822F480721A603E
:10CAD00001F033F9074B1B7833B1084B1B781BB1BE
:10CAE0006946012022F0DFF902B010BD00BF00004E
:10CAF0000840E643000410CE00040CCE0004BBC482
:10CB00000004F8B5012401F0070500EB0516F26AF0
:10CB1000AC40204DB2F1FF3F0B462F682ED08A4229
:10CB200025D0726BB2F1FF3F19D08A420ED0DFF8E8
:10CB30006CC03C42DCF8002002F10102CCF800207D
:10CB400023D0736302F023FCB06304E0134AB06B9C
:10CB500013680133136027EA04042C60F8BDDFF882
:10CB60003CC0DCF800200132CCF80020E9E70A4A9A
:10CB7000306B1368013313603C43EEE7DFF820C0ED
:10CB8000DCF800200132CCF80020F36202F0FFFB59
:10CB90003063F1E700BFB09C0004AC9C0004B49C7F
:10CBA00000040E4A536C43F040735364536C03F01B
:10CBB000C053B3F1C05FF9D1136820B95268D207EE
:10CBC00048BF43F01003054A43F00803516C880442
:10CBD000FCD59168C905FCD51360704700BF000003
:10CBE00008400E4B1A6822F0805222F014021A609C
:10CBF0001A689107FCD41A6822F008021A60074BE1
:10CC00001A681207FCD4064A12783AB95A6C22F014
:10CC100040725A645A6C12F0C05FFBD1704700003A
:10CC20000840BBC40004084A0128136808BF43F049
:10CC3000805343F00C03136013689B07FCD5024B31
:10CC4000186810F00100FBD170470000084073B570
:10CC50000023044601A80D46019302F091FC2046F2
:10CC6000FFF79FFF0122074B084E204635601A61EF
:10CC70005A6102F0DFFB0198346802F08FFCC4F3C4
:10CC8000072002B070BD0000084000080840F8B559
:10CC9000002306460C461F465A1C84B913F0FF05B4
:10CCA00013D03046FFF77DFF094B30461F60A3F5D8
:10CCB00000631D615C61BDE8F84002F0BBBBE3B2FC
:10CCC00043EA0727240A1346E6E7F8BD00BF000839
:10CCD000084010B50446104602F0A8FB032B04BF21
:10CCE00020F0FF0211430A4A1CBF41EA0021000E56
:10CCF000116001335060A2F50062136100232046E9
:10CD00005361FFF74EFF2046BDE8104002F092BB92
:10CD100000BF0008084073B50446084602F086FBD1
:10CD20000146E0B240EA0120090E8DF8041001210D
:10CD300001AD1C6801348C4208D91468013114F823
:10CD4000016B042905F8016F1460F2D11A68032AF7
:10CD500038BF0322033A1A60019A014B5A6002B0AD
:10CD600070BD000808401A4B73B58D070344084690
:10CD70000AD10A44501A002801DC02B070BD51F8F3
:10CD8000040B43F8040BF5E7CC071DD5002AF4DDAE
:10CD900001A80D1D8C1811F8016BA94200F8016B58
:10CDA00001D0A142F7D10198043A43F8040BEDE712
:10CDB00030F8041C043AADF8041030F8021CADF849
:10CDC0000610019943F8041B002A00F10400EFDC6F
:10CDD000D3E7000808402DE9F7431C460023164618
:10CDE000174A054690469C46BDF828709C420FD8CD
:10CDF000144B28461C615F61FFF7D3FE284602F002
:10CE000019FB002344449F4214D803B0BDE8F083CB
:10CE1000CDF804C001A803F1040E734506D011F843
:10CE2000039001339C4200F8019BF6D8019842F828
:10CE3000040BDBE7E25CF2540133E4E700BF0008D7
:10CE4000084000000840084B094A196811605968F9
:10CE5000084A11609968074A1160D968074A116049
:10CE60009A6A064B1A60704700BF0000084024CE43
:10CE7000000420CE00041CCE000418CE000414CE02
:10CE8000000408B5FFF7DFFF194B93F83A30012B88
:10CE900024D1174BD3F8002222F40032C3F8002229
:10CEA000D3F8042222F40032C3F80422D3F8082273
:10CEB00022F40032C3F80822D3F80C2222F4003204
:10CEC000C3F80C22D3F8102222F40032C3F8102247
:10CED000D3F8142222F40032C3F814220020B9211E
:10CEE000FFF7D5FEBDE808401E2000F016BF008009
:10CEF000104200000142084B1A68084B1A60084AA9
:10CF000012685A60084A12689A60074A1268DA6022
:10CF1000074A12689A62704700BF24CE00040000DE
:10CF2000084020CE00041CCE000418CE000414CE0D
:10CF300000047FB5464B93F83A30012BDEB27FD127
:10CF4000444B6621D3F80022002042F40032C3F89B
:10CF50000022D3F8042242F40032C3F80422D3F8AA
:10CF6000082242F40032C3F80822D3F80C2242F41B
:10CF70000032C3F80C22D3F8102242F40032C3F876
:10CF80001022D3F8142242F40032C3F81422FFF71F
:10CF90007EFE99210020FFF77AFE41F2883000F0F2
:10CFA000BCFEAB210020FFF772FE35210020FFF709
:10CFB000A2FFFFF74CFE10F0020504461DD1254BE1
:10CFC0001A78C82A1FD15B78602B16D10521284614
:10CFD0008DF80C60FFF73BFE44F002048DF80D0065
:10CFE000502128468DF80E40FFF751FE03232A46B4
:10CFF0000095104603A9FFF7EEFE1E2004B0BDE821
:10D00000704000F08ABEEF2A15D15B78602BF4D116
:10D010003123352100208DF80C30FFF718FE40F049
:10D0200002008DF80D0050210020FFF730FE002295
:10D0300002230092DDE7202ADFD15B78502BE6E760
:10D04000AB210020FFF723FEFFF755FFD5E7008057
:10D0500010420000014293C400040122014B1A70E7
:10D060007047BBC400040022064B1A70064B5A6C72
:10D0700022F040725A645A6C12F0C05FFBD17047C4
:10D0800000BFBBC40004000008400122064B1A7018
:10D09000064B5A6C22F040725A645A6C12F0C05F10
:10D0A000FBD1704700BFBAC4000400000840002252
:10D0B000014B1A707047BAC40004F7B5044690F8E3
:10D0C000C430022B0ABF214B94F8C000186802F04C
:10D0D000ABF9D4F8B030B4F8C6009978FFF7D7FDB3
:10D0E0001C4B1B68032B28D11B4A1B4D13681B4E7E
:10D0F000013329460120136021F0D5FE33682968E9
:10D10000012B174C184F01AA0DD1174B18683AF094
:10D1100076F82368019A13442360002333602B6858
:10D120003B6003B0F0BD38683AF069F82368019AB3
:10D130001344236000233360F3E70C4B1B68032B7D
:10D1400001BF0B4A136801331360EAE700BF4038A0
:10D150000004E89C0004E49C0004D49C0004D89CD7
:10D160000004E09C000444380004DC9C0004D09CD3
:10D170000004CC9C000410B5D0F8B0300A4CD9782B
:10D18000B0F8C600FFF783FD2146012021F08BFE99
:10D190002268054B1E201A6000F0BFFDBDE810405C
:10D1A000FFF785BF00BF383800044438000473B56A
:10D1B0000023044601A80D46019302F0E1F9B4F8FA
:10D1C000C600FFF7EEFC0122084B084E35601A61DD
:10D1D0005A61B4F8C60002F02DF90198346802F0E3
:10D1E000DDF9C4F3072002B070BD0000084000085C
:10D1F000084010B5D0F8B0300446597C09B9002079
:10D2000010BDFFF7D4FFD4F8AC3082B2DB791842FE
:10D21000F5D0024B4FF0FF301A60F1E700BFB89C29
:10D22000000470B50446B0F8C6000D46FFF7B9FC1F
:10D230000122064B074E35601A615A61B4F8C600E8
:10D2400002F0F8F83068C0F3072070BD00BF00009E
:10D25000084000080840002313B5294C01932378A7
:10D26000CBB101A802F0A2F9274B1B7883BB23782E
:10D270001BB9019802F0A8F90DE0234B9C682368C4
:10D280006269DB439A4208D0FFF7E5FFDB221F49C2
:10D29000204802F038FA02B010BDD4F8B030204671
:10D2A000197CFFF7BEFFD4F8AC301B78184019D0BA
:10D2B0002046FFF702FFD4F8B0302046197CFFF774
:10D2C000B0FFD4F8AC301B780342F4D1FFF7DDFE99
:10D2D000114B5A6C22F040725A645A6C12F0C05FC3
:10D2E000FBD1C6E7FFF7BFFE0C4B1A68022A88BFC6
:10D2F00018600A4B1A68022A84BF00221A60E7E706
:10D3000000BFBBC40004BAC40004BC9B00041C42A0
:10D3100001066542010600000840D09C0004E89C1C
:10D3200000042DE9F74F174602680446D2434069CE
:10D3300090420BD0FFF78FFF40F2FF72254925483E
:10D3400002F0E1F9002003B0BDE8F08F002BF9D026
:10D35000B4F8BC208A4238D35818824235D34FF0F3
:10D36000040BB4F8BE50DFF870900D44DFF870A0E5
:10D370005E192B0103F47043E8B2184302F056F82B
:10D38000D4F8B03020F0FF005B7D013503430193FA
:10D3900002F0A4F8019B8046C9F800300223CAF8C5
:10D3A00010B0CAF81430B4F8C600FFF7FAFBB4F8AE
:10D3B000C60002F03FF899F80530404607F8013BF7
:10D3C00002F096F8AE42D4D1BCE76FF07B00BAE72A
:10D3D00000BFC43F01060D400106000808400000E0
:10D3E0000840F0B50023064685B068460D4617464E
:10D3F000CDE90133039302F0D9F8D6F8B0303046C6
:10D40000197CFFF70EFF584B1B78002B60D0574B51
:10D410001B785BB9FFF71FFF40F2C24255495548E0
:10D4200002F071F90F24204605B0F0BD534B1B7874
:10D4300013BB012001A921F036FD96F8C430022B60
:10D4400007D14E4B1A68019B9B1A4D4A12689342B2
:10D450000DD34C4A536C43F040735364536C03F048
:10D46000C053B3F1C05FF9D13046FFF784FE009896
:10D4700002F0AAF8002465E0434B5A6C22F0407297
:10D480005A645C6C14F0C054FBD10125009802F082
:10D490009BF8012D56D1284601A921F004FD039BDC
:10D4A0003B2B57D9684602F06BF80023334A0098AB
:10D4B0001370354A1360354A136002F06FF801208B
:10D4C00002A921F0F0FC324A13680133136039E0FD
:10D4D000D6F8AC3081B21B781840C8D1FFF7C3FD35
:10D4E0002D4B1A68022A88BF18602B4B1A68022A33
:10D4F00084BF00221A602B78BB42DAB20AD1214BDA
:10D500005A6C22F040725A645D6C15F0C055FBD124
:10D510000124BBE7224B28461D60214B1F70214B85
:10D520001A70214B196020F09AFC30B125F01F00D1
:10D5300020F017FC2B78BB42E1D0009802F044F8B1
:10D540004FF0FF343046FFF754FE002818BF4FF06D
:10D55000FF3468E702A9012021F0A5FCDDE9010103
:10D5600003AA39F04CFE9AE700BFBAC40004BBC45A
:10D5700000043B41010684410106E64300044438AF
:10D5800000043C3800040000084010CE00040CCE1B
:10D590000004C49C0004D09C0004E89C0004BC9CD3
:10D5A0000004BDC40004BCC40004B89C00047FB5E2
:10D5B00003680024DB43426905469A42CDE90044F2
:10D5C000CDE902440AD0FFF746FE5A4840F23F52E6
:10D5D0005A4902F098F8204604B070BD684601F040
:10D5E000E5FFD5F8B0302846197CFFF71AFE04464F
:10D5F000D5F8B0302846D97BFFF713FED5F8AC201C
:10D600001378234238D19378D2781343034205D15B
:10D61000002B6AD14A4B1B78002B66D0494B1B78F4
:10D620004BB9FFF718FE474840F24F52474902F006
:10D630006AF80F20D0E7454B1B781BBB012001A9DE
:10D6400021F031FC95F8C430022B07D1414B1A6808
:10D65000019B9B1A404A126893420DD33F4A536C78
:10D6600043F040735364536C03F0C053B3F1C05F95
:10D67000F9D12846FFF77FFD009801F0A5FF6FF074
:10D680007800A9E7354B5A6C22F040725A645A6C04
:10D6900012F0C05FFBD101246FF07806009801F012
:10D6A00093FF012C1BD1204601A921F0FCFB039B19
:10D6B0003B2B35D9684601F063FF0023244A0098CC
:10D6C0001370264A1360264A136001F067FF012099
:10D6D00002A921F0E8FB234A136801331360002EEE
:10D6E000CDD12846FFF785FD76E7FFF7BCFC1E4B42
:10D6F0001A68022A84BF00221A601C4B1A68022A88
:10D7000084BF00221A60FFF7D2FC134B5A6C22F040
:10D7100040725A645C6C14F0C054FBD12646BDE7DD
:10D7200002A9012021F0BFFBDDE9010103AA39F0C4
:10D7300066FDBCE700BF39410106F0400106BAC4EE
:10D740000004BBC40004EE400106A5400106E64308
:10D750000004443800043C3800040000084010CEA7
:10D7600000040CCE0004C89C0004D09C0004E89C7B
:10D77000000470B504460E46B0F8C6001546FFF723
:10D7800010FA0022064B1E60A3F500631D615A616A
:10D79000B4F8C600BDE8704001F04CBE00BF000800
:10D7A00008402DE9F04F1F46002387B0CDE9033232
:10D7B00003684269DB439A4204460D4600F0B68096
:10D7C000FFF749FD40F257325E495E4801F09BFF8A
:10D7D000002299E05D4B4FF001091E68DDF810B0A2
:10D7E0007600731E2B40F61ABE4228BF3E460596B1
:10D7F00000212046C8F80090FFF7D9FE7930F7D015
:10D8000003A801F0D3FE514B1B781BB1039801F024
:10D81000DBFEEDE70223C8F80030049B1A0106D5B1
:10D82000059A4B491A44934272D1DFF824B101237F
:10D83000204684F8C43001F06CFE94F8C530D4F86A
:10D84000B000042B69D1294604AA007805ABFFF784
:10D8500062FADDE9041281460820FFF784FACAF86B
:10D8600000904FF0000994F8C5303A4A0133334430
:10D870001361C2F81490FFF7F0FBB4F8C600FFF78D
:10D8800090F9B4F8C60001F0D5FD0323C8F80030C4
:10D89000324B3249C3F80090324B0120C3F800905C
:10D8A000731E0BEB03091BF803B021F0FCFA03987D
:10D8B00001F08AFE04233544691EC8F8003099F847
:10D8C000002020460191FFF78CFD0090DF2000F042
:10D8D00024FADDE9002105200423C8F80000002A0D
:10D8E000EBD0DDE904310B44049300231C49012AE9
:10D8F000A7EB06070B601DD099F8001084F8C43020
:10D90000594518BF6FF00102104607B0BDE8F08F0F
:10D9100013F8010B01F8010B85E72946007801F0A7
:10D9200092FDDDE904128146042096E7DFF8388095
:10D93000DFF838A0002F7FF44DAF84F8C47047E7BC
:10D9400000BFD14101061A420106889C0004BAC4F6
:10D950000004BEC4000400000840CC9C0004C09C2D
:10D960000004E49C0004D09C0004000808402DE959
:10D97000F04F02680025D243436985B093420446C4
:10D9800002950CD0FFF767FC40F2D5326A496A482D
:10D9900001F0B9FE2B46184605B0BDE8F08F012511
:10D9A000DFF8B8914FEA117A21F0704631462046EF
:10D9B000C9F80050FFF7FBFD10F1790FF6D0019088
:10D9C000A06901F06CFE3146204601F0E0FCA06148
:10D9D000804601F064FE0546B4F8BA10820A11EAE6
:10D9E0009520019B22D001270AF1FF32012A3DD95F
:10D9F000BAF1040F40D0B5F5004F1BD0B5F5803F0C
:10DA00003AD0B5F5805F40F09280D4F8B02091799B
:10DA100013E011F0010F1CBF17460CFA00F549087E
:10DA20005208013012F0010FF3D0DDE701270A2080
:10DA3000BC46F7E7D4F8B020D1794FF0000A517115
:10DA4000002F6FD04FF0020B31462046C9F800B0CE
:10DA5000FFF7ADFD7930F7D002A801F0A7FD374BF5
:10DA60001B786BB1029801F0AFFDEDE7BAF1020F40
:10DA7000D4F8B020CBD1DFE7D4F8B020117ADCE7BE
:10DA8000204684F8C4B0019301F043FD414620468E
:10DA900001F030FD0120019B2A4ADFF8C0B013607D
:10DAA000294A59461360284A1360284A1060284AB8
:10DAB000136021F0F8F90323C9F80030DBF80030D7
:10DAC000DFF894B002980193CBF8003001F07CFDB0
:10DAD00003A9012021F0E7F9019B039A41F2883064
:10DAE000D11A44F6206300FB0A3399420FD2134B3C
:10DAF0001B78002BECD031462046FFF758FD10F183
:10DB0000790F034608D1DF2000F007F9E0E70AF1BA
:10DB1000010ACBF80020EEE70422013FC9F80020FB
:10DB2000A8448DE70C4A84F8C470176033E74FF0BF
:10DB3000FF3330E700BF86410106CF410106BAC47A
:10DB40000004E49C0004CC9C0004E09C0004D89CED
:10DB50000004C89C0004C09C0004E89C0004DC9CF9
:10DB6000000470B503684269DB439A42044609D059
:10DB7000FFF771FB40F275721949194801F0C3FDB6
:10DB8000002070BD01F0AAFC0646204601F0C1FC51
:10DB9000D4F8B0302046D97AFFF743FBD4F8B03040
:10DBA0000546D97B2046FFF73CFBD4F8B03029026C
:10DBB0001B7B41EA03410143FFF74FFA41F03C016F
:10DBC000B4F8C600FFF763F8304601F091FC00217D
:10DBD0002046FFF7ECFC7930F9D0D1E700BF5A407E
:10DBE0000106A34001062DE9F74F1F460368904642
:10DBF000DB43426904469A420E460BD0FFF72BFBEB
:10DC000040F2B1723449344801F07DFD002003B088
:10DC1000BDE8F08FD0F8B030597BFFF7C8FA012388
:10DC2000320A0332934003424ED1002FEED0B4F8B3
:10DC3000BC30B3424BD3F219934248D34FF0050B9B
:10DC4000B4F8BE50DFF898903544DFF894A008F19E
:10DC5000FF362F442B0103F47043E8B2184301F060
:10DC6000E5FBD4F8B03020F0FF001B7D03430193A7
:10DC700001F034FC8046204601F04BFC019BC9F8C2
:10DC8000003016F8013FC9F804300023CAF810B07C
:10DC9000CAF81430B4F8C600FEF783FFB4F8C60023
:10DCA00001F0C8FBD4F8B0302046197CFFF7B9FA70
:10DCB000D4F8AC301B780342F4D14046013501F072
:10DCC00017FCAF42C6D1A1E76FF07E009FE76FF06F
:10DCD0007B009CE700BF0F4001065840010600088A
:10DCE0000840000008401FB50B4B0A465968D0F8A1
:10DCF000B030C9074CBF9B7A5B7A0DF10F018DF8EC
:10DD00000F3003230093B0F8C600012301F007FC95
:10DD100005B05DF804FB0000084038B50446054D29
:10DD20000D222846002101F015FC2846214601F06D
:10DD30001BFC002038BD00021542C3B2342B09D8A9
:10DD400001234109054A00F01F00834042F82130B9
:10DD5000002070476FF00200704700E100E0C3B29E
:10DD6000342B0ED801220849430900F01F008240DD
:10DD7000203341F82320BFF34F8FBFF36F8F002074
:10DD800070476FF00200704700BF00E100E0024BF7
:10DD90005868C0F308001038704700ED00E038B54F
:10DDA000FFF7F5FF044645B200212846E4B21FF014
:10DDB00098FE342C1AD8104B53F82530CBB1284696
:10DDC0009847EFF3118353B12A4601210C4822F002
:10DDD000DAF940F2A9120A490B4801F094FC1FF04D
:10DDE0007EFC28461FF0D1FE002038BD6FF00200F7
:10DDF000FBE76FF00300F8E700BF809E0004C40F4C
:10DE00000506F044010630450106F0B51F461646EA
:10DE1000154B05049D609C8901FA02F2A4B224EA24
:10DE2000020401EA0702B2401443A2B2154345F0CE
:10DE300080759D609C8985B0A3B29A4211D020283C
:10DE400007D9A0F12704072C03D9A0F13004092C2D
:10DE500007D8CDE90001CDE902670621034822F089
:10DE600092F905B0F0BD00801042E429050637B5EF
:10DE7000204B0D46187C01A901F051FC04461820E6
:10DE80001EF067FA01F02FFC70B9102001F0CBFBF7
:10DE900050B90C2001F0C7FB30B901F008FC30B1DB
:10DEA0001549154801F02BFC002003B030BD6B1C58
:10DEB00007D101F0B6FB98B10022104B01981A70FF
:10DEC000F3E74FF47A735D4341F288339D42EBD917
:10DED00001F0A7FB0028EFD144F620639D42EBD967
:10DEE0000122064B01981A700C235C430C3C204421
:10DEF000DBE7FCBE0004B8A60004BCA60004ABC56A
:10DF0000000480B584B000AF0346FB712E4B1B6943
:10DF10002D4A43F0040313612C4B5B6B2B4A43F0F7
:10DF2000010353632A4B83221A60294B01221A6092
:10DF3000294B1B78002B01D000F0A5FC01F0C7FB9A
:10DF4000234B84221A6000F0B2F901F0C4FB1120C7
:10DF500001F090FBEFF30983204A1360EFF308838D
:10DF60001F4A1360EFF389831E4A1360EFF388831F
:10DF70001D4A1360EFF30B831C4A1360EFF30A830F
:10DF80001B4A1360EFF38B831A4A1360EFF38A8303
:10DF9000194A1360194B1B68194A13602DE9FF5F7A
:10DFA0006B46174A1360144A164B1B681360154BD7
:10DFB0001B68002B2BD1144B01221A74044B8922AD
:10DFC0001A6049E000BF00ED00E000000242840159
:10DFD000124208002E42E140000484E3000488E37A
:10DFE000000424E2000428E2000478E300047CE357
:10DFF000000418E200041CE2000400002E428CE33E
:10E00000000490E300045801134270380004874B69
:10E0100085221A60874B874A1A60FEF760FC834BA3
:10E0200086221A60834B1B681B467A4602F1100257
:10E0300042F001021A60BFF34F8F30BF00BF00BF34
:10E0400000BF00BF72B6BFF36F8FFEF76EFCBDE876
:10E05000FF5F764B87221A60784B1B68784A136003
:10E06000784B1B68764AD360774A714B1A60704BC5
:10E070001B681A461046006880F30888734A6C4B88
:10E080001A606B4B1B681A461046006880F30A88BA
:10E090006F4A674B1A60664B1B681A461046006849
:10E0A00080F388886B4A624B1A60614B1B681A4682
:10E0B0001046006880F38A884FF0040080F31488CB
:10E0C000BFF34F8F4FF0060080F31488BFF34F8FDC
:10E0D000614A574B1A60564B1B681A461046006837
:10E0E00080F309885D4A524B1A60514B1B681A46EF
:10E0F0001046006880F30B88594A4D4B1A604C4B10
:10E100001B681A461046006880F38988554A484BB8
:10E110001A60474B1B681A461046006880F38B88CC
:10E12000514A434B1A60424B1B681A46104650F83E
:10E13000001B81F314884C4A3E4B1A603D4B1B6810
:10E140001A46104650F8001B81F39488484B002271
:10E150001A60474A484B1B68136000F09CF9464B15
:10E160001B69454A23F004031361444B01221A60E2
:10E170002F4B88221A60112001F081FA2C4B892242
:10E180001A6001F084FA294B8A221A6021F01FF8E4
:10E19000274B8B221A603A4B1B78002B01D000F0E2
:10E1A0009CFB224B8C221A60374B1B78DBB2002B76
:10E1B00030D0224BDB681A460121334821F0E3FFBF
:10E1C000334B1B68324A0221324821F0DCFF314BCD
:10E1D0001B68304A0221304821F0D5FF304B1B68C4
:10E1E0002F4A02212F4821F0CEFF144B1B681A46FC
:10E1F00001212C4821F0C7FF07F1080207F10C03A9
:10E200001146184601F07BFAFA68BB6802212648DD
:10E2100021F0B9FF0B4B1B680A4A23F4807313608B
:10E22000034B8D221A6000BF1037BD4680BD8401AC
:10E23000124290E3000404002E425C011342703845
:10E240000004D800134288E300047CE3000428E2C1
:10E2500000041CE2000484E3000478E3000424E2E8
:10E26000000418E2000474E3000414E2000408004F
:10E270002E4200002E428CE3000400ED00E03C0141
:10E280001342E1400004EBE30004725305066C0006
:10E2900013429453050670001342CD5305067400D3
:10E2A0001342065405063E5405067454050670B51F
:10E2B0006A4B6A4A1A601A682DE9FF5F12461046D7
:10E2C000EFF3038140F8041BEFF3108140F8041BC7
:10E2D000EFF3138140F8041BEFF3118140F8041BA6
:10E2E000EFF314810160BDE8FF5F5D4A1A601B68AF
:10E2F0002DE9FF5F1A461046EFF3908140F8041BAA
:10E30000EFF3938140F8041BEFF3918140F8041B75
:10E31000EFF394810160BDE8FF5F0024524E524D3F
:10E3200033682B6073686B60B368AB60331993F824
:10E330000023A31CD2B205EB830360B201345A6000
:10E34000FFF70DFD352CF1D14949494A0B6813609F
:10E350004B6853608B6893600023C81890F80043A3
:10E36000981C0133E4B202EB8000352B4460F4D1F9
:10E3700020F025FF404A404B516B1960926B5A6068
:10E380004FF0E0239A683D4B1A603D4A916859600E
:10E39000116999605169D960117EC9B21974517EB1
:10E3A000C9B25974917EC9B29974D17FC9B2D97575
:10E3B00092F82010C9B2197692F82210C9B2997653
:10E3C00092F82310C9B2D976516AD961D2F888106F
:10E3D0001962D2F88C1059622B4988682B49086061
:10E3E0002B4884684C6004698C604469CC60047E6E
:10E3F000E4B20C74447EE4B24C74847EE4B28C7457
:10E40000C47FE4B2CC7590F82040E4B20C7690F86A
:10E410002240E4B28C7690F82340E4B2CC76446A91
:10E42000CC61D0F888000862D2F8F0109962D2F876
:10E43000FC20DA62174A116A1963916A5963116BF9
:10E440009963916BD963116C1964916C5964116D66
:10E450009964926DDA6470BD00BF90E3000464E3D8
:10E46000000408E2000400E100E084E2000400E1AE
:10E4700002E028E1000400EF00E07CE200042CE26E
:10E48000000400ED00E000E002E0DCE0000400ED4C
:10E4900002E0001000E04FF0E02210B56B4B19686D
:10E4A00091605968C2F8081D9968C2F8101DD968B2
:10E4B000C2F8141D197CC9B282F8181D597CC9B262
:10E4C00082F8191D997CC9B282F81A1DD97DC9B28A
:10E4D00082F81F1D197EC9B282F8201D997EC9B22B
:10E4E00082F8221DD97EC9B282F8231DD969C2F8EB
:10E4F000241D196AC2F8881D596AC2F88C1D186853
:10E500005349886053484468C1F8084D8468C1F88D
:10E51000104DC468C1F8144D047CE4B281F8184D64
:10E52000447CE4B281F8194D847CE4B281F81A4D40
:10E53000C47DE4B281F81F4D047EE4B281F8204D21
:10E54000847EE4B281F8224DC47EE4B281F8234D8A
:10E55000C469C1F8244D006AC1F8880D996AC2F8EF
:10E56000F01DD96AC2F8FC1D196BA2F55042116268
:10E57000596B9162996B1163D96B9163196C11643A
:10E58000596C9164996C1165DB6C9365324A324B1E
:10E590001168596352689A63314B314A1A601A689C
:10E5A0002DE9FF5F1246104650F8041B81F30088E6
:10E5B00050F8041B81F3108850F8041B81F3138872
:10E5C00050F8041B81F31188BDE8FF5F264A1A60EA
:10E5D0001B682DE9FF5F1A46104650F8041B81F3B3
:10E5E000908850F8041B81F3938850F8041B81F342
:10E5F0009188BDE8FF5F00231C491C4A981C01EB71
:10E6000080004068D4180133C0B2352B84F8000371
:10E61000F4D10B6813604B6853608B6815499360A5
:10E620000023144A981C01EB80004068D418013381
:10E63000C0B2352B84F80003F4D10B6813604B682B
:10E6400053608B68936010BD00BF2CE2000400E0B3
:10E6500002E0DCE000047CE2000400EF00E090E374
:10E66000000464E3000408E2000484E2000400E122
:10E6700000E028E1000400E102E0002370B5104C46
:10E68000114D072B236006D900230C260F4D072BB5
:10E6900023600BD970BD0C225343EA18117A11B1D3
:10E6A000EB585068984723680133EAE77343EA1848
:10E6B000117A11B1EB585068984723680133E6E7A7
:10E6C00000BFD4A6000410A90004A8A7000413B535
:10E6D000204B04461B683BB901A800F051FF112CE8
:10E6E00004D9019800F05AFF02B010BD0121194B66
:10E6F000A1401A68194C22EA01021A602278002A05
:10E70000EFD01B68002BECD1154BD3F84C31DB0557
:10E7100005D540F28B321249134800F0F4FFFFF7A1
:10E72000ACFF114B1B788BB1FEF7ABFB0020FEF763
:10E7300042F90E4AD2F8803B43F48003C2F8803B92
:10E740000122064B5A6600232370CAE7FEF77BFBC3
:10E75000ECE794E3000440CF0004ECE30004000085
:10E76000134273630106CA630106E240000400001D
:10E770000442002370B5104C114D072B236006D9BD
:10E7800000230C260F4D072B23600BD970BD0C22E4
:10E790005343EA18117A11B1EB585068984723682F
:10E7A0000133EAE77343EA18117A11B1EB58506864
:10E7B000984723680133E6E700BFD0A6000468A8A5
:10E7C0000004E8A60004002313B50193264B044679
:10E7D0001B683BB901A800F0D3FE112C04D90198A5
:10E7E00000F0DCFE02B010BD01201F4BA0401A68F3
:10E7F0001F4C104318602378002BF0D11D4BD3F829
:10E800004C21D00502D45B68002B05DA4FF47372FB
:10E810001949194800F077FF194AD2F8803B43F4B0
:10E820008003C2F8803B0122124BC3F80421D3F8C5
:10E830004C21D105FBD50122C3F84421D3F84C214A
:10E84000D205FBD40120FEF7B6F80D4B1B7833B18F
:10E85000FEF76FFBFFF78DFF01232370BFE7FEF785
:10E860004AFBF7E700BF94E3000440CF0004ECE369
:10E870000004000013421A630106716301060000E0
:10E880000442E2400004002370B5104C114D052BEA
:10E89000236006D900230C260F4D072B23600BD9CC
:10E8A00070BD0C225343EA18117A11B1EB5850682D
:10E8B000984723680133EAE77343EA18117A11B1E4
:10E8C000EB585068984723680133E6E700BFCCA6B1
:10E8D000000470A9000408A80004002370B5104CBF
:10E8E000114D052B236006D900230C260F4D072B55
:10E8F00023600BD970BD0C225343EA18117A11B171
:10E90000EB585068984723680133EAE77343EA18E5
:10E91000117A11B1EB585068984723680133E6E744
:10E9200000BFC8A60004C8A8000448A70004222904
:10E930007FB506460C4659D8012E394D03A836D16D
:10E9400000F01EFE2A19537BFF2B11D001335373A5
:10E95000A4F12003C4F1200226FA02F206FA03F31E
:10E960001343A640D5E9001231431A43C5E900120A
:10E97000039800F013FE2B195B7BFF2B36D101238C
:10E980000221284A2948009421F015FC152C2DD984
:10E990000B23163C03FB0454254B00210093012359
:10E9A0001A4630340194084621F0BDFC1EE000F008
:10E9B000E7FD2B195E7BDEB1013EF6B25E7396B9C0
:10E9C0000122A4F12003C4F1200122FA01F102FA8C
:10E9D00003F30B43A240D5E9000120EA020021EA3B
:10E9E0000301C5E90001039800F0D8FD04B070BD33
:10E9F000039800F0D3FD012302210D4A0B48009437
:10EA000021F0D9FB152CF1D90B23163C03FB04553F
:10EA1000094B30350093012331461A460195C2E770
:10EA200000BF705A0004F85E010668130D08B11C9F
:10EA30000C08A65E0106CA1C0C0870B5204CD4F860
:10EA4000905115F0100505D0BDE8704001211C481B
:10EA500021F099BB16231E26C4F850310120FFF780
:10EA60005CF90120C4F85061FFF757F90E23C4F890
:10EA7000D8510120C4F85031FFF74FF90120C4F8F4
:10EA80005061FFF74AF91C230120C4F85031FFF709
:10EA900044F91D230120C4F85031FFF73EF94FF02F
:10EAA0008073C4F8D8310D230120C4F85031FFF72A
:10EAB00034F9044B1D665A6E002AFCD170BD00006B
:10EAC0001342C15F050600002F4238B51B4CD4F835
:10EAD0009031DB0605D4BDE838400121184821F00B
:10EAE00052BB0122174B1A665D6E012DFCD11D230E
:10EAF0002846C4F85031FFF710F91F232846C4F800
:10EB00005031FFF70AF90023C4F8D8311E23C4F8A6
:10EB1000D8512846C4F85031FFF7FFF81A23284689
:10EB2000C4F85031FFF7F9F81223C4F850312846E1
:10EB3000BDE83840FFF7F1B800BF00001342955F11
:10EB4000050600002F4270B51C4BD3F8905115F00C
:10EB5000040505D0BDE870400121184821F013BB21
:10EB600016231E26174C01202361FFF7D6F801203B
:10EB70002661FFF7D2F80E2301202361FFF7CDF8BD
:10EB800001202661FFF7C9F81C2301202361FFF74C
:10EB9000C4F81D2301202361FFF7BFF80D230120D6
:10EBA0002361FFF7BAF8074B1D655A6D002AFCD1A7
:10EBB0000123C4F8843070BD00BF00001342675FBA
:10EBC00005060000124200002F4238B5164BD3F85C
:10EBD00090315B0705D4BDE838400121134821F08E
:10EBE000D2BA0125124B124C1D651D232846236104
:10EBF000FFF793F81F2328462361FFF78EF81E23A3
:10EC000028462361FFF789F81A2328462361FFF776
:10EC100084F8122328462361FFF77FF80023C4F805
:10EC2000843038BD00BF00001342385F0506000085
:10EC30002F420000124270B52C4CD4F8AC3043F097
:10EC40000203C4F8AC30D4F8E0319B07FBD4D4F80D
:10EC5000906116F0080605D0BDE8704001212348F8
:10EC600021F091BAD4F8E431224A43F00203C4F807
:10EC7000E431D2F88C301E2543F00203C2F88C3008
:10EC800016230120C4F85431FFF747F80120C4F8D7
:10EC90005451FFF742F80E230120C4F85431FFF716
:10ECA0003CF80120C4F85451FFF737F81C23012029
:10ECB000C4F85431FFF731F81D230120C4F8543152
:10ECC000FFF72BF80D230120C4F85431FFF725F886
:10ECD000D4F8E43123F00203C4F8E431064B9E6516
:10ECE000DA6D002AFCD170BD00BF000013420B5F3B
:10ECF00005060000124200002F4270B51A4CD4F8ED
:10ED0000905115F0200505D0BDE87040012116484E
:10ED100021F039BA16231E26A3640120FEF7FDFF59
:10ED20000120A664FEF7F9FF0E230120A364FEF77D
:10ED3000F4FF0120A664FEF7F0FF1C230120A3646A
:10ED4000FEF7EBFF1D230120A364FEF7E6FF0D2372
:10ED50000120A364FEF7E1FF054B9D67DA6F002AEF
:10ED6000FCD170BD00BF00001342E25E050600004A
:10ED70002F4210B5154CD4F890319B0605D4BDE850
:10ED800010400121124821F0FEB91D230120A36487
:10ED9000FEF7C3FF1F230120A364FEF7BEFF1E235F
:10EDA0000120A364FEF7B9FF1A230120A364FEF734
:10EDB000B4FF12230120A364FEF7AFFF0122044B2E
:10EDC0009A67DA6F012AFCD110BD00001342B85EC9
:10EDD000050600002F4238B50C46042868D8DFE845
:10EDE00000F0032441707C0075201CF078FC28B1F1
:10EDF000012C14D1BDE83840FFF71FBE75201FF06D
:10EE0000D0FC012C06D1FFF718FE7520BDE8384074
:10EE10001FF037BC002CF8D1FFF757FEF5E7002CA8
:10EE200046D1BDE83840FFF750BE7A201CF057FCB1
:10EE300068B97A201FF0B5FC012C03D1FFF783FEDF
:10EE40007A20E3E7002CFBD1FFF7BFFEF8E7012CA7
:10EE500003D1BDE83840FFF776BE4CBBBDE8384073
:10EE6000FFF7B3BE7A201CF03AFCB0B97A201FF04D
:10EE700098FC012C09D1FFF7DEFE3D4AD2F8AC30F8
:10EE800043F00203C2F8AC30DAE7002CD8D1384A9C
:10EE9000D2F8AC3023F00203F4E7012C09D1FFF7DC
:10EEA000CAFE334AD2F8AC3043F00203C2F8AC30A9
:10EEB00038BD002CFCD12E4AD2F8AC3023F002032E
:10EEC000F4E7012903D1BDE83840FFF716BF002958
:10EED000EED1BDE83840FFF74CBF012926D1254DC2
:10EEE000AB6CDA0304D52448BDE8384021F04BB9B7
:10EEF00040F2EF734FF49670AB64FEF70EFF40F2F2
:10EF0000EE734FF49670AB64FEF707FF40F2FE73AA
:10EF10004FF49670AB64FEF700FF40F2F673AB64FB
:10EF20004FF49670BDE83840FEF7F7BE0029BFD118
:10EF3000114CA36CDB0302D401211048D4E740F24A
:10EF4000FE734FF49670A364FEF7E7FE40F2EE7393
:10EF50004FF49670A364FEF7E0FE40F2EF734FF4B7
:10EF60009670A364FEF7D9FE40F2ED73A364D7E771
:10EF700000BF0000134200701042905E0506675EFD
:10EF8000050673B5054601A80C4600F0F9FA2DBB3D
:10EF9000694E012C316811D101310129316002D152
:10EFA0002846FFF718FF019800F0F8FA3368FF2BA6
:10EFB0000BD10121614821F0E6F806E041B908468D
:10EFC000FFF709FF019800F0E9FA306802B070BD60
:10EFD000013931600029E6D10846E2E7013D032D01
:10EFE00000F2A280DFE805F00231567B524E012C80
:10EFF000756812D10135012D756003D121460120BC
:10F00000FFF7E9FE019800F0C9FA7368FF2B10D1F1
:10F0100001214A4821F0B7F80BE065B901214848C1
:10F0200021F0B1F801202946FFF7D5FE019800F044
:10F03000B5FA7068CAE7013D7560002DE2D1012183
:10F04000414821F0A0F82946D9E73A4D012CA9689A
:10F0500008D101310129A96011D121460220FFF711
:10F06000BAFE0CE039B90220FFF7B5FE019800F0B6
:10F0700095FAA868AAE70139A9600029EED001989D
:10F0800000F08CFAAB68FF2BF3D101212F4821F05F
:10F090007AF8EEE7284D012CE96808D10131012901
:10F0A000E96011D121460320FFF795FE0CE039B944
:10F0B0000320FFF790FE019800F070FAE86885E7FA
:10F0C0000139E9600029EED0019800F067FAEB6899
:10F0D000FF2BF3D101211D4821F055F8EEE7154D26
:10F0E000012C296908D101310129296111D1214659
:10F0F0000420FFF770FE0CE039B90420FFF76BFE27
:10F10000019800F04BFA286960E70139296100296C
:10F11000EED0019800F042FA2B69FF2BF3D10121C8
:10F120000C4821F030F8EEE7019800F037FA4FF084
:10F13000FF304BE700BFB8A900040E6405067F63EB
:10F140000506DE630506AE63050651630506276303
:10F150000506FE620506094BD3F89C2042F0010229
:10F16000C3F89C20D3F8A02022F08072C3F8A0201E
:10F17000D3F89C2042F48032C3F89C2070470000F2
:10F18000134210B5104C0121D4F8A4300F4843F0BD
:10F190000103C4F8A430D4F8A83023F08073C4F875
:10F1A000A830D4F8A43043F48033C4F8A430D4F8A1
:10F1B000A42020F0E8FFD4F8A8200121BDE81040E9
:10F1C000034820F0E0BF000013423A5E05060D5EE2
:10F1D0000506064BD3F8A42022F48032C3F8A420FD
:10F1E000D3F8A82042F08072C3F8A820704700002E
:10F1F000134210B5104C0121D4F8D4310F4843F01C
:10F200000103C4F8D431D4F8D83123F08073C4F8A2
:10F21000D831D4F8D43143F48033C4F8D431D4F89D
:10F22000D42120F0B0FFD4F8D8210121BDE810404E
:10F23000034820F0A8BF00001342E05D0506B35D5F
:10F240000506094B0121D3F88020084822F48032BA
:10F25000C3F88020D3F8802042F00102C3F8802058
:10F26000D3F8802020F08FBF00BF000013428A5DDA
:10F270000506094B0121D3F88020084822F400320A
:10F28000C3F88020D3F8802042F00202C3F8802027
:10F29000D3F8802020F077BF00BF00001342615DEB
:10F2A000050608B500F023FA0B4B1A6852B100228C
:10F2B0001A600122094B114693ED000A4FF47A704F
:10F2C0001CF0D9FF012000F026FA044A136803F568
:10F2D0007A73136008BDDCE30004DC43000414AA65
:10F2E00000049F2330B587B0054605A814468DF865
:10F2F0000F3000F045F903232846009304AA0123A8
:10F300000DF10F01FDF767FD059800F047F99DF835
:10F31000103023809DF8113063809DF81230A38057
:10F3200007B030BD1FB5012405230DF10A028DF889
:10F330000C3003A9234600200094FDF74CFD352333
:10F3400000208DF80C30009423460DF10B0203A928
:10F35000FDF741FD9DF80B009DF80A3043EA0020BF
:10F3600004B010BD38B5044610461A4623688B42D7
:10F370000BD9934209D38D189D4206D8A3685B68C8
:10F380001943FDF794F9002038BD0220FCE7002264
:10F3900070B543695C688C425E6853F8085B06D9B7
:10F3A000091B314405FB01224068104470BD05FB78
:10F3B00006225D682C44EEE710B50446FDF7A1FB7C
:10F3C000A06110BD30B544690023204650F8042FD9
:10F3D0008A4202D954F8330030BD013350F833501B
:10F3E0002A44F5E770B5406900240546426855F89F
:10F3F000043B5A432346914210D950F8336016B962
:10F400004FF0FF3070BD55F8336001333444891A32
:10F4100050F8336055F833207243ECE750F833303E
:10F42000B1FBF3F10819EDE7FEF777BC20F00060BF
:10F4300000BA7047014608B5FDF7F5FBBDE8084086
:10F440000846FDF7CEBB08B503460846FFF7EEFFBA
:10F45000DBB220F0FF00184308BD0246002030B5A3
:10F4600003460C4608605069DD0050F8330028B9A7
:10F470004B664FF40073A1F8683030BD44F8040FB8
:10F48000506901332844406820645069284440682A
:10F490000D682844E6E7B0F8BC3000200B607047E8
:10F4A00070B4B0F8BC600D4611461A46039B8EB18D
:10F4B000022D08D0032D09D0012D0BD1D0F8DC404E
:10F4C000A44670BC6047D0F8E040F9E7D0F8D830E7
:10F4D00070BC18476FF00B0070BC7047002307B575
:10F4E00001A8019300F062F8019803B05DF804FBF5
:10F4F00000F06AB810B5FDF7B0FDD0F8B0400A468C
:10F5000090F8C5306179B0F8C600BDE81040FDF74D
:10F51000E0BBD0F8B03001225978FEF72AB9F0B537
:10F520001F46002304460D46164685B003A80393E4
:10F5300000F026F8BDF828303246294620460093D0
:10F540003B46FDF748FC039800F028F805B0F0BDF5
:10F5500080697047037833B90123114381604360A8
:10F5600040F201330360704710B50446FFF7F0FF27
:10F5700002462046FFF7ECFF831A9942F9D210BDEC
:10F58000EFF31183102B036006D0102383F311884F
:10F59000BFF35F8FBFF36F8F0020704780F3118838
:10F5A000BFF35F8FBFF36F8F00207047EFF31183BE
:10F5B000102B036006D0102383F31188BFF35F8FF5
:10F5C000BFF36F8F0020704780F31188BFF35F8F08
:10F5D000BFF36F8F0020704700F06DB808B501468B
:10F5E0000120FFF7A4F9002008BD08B5014600205E
:10F5F000FFF79DF9002008BD08B500F04CF808BDE4
:10F6000038B50546FFF7F8FF0123AB4013EA0004C5
:10F6100004D1284600F07BF8204638BD4FF0FF307B
:10F62000FBE700F068B81CF0BEBE012808B510D199
:10F6300000F055F872B6EFF31183002282F31188BF
:10F64000BFF34F8F30BFBFF36F8F83F3118862B664
:10F6500008BD0228FCD1BDE80840FEF752BC08B541
:10F66000FFF78FFDFFF7C5FDFFF7EBFDBDE8084095
:10F67000FFF7FFBD08B5FFF72AF8002008BD08B561
:10F68000FFF7A1F8002008BD0000000000005FF8AF
:10F6900000F0ADB007085FF800F06D6E06085FF887
:10F6A00000F095DC05085FF800F0C56308085FF816
:10F6B00000F015F305085FF800F0DD6C06085FF850
:10F6C00000F07DB40B085FF800F017640B085FF8DA
:10F6D00000F0493A06085FF800F045B007085FF807
:10F6E00000F09F640B085FF800F001860B085FF8DC
:10F6F00000F079F305085FF800F0416E06085FF846
:10F7000000F0F1F205085FF800F0C99907085FF80A
:10F7100000F0F16D06085FF800F05D6E08085FF814
:10F7200000F015B804080000000000000000000010
:10F73000000000000000FFFFF0BE09000100000013
:10F7400016000000000000000000000000000000A3
:10F7500000000000000000000000000000000000A9
:10F760000000000000000000000000000000000099
:10F770000000000000000000000000000000000089
:10F780000000000000000000000000000000000079
:10F790000000000000000000000000000000000069
:10F7A0000000000000000000000000000000000059
:10F7B0000000000000000000000000000000000049
:10F7C0000000000000000000000000000000000039
:10F7D0000000000000000000000000000000000029
:10F7E0000000000000000000000000000000000019
:10F7F0000000000000000000000000000000000009
:10F8000000000000000000000000000000000000F8
:10F8100000000000000000000000000000000000E8
:10F8200000000000000000000000000000000000D8
:10F8300000000000D10A05080000000000000000E0
:10F8400000000000000000000000000000000000B8
:10F8500000000000000000000000000000000000A8
:10F860000000000000000000000000000000000098
:10F870000000000000000000000000000000000088
:10F880000000000000000000000000000000000078
:10F890000000000000000000000000000000000068
:10F8A0000000000000000000000000000000000058
:10F8B0000000000000000000000000000000000048
:10F8C0000000000000000000000000000000000038
:10F8D0000000000000000000000000000000000028
:10F8E0000000000000000000000000000000000018
:10F8F0001C170D0800000000FF00000000000000C1
:10F9000000000000000000000000000000000000F7
:10F9100000000000000000000000000000000000E7
:10F9200000000000000000000000000000000000D7
:10F9300000000000000000000000000000000000C7
:10F9400001000000000000004A000000000000006C
:10F9500000000000000000000000000000000000A7
:10F960000000000000000000000000000000000097
:10F970004A0000000000000000000000000000003D
:10F980000000000000000000000000000000000077
:10F9900000000000000000006000000040000000C7
:10F9A0000000000140000000000080004000000056
:10F9B0006000800100000000000000000000000066
:10F9C0000000000000000000000000000000000037
:10F9D000A15E0408000000000000000024D90C080B
:10F9E0000000120000000000000000000000000005
:10F9F00000230000000000000000000000000000E4
:10FA000001230000CCD90C0800000200D8D90C0852
:10FA100000000200E4D90C080000020065D40408CC
:10FA200000000000CB4D0B0800000000AF4D0B089C
:10FA300053640B0857640B08F8360004F8360004CA
:10FA400000000000D58D0708000000000000000045
:10FA5000550C020480000000990C02040000000014
:10FA6000550C020480000000990C02040000000004
:10FA7000550C020480000000990C020400000000F4
:10FA800000000000ADF004080000000000000000CD
:10FA900000000000711005080000000000000000D8
:10FAA00000000000BDF80408000000000000000095
:10FAB00070370004703700040000000000000000F0
:10FAC0006D4B0508BD600508E15F050800000000FA
:10FAD00000000000ED54050815520508A95105085D
:10FAE000954805080000000000000000000000002C
:10FAF0000000000000000000000000006D79050813
:10FB00000000000000000000D3750B08000000009A
:10FB10000000000000000000FCD90C0800002000DC
:10FB200000000000000000000000000000000000D5
:10FB30000000000000000000000000003D69050812
:10FB40000000000010DA0C08000002001CDA0C08AB
:10FB50000000020028DA0C0800000200F5920508F7
:10FB600000000000C0C204001A04000060EA0000A7
:10FB70000206030400000101FFFFFFFF1027000041
:10FB8000D0070000FFFFFFFF00000D4200000C4205
:10FB900000000B421400000014000000000010429E
:10FBA0000000555505000000000003404000000023
:10FBB000FFFFFFFFFFFFFFFF00000000000000004D
:10FBC000000000000001040101000000030001002A
:10FBD0000A000100000100008CBE0C08FFFFFFFFBF
:10FBE0000100000003000000000000000000000011
:10FBF00000100E00000103000200000000000000E1
:10FC000000000000000000000000000000000000F4
:10FC100000100E00000103000100000000000000C1
:10FC200000000000000000000000000000000000D4
:10FC300000100E00000103010000000000000000A1
:10FC400000000000000000000000000000000000B4
:10FC5000B3F40104ADF40104A7F40104A1F4010418
:10FC60009BF4010495F401048FF4010489F4010468
:10FC70004FF4010449F4010443F401043DF4010488
:10FC800037F4010431F401042BF4010425F40104D8
:10FC9000678C0B08538C0B080000000011CF06087E
:10FCA000458C0B08E5CE060851CE06086C390004D9
:10FCB0006C39000401000000010000007C390004E0
:10FCC0007C39000400000000FF0F0000010000006C
:10FCD0007F00000002000000ADF7060891F9060859
:10FCE0000000000000000000000000000000000014
:10FCF0000000000000000000D1290708AD2E070811
:10FD00000000000000000000713007080000000043
:10FD100000000000000000000000000000000000E3
:10FD200000000000000000000000000000000000D3
:10FD30008D290708912D070800000000EDF70C0839
:10FD4000000010000FF80C0800000E000100000079
:10FD500000000000000000000101000000000000A1
:10FD60000000000000000000000000000000000093
:10FD700001000000643A0004C593070821940708B5
:10FD8000FFFFFFFF0000000008000000000000006F
:10FD9000518807084DA60B08FFFFFFFF0000000079
:10FDA000060000000000000000000000000000004D
:10FDB0000000000000000000000000000000000043
:10FDC00000000000B80B0000BFFD0C08D9FD0C08B6
:10FDD00006FE0C0823FE0C0838FE0C0854FE0C0826
:10FDE00067FE0C0881FE0C089DFE0C08D9FE0C086D
:10FDF0001FFF0C0836FF0C084EFF0C086BFF0C08A9
:10FE000082FF0C089BFF0C08B5FF0C08D6FF0C08FE
:10FE1000E5FF0C08F4FF0C0803000D0812000D08A4
:10FE200021000D0830000D083F000D084E000D08A0
:10FE30005D000D086C000D087B000D088A000D08A0
:10FE400099000D08A8000D08B3060D08B7000D08AD
:10FE5000C6000D08D9000D08EC000D08FF000D08C4
:10FE600012010D0825010D0838010D084D010D087E
:10FE700062010D0877010D0888010D0897010D0832
:10FE8000A6010D08B5010D08C4010D08D3010D0828
:10FE9000E2010D08F1010D0800020D080F020D0826
:10FEA0001E020D082D020D083C020D084B020D0824
:10FEB0005A020D0869020D0878020D0887020D0824
:10FEC00096020D08A5020D08B4020D08C3020D0824
:10FED000D2020D08E1020D08F0020D08FF020D0824
:10FEE0000E030D081D030D082C030D083B030D0820
:10FEF0004A030D0859030D0868030D08A8030D08EF
:10FF0000B8FC0C08C8030D0801040D0839040D08DD
:10FF10000000000078040D088E040D08A6040D08EA
:10FF2000B6040D08CB040D08DF040D08B8FC0C085E
:10FF3000B8FC0C08B8FC0C08F0040D0803050D080B
:10FF400020050D0841050D0859050D0878050D0817
:10FF50008E050D08AB050D0805000000000000002F
:10FF600000000000237658431C070D0824765843F0
:10FF700023070D08257658432A070D08267658438F
:10FF800034070D08277658433B070D080000000092
:10FF90000000000000000000000000000000000061
:10FFA0000000000000000000000000000000000051
:10FFB0000000000000000000000000000000000041
:10FFC0000000000000000000000000000000000031
:10FFD0000000000000000000000000000000000021
:10FFE0000000000000000000000000000000000011
:10FFF0000000000000000000000000000000000001
:020000040802F0
:1000000000000000000000000000000000000000F0
:1000100000000000000000000000000000000000E0
:10002000000000000000000000000000FFFFFFFFD4
:10003000000000008DB40708000000000000000070
:1000400000000000000000000000000000000000B0
:1000500000000000000000000000000000000000A0
:10006000000000000100000000000000000000008F
:1000700069BD07080000000000000000000000004B
:10008000F9BA0708000000000000000000000000AE
:10009000B9C40708000000000000000000000000D4
:1000A00031C507080000000000000000000000004B
:1000B00049CE07080000000000000000000000001A
:1000C000000000000000000000000000010000002F
:1000D000B500B500B500B500B500B5006D00000075
:1000E0000000000000000000000000000000000010
:1000F0000000000000000000000000000000000000
:1001000000000000000000000000000000000000EF
:1001100000000000000000000000000000000000DF
:100120000000000081D60708000000000000000069
:1001300000000000E1D907080000000000000000F6
:10014000B2DA0C080000040000000000000000000B
:10015000000000000000000000000000000000009F
:1001600031E407080000000000000000C6DA0C08B7
:10017000000012000000000000000000000000006D
:100180000000000000000000000000007DE1070802
:100190000000000000000000DADA0C080000120085
:1001A000000000000000000000000000000000004F
:1001B00000000000000000008DE1070800000000C2
:1001C00000000000EEDA0C0800001200FADA0C0859
:1001D0000000020006DB0C08000002000000000026
:1001E000A1FC070800000000000000000000000063
:1001F000C119080800000000000000000000000015
:100200008119080800000000000000000000000044
:1002100075200808000000000000000044010104EF
:10022000BD3408081D3408086FB00B0871B00B0806
:10023000F93208080933080829330808193308086F
:100240003933080873B00B087D39080849330808AA
:100250000000000000000000713B0808C3B00B085C
:10026000393B0808D3B00B088FB00304954D020446
:10027000553D0808D14D02040D4E0204694E02049A
:100280008BB003040D3E08080000000000000000D1
:100290005D410808D7B00B08E3B00B08E5B00B08C8
:1002A000014008081940080849400808314008087A
:1002B00061400808E7B00B08EBB00B08D54108080F
:1002C000000000000000000000000000AD48080829
:1002D000000000000000000058EA000401000000D7
:1002E000A03F0004A03F00045C120D085C120D0842
:1002F000B43F000400000000E8D80C08C8D80C087F
:10030000A8D80C0800000000000000000000000059
:1003100000000000000000000000000000000000DD
:1003200000000000000000000000000000000000CD
:1003300000000000000000000000000000000000BD
:1003400000000000000000000000000000000000AD
:100350000000000070C00004A00FFFFF8E038E039A
:100360008E032003C904C904C9042003AA05AA05F1
:10037000AA0520034C044C044C048E03C904C90490
:10038000C9048E03AA05AA05AA058E038E038E034F
:100390008E032003C9048E038E032003AA058E0357
:1003A0008E0320034C044C044C048E03C9044C04FB
:1003B0004C048E03AA054C044C048E03F8029D03E2
:1003C0008E032003000000010101E8070000000087
:1003D0000000010000000200000003000000040013
:1003E000000005000000060000003000C203FFFF0F
:1003F000FFFF00000A0A0A0A0A0A0A0A0A07040694
:10040000052618172D8001FF010101010148010097
:1004100000010005010101FB02FFFF0405060701C1
:10042000010101FFFFFFFFFFFFFFFFFFFFFF096D5E
:10043000EB98E96DEB98E96DEB98E900000000009E
:1004400000000000000000000000003132333435AD
:1004500036373800000000000000003132333435F8
:1004600036373800000000000000000000000000E7
:10047000000000000000000000000031323334357D
:1004800036373800000000000000000000000000C7
:1004900000000000000000000000001112131415FD
:1004A000161718191A1B1C1D1E1F201112131415C4
:1004B000161718191A1B1C1D1E1F20000000000013
:1004C00000000000000000000000001112131415CD
:1004D000161718191A1B1C1D1E1F200000000000F3
:1004E00000000000000000000000000102030405FD
:1004F000060708090A0B0C0D0E0F10010203040574
:10050000060708090A0B0C0D0E0F10000000000072
:1005100000000000000000000000000102030405CC
:10052000060708090A0B0C0D0E0F10000000000052
:10053000000001FFFEFDFC020301FFFEFDFC0405BF
:100540000000000000000001FFFEFDFC0607313244
:100550003334353637381112131415161718191A83
:100560001B1C1D1E1F200102030405060708090AA3
:100570000B0C0D0E0F106DEB98E90700000000004A
:100580000008000000000000090000000000000159
:10059000FF010056070D08900B0D082C00015A07AB
:1005A0000D08610B0D082F00025F070D08400B0DB1
:1005B0000821000364070D08FB0A0D084500046EBE
:1005C000070D08A50A0D085600057B070D086A0AE5
:1005D0000D083B000685070D08310A0D0839000794
:1005E00094070D08EC090D084500089E070D08B199
:1005F000090D083B0009A8070D0883090D082E0006
:100600000AB1070D0857090D082C000BB8070D0893
:1006100054080D0803010CC0070D08EB070D082650
:10062000000DD4070D0811080D0843000A00000052
:100630000000000000000000000000000000FF00BB
:1006400000000000000000000000000000000000AA
:100650000412180F1804121806050C0901A10185CF
:100660000A19002AFF0F150026FF0F950275108149
:10067000000902A10205091901290A1501250A9597
:100680000175088140C0C005010906A10185090561
:100690000719E029E71500250175019508810295E4
:1006A0000575010508190129059102950175039148
:1006B0000395067508150025FF05071900296581B2
:1006C00000C005010902A1010901A10085029510E0
:1006D000750115002501050919012910810205017F
:1006E00016018026FF7F75109502093009318106B9
:1006F0001581257F75089501093881069501050C3E
:100700000A38028106C0C0020109010A0100000086
:100710000201010103090000000014426F120342AC
:1007200004000000000100000000000000000000C4
:1007300000000000000000000000000000000000B9
:1007400000000000000000000000000000000000A9
:100750000000FFFF0000000000000000000000009B
:10076000F16F080800000000000000000000000019
:10077000304400043044000481CD0708000000002C
:100780000000000000000000000000000000000069
:100790000000000000000000000000000000000059
:1007A000F16F0808000000000000000000000000D9
:1007B000704400047044000469440808000000000C
:1007C0000000000000000000000000000000000029
:1007D0000000000000000000000000000000000019
:1007E000F16F080800000000000000000000000099
:1007F000B0440004B0440004797D04080000000007
:1008000000000000000000000000000000000000E8
:1008100000000000000000000000000000000000D8
:10082000F16F080800000000000000000000000058
:10083000F0440004F0440004F175040800000000D6
:1008400000000000000000000000000000000000A8
:100850000000000000000000000000000000000098
:10086000F16F080800000000000000000000000018
:100870003045000430450004BD7F0408000000003E
:100880000000000000000000000000000000000068
:100890000000000000000000000000000000000058
:1008A000F16F0808000000000000000000000000D8
:1008B0007045000470450004DDC407080000000016
:1008C0000000000000000000000000000000000028
:1008D0000000000000000000000000000000000018
:1008E000F16F080800000000000000000000000098
:1008F000B0450004B0450004391F0808000000009E
:1009000000000000000000000000000000000000E7
:1009100000000000000000000000000000000000D7
:10092000F16F080800000000000000000000000057
:10093000F0450004F04500046D1E080800000000AA
:1009400000000000000000000000000000000000A7
:100950000000000000000000000000000000000097
:10096000F16F080800000000000000000000000017
:10097000304600043046000467970B080000000072
:100980000000000000000000000000000000000067
:100990000000000000000000000000000000000057
:1009A000F16F0808000000000000000000000000D7
:1009B000704600047046000455C40708000000009B
:1009C0000000000000000000000000000000000027
:1009D0000000000000000000000000000000000017
:1009E000F16F080800000000000000000000000097
:1009F000B0460004B0460004F54F040800000000B3
:100A000000000000000000000000000000000000E6
:100A10000000000000000000D8460004D846000492
:100A2000000000004CB001040000000002000000C3
:100A3000340000000000000000000000FC4600043C
:100A4000FC46000400000000480301040000000010
:100A500002000000C00000000000000000000000D4
:100A6000204700042047000400000000B4B0010447
:100A700000000000030000001C0000000000000057
:100A80000000000000000000C80801040080000011
:100A90000000000000000000000000005C470004AF
:100AA0005C47000400000000000000000E00000091
:100AB00000000000744700047447000400000000B8
:100AC000000000000E000000000000008C47000441
:100AD0008C47000400000000000000000E00000031
:100AE00000000000A4470004A44700040000000028
:100AF000000000000E00000000000000BC470004E1
:100B0000BC47000400000000000000000E000000D0
:100B100000000000D4470004D44700040000000097
:100B2000000000000E00000000000000EC47000480
:100B3000EC4700040100000001000000FC47000435
:100B4000FC470004000000000848000408480004B6
:100B500000000000010000001848000418480004CC
:100B600000000000244800042448000400000000A5
:100B70000100000034480004344800040000000074
:100B80000000000000000000000000004C480004CD
:100B90004C4800045448000454480004000000007D
:100BA0000000000000000000000000006C4800048D
:100BB0006C480004744800047448000400000000FD
:100BC0000000000000000000000000008C4800044D
:100BD0008C4800049448000494480004000000007D
:100BE000000000000600060004000000E5040508FF
:100BF00088980C08C8AA010400000000000000004A
:100C000000000000C4480004C4480004CC480004AC
:100C1000CC480004000000000000000003000300B6
:100C20001000000000000000A4990C0878AE010438
:100C3000000000000000000000000000FC4800046C
:100C4000FC480004044900040449000400000000BA
:100C5000000000000300030010000000A55205087A
:100C60004C9A0C08D4AF0104000000000000000002
:100C70000000000034490004344900043C490004E9
:100C80003C490004000000000000000003000300D5
:100C9000010000000000000098980C08FCAB010463
:100CA0000000000000000000000000006C4900048B
:100CB0006C490004744900047449000400000000F9
:100CC000000000000A000A0001000000000000000F
:100CD00078980C08908B01040000000000000000D0
:100CE00000000000A4490004A4490004AC49000429
:100CF000AC490004000000000000000002000200F7
:100D000010000000D125050894990C0848AD010495
:100D1000000000000000000000000000DC490004AA
:100D2000DC490004E4490004E44900040000000038
:100D300000000000020002000100000000000000AE
:100D400060990C0810AD01040000000000000000D4
:100D500000000000144A0004144A00041C4A000465
:100D60001C4A000400000000000000000100010017
:100D70000100000000000000A8980C085CAC010411
:100D80000000000000000000000000004C4A0004C9
:100D90004C4A0004544A0004544A00040000000075
:100DA0000000000002000200080000000000000037
:100DB000C8C00C08CCBA01041201000200000040B7
:100DC0008D0E8008070301020301090200000001E3
:100DD00000E03209040000010301000009211101B3
:100DE0000001220000070580034000010705000301
:100DF0004000010904000001030100000921110164
:100E000000012200000705800340000107050003E0
:100E10004000010904000001030100000921110143
:100E200000012200000705800340000107050003C0
:100E3000400001040309041A034D65646961746587
:100E40006B20496E630000000000000000000000FD
:100E50000020034B65796368726F6E204C4D37201C
:100E600048450000000000000000000000000000F5
:100E700000220330303030303030303030303030DD
:100E800030303000000000000000000000000000D2
:100E90000000000A0600020000004001000000FF00
:100EA00000000000934A00041DE9040821F6010433
:100EB00039EA0408000000005DE9040802000000AF
:100EC0003037000400000000B34A00041DE90408A4
:100ED00021F6010439EA0408000000005DE9040875
:100EE000020000002037000400000000D34A000484
:100EF0001DE9040821F6010439EA04080000000095
:100F00005DE9040802000000103700040904000035
:100F10000103010000092111010001220000070561
:100F200080034000010705000340000109040000A0
:100F30000103010000092111010001220000070541
:100F40008003400001070500034000010904000080
:100F50000103010000092111010001220000070521
:100F6000800340000107050003400001000000006D
:100F7000CC4B00041DE9040821F6010439EA0408F9
:100F8000000000005DE904080200000030370004A2
:100F900000000000EC4B00041DE9040821F60104E8
:100FA00039EA0408000000005DE9040802000000BE
:100FB00020370004000000000C4C00041DE9040868
:100FC00021F6010439EA0408000000005DE9040884
:100FD000020000001037000410B5094B1968884260
:100FE0000CBF1A460022194651F8204FA04208BFF4
:100FF0000A4653F8401F884214BF1046184610BDD9
:1010000000B700042DE9F04F4FF00009DFF8AC8085
:1010100087B04FF48062414605AB0446D0F804A087
:10102000CDF8149004F046FE059E46B90123032135
:1010300030461E4A07F010FF07B0BDE8F08F98F861
:101040000070B3B2009302223B462146184800F0DC
:1010500018F90546D8B1D0F810B0BBF1000F16D082
:10106000006803F0FBFBCDF808B02B684946CDE9DA
:101070000003104A4846032307F0EEFE3A460221D9
:101080002046BDF81430CDF80080D847D4E7CDE92C
:101090000276DAF8203002211B7B0020CDE90043E4
:1010A000054A042307F0D8FEC6E700BF3C09020644
:1010B000D4B5000425090206DF0802067CD1040429
:1010C0002DE9FF470546FFF787FF0446002851D06A
:1010D0000127002190F8179090F818A04775042375
:1010E0000846264ACDE9029ACDE9005707F0B4FE3A
:1010F0004B463A4629462248CDF800A000F0C1F8F8
:101100000646C8B1D0F81080B8F1000F14D00068BE
:1011100003F0A4FB0021CDF808803368194ACDE91B
:1011200000030846032307F097FE00234A46009376
:10113000394653462846C047637DDBB10526124C2D
:10114000124F6368AB4211D123697BB1284698479F
:10115000206803F083FB002123693A460293236849
:10116000CDE900030323084607F076FE013E04F1B3
:101170001404E6D104B0BDE8F08700BF8D09020673
:1011800070B500046E0902060CB500044F09020692
:1011900030B5002104460B4B00221D7A90B28542E7
:1011A00006D80831182903F12003F5D1002007E003
:1011B0005868805C0132A042F0D118680028F0D055
:1011C00030BD00BF00B700042DE9F04F002685B008
:1011D000824608460D4691461F460396FFF7FCFEE1
:1011E0000446002843D0002F44D0B9F1000F41D06D
:1011F00055B9012328461946204A07F02DFE6FF005
:101200000B0005B0BDE8F08F6B681B6A197901F01F
:101210007F0B5846019107F0EBF90199804690B198
:10122000637D53B1637E03B93E780023E675637531
:1012300084F8189084F816A00BE0267E002EF1D0DA
:101240006FF00F00DDE75846C9091EF070FE002858
:10125000F6D04A463946284603AB00F08DF90028FF
:10126000CFD0B8F1000FCCD001236375C9E76FF080
:101270001200C6E76FF00D00C3E700BF040C0206C2
:1012800070472DE9F843044608460E4615461F46AA
:10129000BDF8209002F07F08FFF79EFEC0B1B8F1C4
:1012A000010F04F1640315D1427E02B345F08005BD
:1012B00062682046964207D1227AAA4204D1628906
:1012C0004A4501D1227B1AB91434A342F0D100203F
:1012D000BDE8F883B8F1020F01D1827EE5E7B8F1ED
:1012E000030F04D1C27E002AE0D1027FDDE76268ED
:1012F000204696420BD1227AAA4208D1627ABA429B
:1013000005D162894A4502D1227B002AE0D11434FA
:101310009C42ECD1DBE700002DE9F04F85B005469B
:10132000984604F06BFA0F4616468146002800F0F6
:101330008480C48893B29C4228BF1C460021A31A13
:10134000D3F1000B4BEB030BCDE90052042308460D
:10135000CDE9024B3A4A07F07FFD802D59D1DFF8E5
:10136000ECA0002C3CD007F069F9054670B10123D0
:1013700000201946334A07F06FFD02238AF8043033
:101380000024B8F1000F55D1002026E03A4621464E
:1013900000F0C8F8B442074606D02A462946012084
:1013A00020F01AFE02250CE0B9F806202946121B8F
:1013B00018BF0122012020F00FFEB9F80630A34229
:1013C000F0D08AF80450002FDBD00021012308461A
:1013D0001D4A07F041FD6FF0040005B0BDE8F08F35
:1013E0009AF804303BB9002FCAD15A463946012039
:1013F00020F0F2FDC4E7032B5A46214601D12046D6
:10140000F6E7042020F0E8FD002EB9D18AF8046048
:10141000B6E725F080051CB9284600F04DF8AFE787
:101420003A462146284600F07DF80746284600F057
:1014300043F8C8E7C8F80040A6E76FF01500CCE70E
:10144000CA6D01069C6D0106836D0106C0AC0004E7
:1014500070B429B142B90121144870BC07F0E4BC52
:1014600012B901211248F8E7124B03EB80009307F1
:1014700006D011448A420ED012F8013B0370F9E7FE
:101480008C081546234601F0030133B902EB8402B0
:1014900011448A4206D170BC704755F8046B013B79
:1014A0000660F2E712F8013B0370F2E76C4C0506A8
:1014B0003A4C05062000024137B5044640F2EF726F
:1014C000002106F071FF0021204606F0A7FF01A8C9
:1014D000E6F7A7FE0121114AA1408DB21048E3B200
:1014E0009373A2F88650037843FA04F414F00104CD
:1014F0000BBF0B438B43DBB2A2F8845008BFA2F8AA
:1015000084400370538A538A9BB243F00103538291
:101510000198E6F794FE002003B030BD00000241C0
:10152000A6C5000408B5FFF793FF002008BD000022
:101530002DE9F34705460F46904699460426DFF805
:1015400034A04B46424639462846FFF7E5FE10F1E7
:101550000B0F04460AD1012352461946002000957C
:1015600007F07AFC04F05CF9013EEAD1204602B0B3
:10157000BDE8F087EB9E000670B544680069C57C45
:101580003DB1007D28B9206ABDE870400079FFF7C1
:10159000CFBF012302210020024A07F05DFC6FF05B
:1015A0000A0070BD5DD000060023C360038270474F
:1015B00010B48468034674B1E26862B15A7C8069F1
:1015C0004AB1D9680131C1EB8202002AB8BF524248
:1015D000012A03DDD9605DF8044B70470022DA6010
:1015E000E36801215DF8044B1847000038B50B4B48
:1015F00004461D68EB6B53B9242020F05DFE0246C3
:10160000E86320B9064B3221064800F003FDE96B80
:101610002046BDE8384000F007B800BFB03F0004E6
:10162000E5110D08FC110D082DE9F0410C4680462E
:1016300000F06CFF05462146404600F06BFF436911
:101640000446990703F26C7706D1642297FBF2F304
:1016500002FB1373002B70D14FF4C87297FBF2F3A7
:1016600002FB1373B3FA83F35B093022634E02FB70
:10167000036600F021FB00F02BFB614B1B68002B85
:101680006AD06B68BB425AD12F68D8E90023D5E9EC
:101690000801002F5BD1824273EB01015EDB012365
:1016A00023622B6D4FF46162616893FBF2F002FBE1
:1016B00010333C2293FBF2F502FB15322368491BE1
:1016C0009B1AA2686160121A3B2B2360A26051DD55
:1016D00001313C3B6160236063683B2B50DD01328C
:1016E0003C3BA2606360A368172B4FDDE269183BA7
:1016F0000132A3602369E261A2690132072AA8BF0F
:101700000022A261E2680132E26056F823108A42A8
:101710000EDD0B2BA2EB0102E26003F1010205BF1B
:10172000636900222261013302BF2261E2616361C9
:1017300000F0C8FA2046BDE8F081012395E738465D
:1017400000F012FA00289FD14FF0FF3304E08242EC
:1017500073EB010102DA0023236209E0D5E91201EB
:1017600082428B41B4BF012300232362002B98D116
:10177000AB6A97E7002BAFDA01393C336160AAE727
:10178000002BB0DA013A3C33A260ABE7002BCFDA92
:10179000E2691833013AA360E261A269013A48BFE5
:1017A0000622A261E268013AE260002AC0D1236900
:1017B000013B05D42361236956F82330E360B7E782
:1017C0000B23236163695A1E03F26B7362619207F4
:1017D00005D1642193FBF1F201FB123262B94FF49F
:1017E000C87293FBF2F102FB1133B3FA83F35B0986
:1017F00003F5B673E361DEE70123F9E748D80C0887
:1018000064C000040FB40A4B13B51C6824B1A3696B
:1018100013B9204600F05EFC05AB049AA16820468F
:10182000019301F0BBF802B0BDE8104004B070476E
:10183000B03F000430B5054689B008460C4602F0BA
:1018400096F9254B06930123CDE9044007931844EC
:1018500004AB03900193022302930DB9AB68FFDE42
:10186000AB6943BB284600F035FCAB69AC6823B3D9
:101870001A4B9C4225D16C68636ED80705D4A389A6
:10188000990502D4A06D20F0F7FB284601AA214655
:1018900000F0B0FC636E00280CBF0A254FF0FF3546
:1018A000DA0705D4A3899B0502D4A06D20F0D0FBF4
:1018B000284609B030BDAC68DAE7284600F00AFCDB
:1018C000D6E7074B9C4201D1AC68D5E7054B9C425B
:1018D00008BFEC68D0E700BF710D0D08E8D80C0810
:1018E000C8D80C08A8D80C08024B01461868FFF7A6
:1018F000A1BF00BFB03F00040CB4184B30B50C1EA4
:101900009DB01D6808DA8B234FF0FF302B601DB0AF
:10191000BDE8304002B070474FF402730290069069
:1019200002A9ADF8143014BF04F1FF332346209A06
:101930002846049307934FF6FF73ADF8163021AB9A
:10194000019300F02FFF431CBCBF8B232B60002CA6
:10195000DDD0029B00221A70D9E700BFB03F00041F
:10196000242B2DE9F0478646904601D8012B06D15D
:1019700020F052FD162303600020BDE8F0870D46DD
:1019800035482A4615F8014B065D16F00806F8D1D1
:101990002D2C24D12C780126951C2BBB302C30D03B
:1019A0000A2306F1004C00220CF1FF3C1046BCFB60
:1019B000F3F903FB19CAA4F13007092F28D83C46D4
:1019C000A34234DD571C07D081452DD301D1A24558
:1019D0002ADB00FB0340012215F8014BEBE72B2C1F
:1019E00004BF2C78951CD8E7102BDAD1302CD8D135
:1019F0002A7802F0DF02582AD3D16C7810230235FE
:101A0000CFE72B7803F0DF03582BF6D00823C8E785
:101A1000A4F14107192F01D8373CD1E7A4F16107A0
:101A2000192F04D8573CCBE74FF0FF32D4E7531CB3
:101A300008D122236046CEF80030B8F1000F9CD0C8
:101A4000691E06E006B14042B8F1000F95D0002AA9
:101A5000F6D1C8F8001090E7E5100D0813460A46C5
:101A6000014602480068FFF77BBF00BFB03F00049B
:101A70002DE9F04386460D46354E284615F8014BB4
:101A8000375D17F00807F8D12D2C26D12C780127C7
:101A9000851C3BBB302C32D00A234FF0FF38002688
:101AA000B8FBF3F803FB08F930466FEA0909A4F123
:101AB000300CBCF1090F29D86446A34237DDB6F1DA
:101AC000FF3F07D080452FD301D1A1452CDB00FB80
