:020000040801F1
:10C000003DB8F396000000000002000064990B00A8
:10C01000000000000100000000000000000000001F
:10C020000000000000000000000000000000000010
:10C030000000000000000000000000000000000000
:10C0400000000000000000000000000000000000F0
:10C0500000000000000000000000000000000000E0
:10C0600000000000000000000000000000000000D0
:10C0700000000000000000000000000000000000C0
:10C0800000000000000000000000000000000000B0
:10C0900000000000000000000000000000000000A0
:10C0A0000000000000000000000000000000000090
:10C0B0000000000000000000000000000000000080
:10C0C0000000000000000000000000000000000070
:10C0D0000000000000000000000000000000000060
:10C0E0000000000000000000000000000000000050
:10C0F0000000000000000000000000000000000040
:10C10000000000000000000000000000000000002F
:10C11000000000000000000000000000000000001F
:10C12000000000000000000000000000000000000F
:10C1300000000000000000000000000000000000FF
:10C1400000000000000000000000000000000000EF
:10C1500000000000000000000000000000000000DF
:10C1600000000000000000000000000000000000CF
:10C1700000000000000000000000000000000000BF
:10C1800000000000000000000000000000000000AF
:10C19000000000000000000000000000000000009F
:10C1A000000000000000000000000000000000008F
:10C1B000000000000000000000000000000000007F
:10C1C000000000000000000000000000000000006F
:10C1D000000000000000000000000000000000005F
:10C1E000000000000000000000000000000000004F
:10C1F000000000000000000000000000000000003F
:10C20000D84A040409C2010872B6002080F30A88E3
:10C2100080F30B882348016821F001010160DFF8F9
:10C2200088D022484FF488710160214941604FF461
:10C230001811C0F884101F49C1601F484FF0400119
:10C24000016031F0C1FC00201C49174A41F8040B81
:10C250009142FBD31A491B4A1B4B00F05DF81B4966
:10C260001B4A1C4B00F058F81B491C4A1C4B00F0A1
:10C2700053F81C491C4A1D4B00F04EF81C4A1D4B3C
:10C2800000F052F81C4A1D4B00F04EF81C491D4AA4
:10C290001D4B00F041F81D4A1D4B00F045F81D48AC
:10C2A0000047704794ED00E0D84A040400000942BA
:10C2B000120000029A78561430000942D842040451
:10C2C0009C110208008001040093030436C3010896
:10C2D0000000000400340004C83D0D08009303046E
:10C2E0005099030418440D0850990304E8A103046D
:10C2F000E8A10304F41E0404F81E04041C920404C0
:10C30000B04C0D0800000604B00E0604B00E060482
:10C31000F03D0604C1D704089A423EBF51F8040B11
:10C3200042F8040BF8E770479A423EBF002042F8FB
:10C33000040BF9E77047D84A040409C20108C50193
:10C340000004E9010004F7010004050200041302DF
:10C3500000042102000400000000000000000000B2
:10C3600000003D0200042F020004000000008502CE
:10C37000000493020004691A0004691A0004691A8F
:10C380000004691A0004691A0004691A0004691A91
:10C390000004691A0004691A0004691A0004691A81
:10C3A0000004691A0004691A0004691A0004691A71
:10C3B0000004691A0004691A0004691A0004691A61
:10C3C0000004691A0004691A0004691A0004691A51
:10C3D0000004691A0004691A0004691A0004691A41
:10C3E0000004691A0004691A0004691A0004691A31
:10C3F0000004691A0004691A0004691A0004691A21
:10C400000004691A0004691A0004691A0004691A10
:10C410000004691A0004691A0004691A0004691A00
:10C420000004691A0004691A0004691A0004691AF0
:10C430000004691A0004691A0004691A0004691AE0
:10C440000004691A0004691A0004000000000000DA
:10C45000000000000000EFF3108272B64948006847
:10C4600000F14C00EFF3888140F8041BEFF3898161
:10C4700001601CF0400F09D1EFF390821CF0040F13
:10C480000CBFEFF38881EFF3898111E03E4800682B
:10C4900000F14C00EFF3088140F8041BEFF3098131
:10C4A00001601CF0040F0CBFEFF30881EFF309816A
:10C4B000002383F30A88344B1B68002B18BF9D466A
:10C4C0001CF0400F0CBF2E482F4800681CF0200FB6
:10C4D00003D000F11000A0E8F00F0C46604600B554
:10C4E0001FF0C5FD1FF087FE5DF804EB2046704786
:10C4F00000000000000034EF00E0F446244B9847B1
:10C50000002805D1FFF7A7FF4FF00001214B984706
:10C510004DF804CD204B98475DF804CB6047F446B6
:10C52000FFF799FF4FF001011A4B9847F446FFF7C8
:10C5300092FF4FF00201164B9847F446FFF78BFF2E
:10C540004FF00301134B9847F446FFF784FF4FF079
:10C5500004010F4B9847F446FFF77DFF4FF00501AC
:10C560000C4B9847F446FFF776FF4FF00601084B57
:10C570009847F446FFF76FFF4FF00801054B9847C7
:10C580000000680300046C030004700300047B8B4C
:10C590000B08B9AE07087F8B0B08064B82B09A6D6B
:10C5A00001929A6D0192019A9206FAD5C0B2D864AE
:10C5B000002002B070470000244200B500F04BFE9E
:10C5C0005DF804EB00F00DB8642108B55420FFF7C6
:10C5D000E4FF0139FAD1FEE708BD00201EF0A7BB39
:10C5E000000001B503F077F8BDE8014029498A68E9
:10C5F00082F8DDE04FF030001044EFF3098C80E862
:10C60000F01F1EF0100F03D102F19C0080EC108A85
:10C61000102080F31288BFF36F8F1E4F4FF000661B
:10C62000CA698A603E604FF09004141920681A4C61
:10C63000206092F9DDE0D2F894000023C2F8943033
:10C6400080F311881EF0100F03D00023E1EE103AA2
:10C6500003E002F19C0090EC108AEFF3148323F0C6
:10C66000040383F31488BFF36F8F02F1300090E866
:10C67000F01F8CF3098802F1000004B503F037F8CD
:10C68000BDE8044001B503F01EF8BDE80140704765
:10C69000000028C0000404ED00E03C700004E466E3
:10C6A0000404D06704041C7104040000000001B4F9
:10C6B000032A51D910F0030C14D011F8013B00F8F3
:10C6C000013BBCF1020F9CBF11F8013B00F8013B9C
:10C6D000BCF1010F04BF11F8013B00F8013B6244BB
:10C6E000A2F1040211F003034DD0032A34D9A2F1C0
:10C6F0000402A1EB0301D1F800C0022B0FD01DD81A
:10C700004FEA1C2351F804CF043A43EA0C6340F883
:10C71000043BF5D202F1040201F101011CE04FEAF1
:10C720001C4351F804CF043A43EA0C4340F8043B5D
:10C73000F5D202F1040201F102010DE04FEA1C639F
:10C7400051F804CF043A43EA0C2340F8043BF5D2F5
:10C7500002F1040201F10301002A04BF01BC704789
:10C7600011F8013B00F8013B022A24BF11F8013BFC
:10C7700000F8013B032A04BF11F8013B00F8013B1C
:10C7800001BC704701B4202A28BF2DE9F04138BF11
:10C790002DE91040203A1ED322BFB1E8F851A0E89D
:10C7A000F851B2F12002F7D25FEA027C24BFB1E86F
:10C7B0001850A0E8185044BF18C918C0BDE8F0418F
:10C7C0005FEA827C24BF51F8043B40F8043B04BF7D
:10C7D00001BC704715E05FEA027C24BFB1E8185045
:10C7E000A0E8185044BF18C918C0BDE810405FEA5F
:10C7F000827C24BF51F8043B40F8043B04BF01BCD9
:10C800007047D20724BF31F8023B20F8023B44BFF7
:10C8100011F8012B00F8012B01BC704700BF01F09B
:10C82000FF0311462DE9014043EA032242EA024296
:10C8300000F00CF8BDE80140704702F0FF0343EA46
:10C84000032242EA024201E04FF0000204290FD322
:10C8500010F0030C19D0CCF1040CBCF1020F18BF7E
:10C8600000F8012BA1EB0C01A8BF20F8022B0CE073
:10C870005FEAC17C24BF00F8012B00F8012B48BF00
:10C8800000F8012B70474FF000024DF804ED1346FD
:10C890009446964620390AD32DE9F00014461546F1
:10C8A00016461746A0E8FC502039FBD2F0BC090719
:10C8B00028BFA0E80C5048BF0CC05DF804EB89000D
:10C8C00028BF40F8042B08BF704748BF20F8022B50
:10C8D00011F0804F18BF00F8012B704700BF104BBC
:10C8E0005A6822F01E025A605A6842F013025A60D7
:10C8F0001A6822F001021A60BFF34F8FBFF36F8FE7
:10C9000000220849D300A3F1FF53A3F5FE231868C2
:10C91000013208605B68042A4B6001F10801F1D123
:10C920007047000018E0A8CE00041B4B5A6B12F0B1
:10C93000010210D11A4B19681A4B1960DA625A6851
:10C9400022F01E025A605A6842F003025A60BFF396
:10C950004F8FBFF36F8F00221349D3000868A3F1F4
:10C96000FF53A3F5FE23186048680132042A58607B
:10C9700001F10801F1D10C4A0D4B1068094918600A
:10C980005068186490685860D2685A64094B1B68F4
:10C99000CB62024B1B680B60704700000242DCCE8A
:10C9A0000004000018E0A8CE0004C8CE0004000077
:10C9B00019E0D8CE0004074B30B1D3F8802B42F4F5
:10C9C0000032C3F8802B7047D3F8702B42F400324A
:10C9D000C3F8702B704700000442F7B51A4CB4F945
:10C9E000000000282DDA6A4600204FF4801102F082
:10C9F00078FC154BBDF8002015481A70BDF80220D0
:10CA00005A70BDF804209A70BDF80620DA70002232
:10CA100003466D46002113F8116F0CE035F8027BD8
:10CA200013F801CFBC4505D00132032A00F10A00FA
:10CA3000EED104E001318E42F0DCF5D12280B4F970
:10CA4000000003B0F0BD04400004C0C5000470C085
:10CA50000C0813B51C2001F082F9244B19681A68E0
:10CA6000520407D51A6842F400421A601A6822F488
:10CA700000421A6011F4E00F20D001A802F080FDFE
:10CA80000A231A490A68013B42F460220A60F9D17C
:10CA90000A24164A1368013C23F460231360F9D179
:10CAA000019802F07BFD124B1A783AB90120114926
:10CAB0001870114B0C601C601EF043F80C4B1C20CE
:10CAC0001A6842F480721A601A6822F480721A603E
:10CAD00001F033F9074B1B7833B1084B1B781BB1BE
:10CAE000694601201EF02DF802B010BD00BF000005
:10CAF0000840EE45000464CF000460CF0004E8C5A0
:10CB00000004F8B5012401F0070500EB0516F26AF0
:10CB1000AC40204DB2F1FF3F0B462F682ED08A4229
:10CB200025D0726BB2F1FF3F19D08A420ED0DFF8E8
:10CB30006CC03C42DCF8002002F10102CCF800207D
:10CB400023D0736302F023FCB06304E0134AB06B9C
:10CB500013680133136027EA04042C60F8BDDFF882
:10CB60003CC0DCF800200132CCF80020E9E70A4A9A
:10CB7000306B1368013313603C43EEE7DFF820C0ED
:10CB8000DCF800200132CCF80020F36202F0FFFB59
:10CB90003063F1E700BF289D0004249D00042C9D14
:10CBA00000040E4A536C43F040735364536C03F01B
:10CBB000C053B3F1C05FF9D1136820B95268D207EE
:10CBC00048BF43F01003054A43F00803516C880442
:10CBD000FCD59168C905FCD51360704700BF000003
:10CBE00008400E4B1A6822F0805222F014021A609C
:10CBF0001A689107FCD41A6822F008021A60074BE1
:10CC00001A681207FCD4064A12783AB95A6C22F014
:10CC100040725A645A6C12F0C05FFBD1704700003A
:10CC20000840E8C50004084A0128136808BF43F01B
:10CC3000805343F00C03136013689B07FCD5024B31
:10CC4000186810F00100FBD170470000084073B570
:10CC50000023044601A80D46019302F091FC2046F2
:10CC6000FFF79FFF0122074B084E204635601A61EF
:10CC70005A6102F0DFFB0198346802F08FFCC4F3C4
:10CC8000072002B070BD0000084000080840F8B559
:10CC9000002306460C461F465A1C84B913F0FF05B4
:10CCA00013D03046FFF77DFF094B30461F60A3F5D8
:10CCB00000631D615C61BDE8F84002F0BBBBE3B2FC
:10CCC00043EA0727240A1346E6E7F8BD00BF000839
:10CCD000084010B50446104602F0A8FB032B04BF21
:10CCE00020F0FF0211430A4A1CBF41EA0021000E56
:10CCF000116001335060A2F50062136100232046E9
:10CD00005361FFF74EFF2046BDE8104002F092BB92
:10CD100000BF0008084073B50446084602F086FBD1
:10CD20000146E0B240EA0120090E8DF8041001210D
:10CD300001AD1C6801348C4208D91468013114F823
:10CD4000016B042905F8016F1460F2D11A68032AF7
:10CD500038BF0322033A1A60019A014B5A6002B0AD
:10CD600070BD000808401A4B73B58D070344084690
:10CD70000AD10A44501A002801DC02B070BD51F8F3
:10CD8000040B43F8040BF5E7CC071DD5002AF4DDAE
:10CD900001A80D1D8C1811F8016BA94200F8016B58
:10CDA00001D0A142F7D10198043A43F8040BEDE712
:10CDB00030F8041C043AADF8041030F8021CADF849
:10CDC0000610019943F8041B002A00F10400EFDC6F
:10CDD000D3E7000808402DE9F7431C460023164618
:10CDE000174A054690469C46BDF828709C420FD8CD
:10CDF000144B28461C615F61FFF7D3FE284602F002
:10CE000019FB002344449F4214D803B0BDE8F083CB
:10CE1000CDF804C001A803F1040E734506D011F843
:10CE2000039001339C4200F8019BF6D8019842F828
:10CE3000040BDBE7E25CF2540133E4E700BF0008D7
:10CE4000084000000840084B094A196811605968F9
:10CE5000084A11609968074A1160D968074A116049
:10CE60009A6A064B1A60704700BF0000084078CFEE
:10CE7000000474CF000470CF00046CCF000468CFAE
:10CE8000000408B5FFF7DFFF194B93F83A30012B88
:10CE900024D1174BD3F8002222F40032C3F8002229
:10CEA000D3F8042222F40032C3F80422D3F8082273
:10CEB00022F40032C3F80822D3F80C2222F4003204
:10CEC000C3F80C22D3F8102222F40032C3F8102247
:10CED000D3F8142222F40032C3F814220020B9211E
:10CEE000FFF7D5FEBDE808401E2000F016BF008009
:10CEF000104200000142084B1A68084B1A60084AA9
:10CF000012685A60084A12689A60074A1268DA6022
:10CF1000074A12689A62704700BF78CF0004000089
:10CF2000084074CF000470CF00046CCF000468CFB9
:10CF300000047FB5464B93F83A30012BDEB27FD127
:10CF4000444B6621D3F80022002042F40032C3F89B
:10CF50000022D3F8042242F40032C3F80422D3F8AA
:10CF6000082242F40032C3F80822D3F80C2242F41B
:10CF70000032C3F80C22D3F8102242F40032C3F876
:10CF80001022D3F8142242F40032C3F81422FFF71F
:10CF90007EFE99210020FFF77AFE41F2883000F0F2
:10CFA000BCFEAB210020FFF772FE35210020FFF709
:10CFB000A2FFFFF74CFE10F0020504461DD1254BE1
:10CFC0001A78C82A1FD15B78602B16D10521284614
:10CFD0008DF80C60FFF73BFE44F002048DF80D0065
:10CFE000502128468DF80E40FFF751FE03232A46B4
:10CFF0000095104603A9FFF7EEFE1E2004B0BDE821
:10D00000704000F08ABEEF2A15D15B78602BF4D116
:10D010003123352100208DF80C30FFF718FE40F049
:10D0200002008DF80D0050210020FFF730FE002295
:10D0300002230092DDE7202ADFD15B78502BE6E760
:10D04000AB210020FFF723FEFFF755FFD5E7008057
:10D05000104200000142C0C500040122014B1A70B9
:10D060007047E8C500040022064B1A70064B5A6C44
:10D0700022F040725A645A6C12F0C05FFBD17047C4
:10D0800000BFE8C50004000008400122064B1A70EA
:10D09000064B5A6C22F040725A645A6C12F0C05F10
:10D0A000FBD1704700BFE7C5000400000840002224
:10D0B000014B1A707047E7C50004F7B5044690F8B5
:10D0C000C430022B0ABF214B94F8C000186802F04C
:10D0D000ABF9D4F8B030B4F8C6009978FFF7D7FDB3
:10D0E0001C4B1B68032B28D11B4A1B4D13681B4E7E
:10D0F00001332946012013601DF023FD33682968A0
:10D10000012B174C184F01AA0DD1174B186835F099
:10D11000C4FE2368019A13442360002333602B6804
:10D120003B6003B0F0BD386835F0B7FE2368019A64
:10D130001344236000233360F3E70C4B1B68032B7D
:10D1400001BF0B4A136801331360EAE700BF1838C8
:10D150000004609D00045C9D00044C9D0004509DF3
:10D160000004589D00041C380004549D0004489D90
:10D170000004449D000410B5D0F8B0300A4CD978B2
:10D18000B0F8C600FFF783FD214601201DF0D9FC51
:10D190002268054B1E201A6000F0BFFDBDE810405C
:10D1A000FFF785BF00BF103800041C38000473B5BA
:10D1B0000023044601A80D46019302F0E1F9B4F8FA
:10D1C000C600FFF7EEFC0122084B084E35601A61DD
:10D1D0005A61B4F8C60002F02DF90198346802F0E3
:10D1E000DDF9C4F3072002B070BD0000084000085C
:10D1F000084010B5D0F8B0300446597C09B9002079
:10D2000010BDFFF7D4FFD4F8AC3082B2DB791842FE
:10D21000F5D0024B4FF0FF301A60F1E700BF309DB0
:10D22000000470B50446B0F8C6000D46FFF7B9FC1F
:10D230000122064B074E35601A615A61B4F8C600E8
:10D2400002F0F8F83068C0F3072070BD00BF00009E
:10D25000084000080840002313B5294C01932378A7
:10D26000CBB101A802F0A2F9274B1B7883BB23782E
:10D270001BB9019802F0A8F90DE0234B9C682368C4
:10D280006269DB439A4208D0FFF7E5FFDB221F49C2
:10D29000204802F028FA02B010BDD4F8B030204681
:10D2A000197CFFF7BEFFD4F8AC301B78184019D0BA
:10D2B0002046FFF702FFD4F8B0302046197CFFF774
:10D2C000B0FFD4F8AC301B780342F4D1FFF7DDFE99
:10D2D000114B5A6C22F040725A645A6C12F0C05FC3
:10D2E000FBD1C6E7FFF7BFFE0C4B1A68022A88BFC6
:10D2F00018600A4B1A68022A84BF00221A60E7E706
:10D3000000BFE8C50004E7C50004349C0004403EAB
:10D310000106893E010600000840489D0004609D0A
:10D3200000042DE9F74F174602680446D2434069CE
:10D3300090420BD0FFF78FFF40F2FF72254925483E
:10D3400002F0D1F9002003B0BDE8F08F002BF9D036
:10D35000B4F8BC208A4238D35818824235D34FF0F3
:10D36000040BB4F8BE50DFF870900D44DFF870A0E5
:10D370005E192B0103F47043E8B2184302F056F82B
:10D38000D4F8B03020F0FF005B7D013503430193FA
:10D3900002F0A4F8019B8046C9F800300223CAF8C5
:10D3A00010B0CAF81430B4F8C600FFF7FAFBB4F8AE
:10D3B000C60002F03FF899F80530404607F8013BF7
:10D3C00002F096F8AE42D4D1BCE76FF07B00BAE72A
:10D3D00000BFE83B0106313C0106000808400000A0
:10D3E0000840F0B50023064685B068460D4617464E
:10D3F000CDE90133039302F0D9F8D6F8B0303046C6
:10D40000197CFFF70EFF584B1B78002B60D0574B51
:10D410001B785BB9FFF71FFF40F2C24255495548E0
:10D4200002F061F90F24204605B0F0BD534B1B7884
:10D4300013BB012001A91DF084FB96F8C430022B18
:10D4400007D14E4B1A68019B9B1A4D4A12689342B2
:10D450000DD34C4A536C43F040735364536C03F048
:10D46000C053B3F1C05FF9D13046FFF784FE009896
:10D4700002F0AAF8002465E0434B5A6C22F0407297
:10D480005A645C6C14F0C054FBD10125009802F082
:10D490009BF8012D56D1284601A91DF052FB039B94
:10D4A0003B2B57D9684602F06BF80023334A0098AB
:10D4B0001370354A1360354A136002F06FF801208B
:10D4C00002A91DF03EFB324A13680133136039E0B4
:10D4D000D6F8AC3081B21B781840C8D1FFF7C3FD35
:10D4E0002D4B1A68022A88BF18602B4B1A68022A33
:10D4F00084BF00221A602B78BB42DAB20AD1214BDA
:10D500005A6C22F040725A645D6C15F0C055FBD124
:10D510000124BBE7224B28461D60214B1F70214B85
:10D520001A70214B19601CF0E8FA30B125F01F0089
:10D530001CF065FA2B78BB42E1D0009802F044F869
:10D540004FF0FF343046FFF754FE002818BF4FF06D
:10D55000FF3468E702A901201DF0F3FADDE90101BB
:10D5600003AA35F09AFC9AE700BFE7C50004E8C5B6
:10D5700000045F3D0106A83D0106EE4500041C388D
:10D580000004143800040000084064CF000460CF99
:10D5900000043C9D0004489D0004609D0004349DEF
:10D5A0000004EAC50004E9C50004309D00047FB50D
:10D5B00003680024DB43426905469A42CDE90044F2
:10D5C000CDE902440AD0FFF746FE5A4840F23F52E6
:10D5D0005A4902F088F8204604B070BD684601F050
:10D5E000E5FFD5F8B0302846197CFFF71AFE04464F
:10D5F000D5F8B0302846D97BFFF713FED5F8AC201C
:10D600001378234238D19378D2781343034205D15B
:10D61000002B6AD14A4B1B78002B66D0494B1B78F4
:10D620004BB9FFF718FE474840F24F52474902F006
:10D630005AF80F20D0E7454B1B781BBB012001A9EE
:10D640001DF07FFA95F8C430022B07D1414B1A68C0
:10D65000019B9B1A404A126893420DD33F4A536C78
:10D6600043F040735364536C03F0C053B3F1C05F95
:10D67000F9D12846FFF77FFD009801F0A5FF6FF074
:10D680007800A9E7354B5A6C22F040725A645A6C04
:10D6900012F0C05FFBD101246FF07806009801F012
:10D6A00093FF012C1BD1204601A91DF04AFA039BD0
:10D6B0003B2B35D9684601F063FF0023244A0098CC
:10D6C0001370264A1360264A136001F067FF012099
:10D6D00002A91DF036FA234A136801331360002EA5
:10D6E000CDD12846FFF785FD76E7FFF7BCFC1E4B42
:10D6F0001A68022A84BF00221A601C4B1A68022A88
:10D7000084BF00221A60FFF7D2FC134B5A6C22F040
:10D7100040725A645C6C14F0C054FBD12646BDE7DD
:10D7200002A901201DF00DFADDE9010103AA35F07F
:10D73000B4FBBCE700BF5D3D0106143D0106E7C533
:10D740000004E8C50004123D0106C93C0106EE458F
:10D7500000041C380004143800040000084064CFA2
:10D76000000460CF0004409D0004489D0004609DBB
:10D77000000470B504460E46B0F8C6001546FFF723
:10D7800010FA0022064B1E60A3F500631D615A616A
:10D79000B4F8C600BDE8704001F04CBE00BF000800
:10D7A00008402DE9F04F1F46002387B0CDE9033232
:10D7B00003684269DB439A4204460D4600F0B68096
:10D7C000FFF749FD40F257325E495E4801F08BFF9A
:10D7D000002299E05D4B4FF001091E68DDF810B0A2
:10D7E0007600731E2B40F61ABE4228BF3E460596B1
:10D7F00000212046C8F80090FFF7D9FE7930F7D015
:10D8000003A801F0D3FE514B1B781BB1039801F024
:10D81000DBFEEDE70223C8F80030049B1A0106D5B1
:10D82000059A4B491A44934272D1DFF824B101237F
:10D83000204684F8C43001F06CFE94F8C530D4F86A
:10D84000B000042B69D1294604AA007805ABFFF784
:10D8500062FADDE9041281460820FFF784FACAF86B
:10D8600000904FF0000994F8C5303A4A0133334430
:10D870001361C2F81490FFF7F0FBB4F8C600FFF78D
:10D8800090F9B4F8C60001F0D5FD0323C8F80030C4
:10D89000324B3249C3F80090324B0120C3F800905C
:10D8A000731E0BEB03091BF803B01DF04AF9039834
:10D8B00001F08AFE04233544691EC8F8003099F847
:10D8C000002020460191FFF78CFD0090DF2000F042
:10D8D00024FADDE9002105200423C8F80000002A0D
:10D8E000EBD0DDE904310B44049300231C49012AE9
:10D8F000A7EB06070B601DD099F8001084F8C43020
:10D90000594518BF6FF00102104607B0BDE8F08F0F
:10D9100013F8010B01F8010B85E72946007801F0A7
:10D9200092FDDDE904128146042096E7DFF8388095
:10D93000DFF838A0002F7FF44DAF84F8C47047E7BC
:10D9400000BFF53D01063E3E0106009D0004E7C50F
:10D950000004EBC5000400000840449D0004389D0D
:10D9600000045C9D0004489D0004000808402DE967
:10D97000F04F02680025D243436985B093420446C4
:10D9800002950CD0FFF767FC40F2D5326A496A482D
:10D9900001F0A9FE2B46184605B0BDE8F08F012521
:10D9A000DFF8B8914FEA117A21F0704631462046EF
:10D9B000C9F80050FFF7FBFD10F1790FF6D0019088
:10D9C000A06901F098FE3146204601F0E0FCA0611C
:10D9D000804601F090FE0546B4F8BA10820A11EABA
:10D9E0009520019B22D001270AF1FF32012A3DD95F
:10D9F000BAF1040F40D0B5F5004F1BD0B5F5803F0C
:10DA00003AD0B5F5805F40F09280D4F8B02091799B
:10DA100013E011F0010F1CBF17460CFA00F549087E
:10DA20005208013012F0010FF3D0DDE701270A2080
:10DA3000BC46F7E7D4F8B020D1794FF0000A517115
:10DA4000002F6FD04FF0020B31462046C9F800B0CE
:10DA5000FFF7ADFD7930F7D002A801F0A7FD374BF5
:10DA60001B786BB1029801F0AFFDEDE7BAF1020F40
:10DA7000D4F8B020CBD1DFE7D4F8B020117ADCE7BE
:10DA8000204684F8C4B0019301F043FD414620468E
:10DA900001F030FD0120019B2A4ADFF8C0B013607D
:10DAA000294A59461360284A1360284A1060284AB8
:10DAB00013601DF046F80323C9F80030DBF800308E
:10DAC000DFF894B002980193CBF8003001F07CFDB0
:10DAD00003A901201DF035F8019B039A41F288301B
:10DAE000D11A44F6206300FB0A3399420FD2134B3C
:10DAF0001B78002BECD031462046FFF758FD10F183
:10DB0000790F034608D1DF2000F007F9E0E70AF1BA
:10DB1000010ACBF80020EEE70422013FC9F80020FB
:10DB2000A8448DE70C4A84F8C470176033E74FF0BF
:10DB3000FF3330E700BFAA3D0106F33D0106E7C50C
:10DB400000045C9D0004449D0004589D0004509D09
:10DB50000004409D0004389D0004609D0004549D15
:10DB6000000470B503684269DB439A42044609D059
:10DB7000FFF771FB40F275721949194801F0B3FDC6
:10DB8000002070BD01F0AAFC0646204601F0C1FC51
:10DB9000D4F8B0302046D97AFFF743FBD4F8B03040
:10DBA0000546D97B2046FFF73CFBD4F8B03029026C
:10DBB0001B7B41EA03410143FFF74FFA41F03C016F
:10DBC000B4F8C600FFF763F8304601F091FC00217D
:10DBD0002046FFF7ECFC7930F9D0D1E700BF7E3C5E
:10DBE0000106C73C01062DE9F74F1F460368904622
:10DBF000DB43426904469A420E460BD0FFF72BFBEB
:10DC000040F2B1723449344801F06DFD002003B098
:10DC1000BDE8F08FD0F8B030597BFFF7C8FA012388
:10DC2000320A0332934003424ED1002FEED0B4F8B3
:10DC3000BC30B3424BD3F219934248D34FF0050B9B
:10DC4000B4F8BE50DFF898903544DFF894A008F19E
:10DC5000FF362F442B0103F47043E8B2184301F060
:10DC6000E5FBD4F8B03020F0FF001B7D03430193A7
:10DC700001F034FC8046204601F04BFC019BC9F8C2
:10DC8000003016F8013FC9F804300023CAF810B07C
:10DC9000CAF81430B4F8C600FEF783FFB4F8C60023
:10DCA00001F0C8FBD4F8B0302046197CFFF7B9FA70
:10DCB000D4F8AC301B780342F4D14046013501F072
:10DCC00017FCAF42C6D1A1E76FF07E009FE76FF06F
:10DCD0007B009CE700BF333C01067C3C010600084A
:10DCE0000840000008401FB50B4B0A465968D0F8A1
:10DCF000B030C9074CBF9B7A5B7A0DF10F018DF8EC
:10DD00000F3003230093B0F8C600012301F007FC95
:10DD100005B05DF804FB0000084038B50446054D29
:10DD20000D222846002101F015FC2846214601F06D
:10DD30001BFC002038BD00021542C3B2342B09D8A9
:10DD400001234109054A00F01F00834042F82130B9
:10DD5000002070476FF00200704700E100E0C3B29E
:10DD6000342B0ED801220849430900F01F008240DD
:10DD7000203341F82320BFF34F8FBFF36F8F002074
:10DD800070476FF00200704700BF00E100E0024BF7
:10DD90005868C0F308001038704700ED00E038B54F
:10DDA000FFF7F5FF044645B200212846E4B21BF018
:10DDB000E6FC342C1AD8104B53F82530CBB128464A
:10DDC0009847EFF3118353B12A4601210C481EF006
:10DDD00028F840F2A9120A490B4801F084FC1BF014
:10DDE000CCFA28461BF01FFD002038BD6FF0020062
:10DDF000FBE76FF00300F8E700BFF89E0004D408CB
:10DE000005061441010654410106F0B51F461646A9
:10DE1000154B05049D609C8901FA02F2A4B224EA24
:10DE2000020401EA0702B2401443A2B2154345F0CE
:10DE300080759D609C8985B0A3B29A4211D020283C
:10DE400007D9A0F12704072C03D9A0F13004092C2D
:10DE500007D8CDE90001CDE90267062103481DF08E
:10DE6000E0FF05B0F0BD00801042F422050637B592
:10DE7000204B0D46187C01A901F029FC044618200E
:10DE80001AF0B5F801F043FC70B9102001F0CBFB9B
:10DE900050B90C2001F0C7FB30B901F00CFC30B1D7
:10DEA0001549154801F02FFC002003B030BD6B1C54
:10DEB00007D101F0B6FB98B10022104B01981A70FF
:10DEC000F3E74FF47A735D4341F288339D42EBD917
:10DED00001F0A7FB0028EFD144F620639D42EBD967
:10DEE0000122064B01981A700C235C430C3C204421
:10DEF000DBE728C000049CA70004A0A70004FCC620
:10DF0000000480B584B000AF0346FB712E4B1B6943
:10DF10002D4A43F0040313612C4B5B6B2B4A43F0F7
:10DF2000010353632A4B83221A60294B01221A6092
:10DF3000294B1B78002B01D000F0A5FC01F0EBFB76
:10DF4000234B84221A6000F0B2F901F0A4FB1120E7
:10DF500001F090FBEFF30983204A1360EFF308838D
:10DF60001F4A1360EFF389831E4A1360EFF388831F
:10DF70001D4A1360EFF30B831C4A1360EFF30A830F
:10DF80001B4A1360EFF38B831A4A1360EFF38A8303
:10DF9000194A1360194B1B68194A13602DE9FF5F7A
:10DFA0006B46174A1360144A164B1B681360154BD7
:10DFB0001B68002B2BD1144B01221A74044B8922AD
:10DFC0001A6049E000BF00ED00E000000242840159
:10DFD000124208002E42E7420004D8E40004DCE4C8
:10DFE000000478E300047CE30004CCE40004D0E403
:10DFF00000046CE3000470E3000400002E42E0E43F
:10E000000004E4E400045801134258380004874B2C
:10E0100085221A60874B874A1A60FEF760FC834BA3
:10E0200086221A60834B1B681B467A4602F1100257
:10E0300042F001021A60BFF34F8F30BF00BF00BF34
:10E0400000BF00BF72B6BFF36F8FFEF76EFCBDE876
:10E05000FF5F764B87221A60784B1B68784A136003
:10E06000784B1B68764AD360774A714B1A60704BC5
:10E070001B681A461046006880F30888734A6C4B88
:10E080001A606B4B1B681A461046006880F30A88BA
:10E090006F4A674B1A60664B1B681A461046006849
:10E0A00080F388886B4A624B1A60614B1B681A4682
:10E0B0001046006880F38A884FF0040080F31488CB
:10E0C000BFF34F8F4FF0060080F31488BFF34F8FDC
:10E0D000614A574B1A60564B1B681A461046006837
:10E0E00080F309885D4A524B1A60514B1B681A46EF
:10E0F0001046006880F30B88594A4D4B1A604C4B10
:10E100001B681A461046006880F38988554A484BB8
:10E110001A60474B1B681A461046006880F38B88CC
:10E12000514A434B1A60424B1B681A46104650F83E
:10E13000001B81F314884C4A3E4B1A603D4B1B6810
:10E140001A46104650F8001B81F39488484B002271
:10E150001A60474A484B1B68136000F09CF9464B15
:10E160001B69454A23F004031361444B01221A60E2
:10E170002F4B88221A60112001F081FA2C4B892242
:10E180001A6001F08CFA294B8A221A601CF06DFE8D
:10E19000274B8B221A603A4B1B78002B01D000F0E2
:10E1A0009CFB224B8C221A60374B1B78DBB2002B76
:10E1B00030D0224BDB681A46012133481DF031FE76
:10E1C000334B1B68324A022132481DF02AFE314B84
:10E1D0001B68304A022130481DF023FE304B1B687B
:10E1E0002F4A02212F481DF01CFE144B1B681A46B3
:10E1F00001212C481DF015FE07F1080207F10C0360
:10E200001146184601F07FFAFA68BB6802212648D9
:10E210001DF007FE0B4B1B680A4A23F48073136042
:10E22000034B8D221A6000BF1037BD4680BD8401AC
:10E230001242E4E4000404002E425C011342583808
:10E240000004D8001342DCE40004D0E400047CE3C2
:10E25000000470E30004D8E40004CCE4000478E394
:10E2600000046CE30004C8E4000468E30004080050
:10E270002E4200002E42E0E4000400ED00E03C01EC
:10E280001342E74200043FE50004756205066C0096
:10E2900013429762050670001342D06205067400AF
:10E2A000134209630506416305067763050670B5E9
:10E2B0006A4B6A4A1A601A682DE9FF5F12461046D7
:10E2C000EFF3038140F8041BEFF3108140F8041BC7
:10E2D000EFF3138140F8041BEFF3118140F8041BA6
:10E2E000EFF314810160BDE8FF5F5D4A1A601B68AF
:10E2F0002DE9FF5F1A461046EFF3908140F8041BAA
:10E30000EFF3938140F8041BEFF3918140F8041B75
:10E31000EFF394810160BDE8FF5F0024524E524D3F
:10E3200033682B6073686B60B368AB60331993F824
:10E330000023A31CD2B205EB830360B201345A6000
:10E34000FFF70DFD352CF1D14949494A0B6813609F
:10E350004B6853608B6893600023C81890F80043A3
:10E36000981C0133E4B202EB8000352B4460F4D1F9
:10E370001CF073FD404A404B516B1960926B5A6020
:10E380004FF0E0239A683D4B1A603D4A916859600E
:10E39000116999605169D960117EC9B21974517EB1
:10E3A000C9B25974917EC9B29974D17FC9B2D97575
:10E3B00092F82010C9B2197692F82210C9B2997653
:10E3C00092F82310C9B2D976516AD961D2F888106F
:10E3D0001962D2F88C1059622B4988682B49086061
:10E3E0002B4884684C6004698C604469CC60047E6E
:10E3F000E4B20C74447EE4B24C74847EE4B28C7457
:10E40000C47FE4B2CC7590F82040E4B20C7690F86A
:10E410002240E4B28C7690F82340E4B2CC76446A91
:10E42000CC61D0F888000862D2F8F0109962D2F876
:10E43000FC20DA62174A116A1963916A5963116BF9
:10E440009963916BD963116C1964916C5964116D66
:10E450009964926DDA6470BD00BFE4E40004B8E42E
:10E4600000045CE3000400E100E0D8E3000400E104
:10E4700002E07CE2000400EF00E0D0E3000480E36F
:10E48000000400ED00E000E002E030E2000400EDF6
:10E4900002E0001000E04FF0E02210B56B4B19686D
:10E4A00091605968C2F8081D9968C2F8101DD968B2
:10E4B000C2F8141D197CC9B282F8181D597CC9B262
:10E4C00082F8191D997CC9B282F81A1DD97DC9B28A
:10E4D00082F81F1D197EC9B282F8201D997EC9B22B
:10E4E00082F8221DD97EC9B282F8231DD969C2F8EB
:10E4F000241D196AC2F8881D596AC2F88C1D186853
:10E500005349886053484468C1F8084D8468C1F88D
:10E51000104DC468C1F8144D047CE4B281F8184D64
:10E52000447CE4B281F8194D847CE4B281F81A4D40
:10E53000C47DE4B281F81F4D047EE4B281F8204D21
:10E54000847EE4B281F8224DC47EE4B281F8234D8A
:10E55000C469C1F8244D006AC1F8880D996AC2F8EF
:10E56000F01DD96AC2F8FC1D196BA2F55042116268
:10E57000596B9162996B1163D96B9163196C11643A
:10E58000596C9164996C1165DB6C9365324A324B1E
:10E590001168596352689A63314B314A1A601A689C
:10E5A0002DE9FF5F1246104650F8041B81F30088E6
:10E5B00050F8041B81F3108850F8041B81F3138872
:10E5C00050F8041B81F31188BDE8FF5F264A1A60EA
:10E5D0001B682DE9FF5F1A46104650F8041B81F3B3
:10E5E000908850F8041B81F3938850F8041B81F342
:10E5F0009188BDE8FF5F00231C491C4A981C01EB71
:10E6000080004068D4180133C0B2352B84F8000371
:10E61000F4D10B6813604B6853608B6815499360A5
:10E620000023144A981C01EB80004068D418013381
:10E63000C0B2352B84F80003F4D10B6813604B682B
:10E6400053608B68936010BD00BF80E3000400E05E
:10E6500002E030E20004D0E3000400EF00E0E4E474
:10E660000004B8E400045CE30004D8E3000400E123
:10E6700000E07CE2000400E102E0002370B5104CF1
:10E68000114D072B236006D900230C260F4D072BB5
:10E6900023600BD970BD0C225343EA18117A11B1D3
:10E6A000EB585068984723680133EAE77343EA1848
:10E6B000117A11B1EB585068984723680133E6E7A7
:10E6C00000BFB8A70004F4A900048CA8000413B587
:10E6D000204B04461B683BB901A800F051FF112CE8
:10E6E00004D9019800F05AFF02B010BD0121194B66
:10E6F000A1401A68194C22EA01021A602278002A05
:10E70000EFD01B68002BECD1154BD3F84C31DB0557
:10E7100005D540F28B321249134800F0E4FFFFF7B1
:10E72000ACFF114B1B788BB1FEF7ABFB0020FEF763
:10E7300042F90E4AD2F8803B43F48003C2F8803B92
:10E740000122064B5A6600232370CAE7FEF77BFBC3
:10E75000ECE7E8E4000494D0000440E50004000085
:10E760001342975F0106EE5F0106E84200040000D5
:10E770000442002370B5104C114D072B236006D9BD
:10E7800000230C260F4D072B23600BD970BD0C22E4
:10E790005343EA18117A11B1EB585068984723682F
:10E7A0000133EAE77343EA18117A11B1EB58506864
:10E7B000984723680133E6E700BFB4A700044CA9DB
:10E7C0000004CCA70004002313B50193264B044694
:10E7D0001B683BB901A800F0D3FE112C04D90198A5
:10E7E00000F0DCFE02B010BD01201F4BA0401A68F3
:10E7F0001F4C104318602378002BF0D11D4BD3F829
:10E800004C21D00502D45B68002B05DA4FF47372FB
:10E810001949194800F067FF194AD2F8803B43F4C0
:10E820008003C2F8803B0122124BC3F80421D3F8C5
:10E830004C21D105FBD50122C3F84421D3F84C214A
:10E84000D205FBD40120FEF7B6F80D4B1B7833B18F
:10E85000FEF76FFBFFF78DFF01232370BFE7FEF785
:10E860004AFBF7E700BFE8E4000494D0000440E569
:10E870000004000013423E5F0106955F01060000A0
:10E880000442E8420004002370B5104C114D052BE2
:10E89000236006D900230C260F4D072B23600BD9CC
:10E8A00070BD0C225343EA18117A11B1EB5850682D
:10E8B000984723680133EAE77343EA18117A11B1E4
:10E8C000EB585068984723680133E6E700BFB0A7CC
:10E8D000000454AA0004ECA80004002370B5104CF6
:10E8E000114D052B236006D900230C260F4D072B55
:10E8F00023600BD970BD0C225343EA18117A11B171
:10E90000EB585068984723680133EAE77343EA18E5
:10E91000117A11B1EB585068984723680133E6E744
:10E9200000BFACA70004ACA900042CA80004222955
:10E930007FB506460C4659D8012E394D03A836D16D
:10E9400000F01EFE2A19537BFF2B11D001335373A5
:10E95000A4F12003C4F1200226FA02F206FA03F31E
:10E960001343A640D5E9001231431A43C5E900120A
:10E97000039800F013FE2B195B7BFF2B36D101238C
:10E980000221284A294800941DF063FA152C2DD93C
:10E990000B23163C03FB0454254B00210093012359
:10E9A0001A463034019408461DF00BFB1EE000F0BF
:10E9B000E7FD2B195E7BDEB1013EF6B25E7396B9C0
:10E9C0000122A4F12003C4F1200122FA01F102FA8C
:10E9D00003F30B43A240D5E9000120EA020021EA3B
:10E9E0000301C5E90001039800F0D8FD04B070BD33
:10E9F000039800F0D3FD012302210D4A0B48009437
:10EA00001DF027FA152CF1D90B23163C03FB0455F6
:10EA1000094B30350093012331461A460195C2E770
:10EA200000BF185B00041C5B010638350D08F94572
:10EA30000C08CA5A010612460C0870B5204CD4F8CE
:10EA4000905115F0100505D0BDE8704001211C481B
:10EA50001DF0E7B916231E26C4F850310120FFF738
:10EA60005CF90120C4F85061FFF757F90E23C4F890
:10EA7000D8510120C4F85031FFF74FF90120C4F8F4
:10EA80005061FFF74AF91C230120C4F85031FFF709
:10EA900044F91D230120C4F85031FFF73EF94FF02F
:10EAA0008073C4F8D8310D230120C4F85031FFF72A
:10EAB00034F9044B1D665A6E002AFCD170BD00006B
:10EAC0001342C46E050600002F4238B51B4CD4F823
:10EAD0009031DB0605D4BDE83840012118481DF00F
:10EAE000A0B90122174B1A665D6E012DFCD11D23C2
:10EAF0002846C4F85031FFF710F91F232846C4F800
:10EB00005031FFF70AF90023C4F8D8311E23C4F8A6
:10EB1000D8512846C4F85031FFF7FFF81A23284689
:10EB2000C4F85031FFF7F9F81223C4F850312846E1
:10EB3000BDE83840FFF7F1B800BF00001342986EFF
:10EB4000050600002F4270B51C4BD3F8905115F00C
:10EB5000040505D0BDE87040012118481DF061B9D9
:10EB600016231E26174C01202361FFF7D6F801203B
:10EB70002661FFF7D2F80E2301202361FFF7CDF8BD
:10EB800001202661FFF7C9F81C2301202361FFF74C
:10EB9000C4F81D2301202361FFF7BFF80D230120D6
:10EBA0002361FFF7BAF8074B1D655A6D002AFCD1A7
:10EBB0000123C4F8843070BD00BF000013426A6EA8
:10EBC00005060000124200002F4238B5164BD3F85C
:10EBD00090315B0705D4BDE83840012113481DF092
:10EBE00020B90125124B124C1D651D2328462361B7
:10EBF000FFF793F81F2328462361FFF78EF81E23A3
:10EC000028462361FFF789F81A2328462361FFF776
:10EC100084F8122328462361FFF77FF80023C4F805
:10EC2000843038BD00BF000013423B6E0506000073
:10EC30002F420000124270B52C4CD4F8AC3043F097
:10EC40000203C4F8AC30D4F8E0319B07FBD4D4F80D
:10EC5000906116F0080605D0BDE8704001212348F8
:10EC60001DF0DFB8D4F8E431224A43F00203C4F8BF
:10EC7000E431D2F88C301E2543F00203C2F88C3008
:10EC800016230120C4F85431FFF747F80120C4F8D7
:10EC90005451FFF742F80E230120C4F85431FFF716
:10ECA0003CF80120C4F85451FFF737F81C23012029
:10ECB000C4F85431FFF731F81D230120C4F8543152
:10ECC000FFF72BF80D230120C4F85431FFF725F886
:10ECD000D4F8E43123F00203C4F8E431064B9E6516
:10ECE000DA6D002AFCD170BD00BF000013420E6E29
:10ECF00005060000124200002F4270B51A4CD4F8ED
:10ED0000905115F0200505D0BDE87040012116484E
:10ED10001DF087B816231E26A3640120FEF7FDFF11
:10ED20000120A664FEF7F9FF0E230120A364FEF77D
:10ED3000F4FF0120A664FEF7F0FF1C230120A3646A
:10ED4000FEF7EBFF1D230120A364FEF7E6FF0D2372
:10ED50000120A364FEF7E1FF054B9D67DA6F002AEF
:10ED6000FCD170BD00BF00001342E56D0506000038
:10ED70002F4210B5154CD4F890319B0605D4BDE850
:10ED80001040012112481DF04CB81D230120A3643E
:10ED9000FEF7C3FF1F230120A364FEF7BEFF1E235F
:10EDA0000120A364FEF7B9FF1A230120A364FEF734
:10EDB000B4FF12230120A364FEF7AFFF0122044B2E
:10EDC0009A67DA6F012AFCD110BD00001342BB6DB7
:10EDD000050600002F4238B50C46042868D8DFE845
:10EDE00000F0032441707C00752018F0C6FA28B1A9
:10EDF000012C14D1BDE83840FFF71FBE75201BF071
:10EE00001EFB012C06D1FFF718FE7520BDE8384027
:10EE10001BF085BA002CF8D1FFF757FEF5E7002C60
:10EE200046D1BDE83840FFF750BE7A2018F0A5FA69
:10EE300068B97A201BF003FB012C03D1FFF783FE96
:10EE40007A20E3E7002CFBD1FFF7BFFEF8E7012CA7
:10EE500003D1BDE83840FFF776BE4CBBBDE8384073
:10EE6000FFF7B3BE7A2018F088FAB0B97A201BF009
:10EE7000E6FA012C09D1FFF7DEFE3D4AD2F8AC30AC
:10EE800043F00203C2F8AC30DAE7002CD8D1384A9C
:10EE9000D2F8AC3023F00203F4E7012C09D1FFF7DC
:10EEA000CAFE334AD2F8AC3043F00203C2F8AC30A9
:10EEB00038BD002CFCD12E4AD2F8AC3023F002032E
:10EEC000F4E7012903D1BDE83840FFF716BF002958
:10EED000EED1BDE83840FFF74CBF012926D1254DC2
:10EEE000AB6CDA0304D52448BDE838401CF099BF68
:10EEF00040F2EF734FF49670AB64FEF70EFF40F2F2
:10EF0000EE734FF49670AB64FEF707FF40F2FE73AA
:10EF10004FF49670AB64FEF700FF40F2F673AB64FB
:10EF20004FF49670BDE83840FEF7F7BE0029BFD118
:10EF3000114CA36CDB0302D401211048D4E740F24A
:10EF4000FE734FF49670A364FEF7E7FE40F2EE7393
:10EF50004FF49670A364FEF7E0FE40F2EF734FF4B7
:10EF60009670A364FEF7D9FE40F2ED73A364D7E771
:10EF700000BF0000134200701042936D05066A6DD9
:10EF8000050673B5054601A80C4600F0F9FA2DBB3D
:10EF9000694E012C316811D101310129316002D152
:10EFA0002846FFF718FF019800F0F8FA3368FF2BA6
:10EFB0000BD1012161481CF034FF06E041B908463D
:10EFC000FFF709FF019800F0E9FA306802B070BD60
:10EFD000013931600029E6D10846E2E7013D032D01
:10EFE00000F2A280DFE805F00231567B524E012C80
:10EFF000756812D10135012D756003D121460120BC
:10F00000FFF7E9FE019800F0C9FA7368FF2B10D1F1
:10F0100001214A481CF005FF0BE065B90121484871
:10F020001CF0FFFE01202946FFF7D5FE019800F0F5
:10F03000B5FA7068CAE7013D7560002DE2D1012183
:10F0400041481CF0EEFE2946D9E73A4D012CA9684B
:10F0500008D101310129A96011D121460220FFF711
:10F06000BAFE0CE039B90220FFF7B5FE019800F0B6
:10F0700095FAA868AAE70139A9600029EED001989D
:10F0800000F08CFAAB68FF2BF3D101212F481CF064
:10F09000C8FEEEE7284D012CE96808D101310129AD
:10F0A000E96011D121460320FFF795FE0CE039B944
:10F0B0000320FFF790FE019800F070FAE86885E7FA
:10F0C0000139E9600029EED0019800F067FAEB6899
:10F0D000FF2BF3D101211D481CF0A3FEEEE7154DD7
:10F0E000012C296908D101310129296111D1214659
:10F0F0000420FFF770FE0CE039B90420FFF76BFE27
:10F10000019800F04BFA286960E70139296100296C
:10F11000EED0019800F042FA2B69FF2BF3D10121C8
:10F120000C481CF07EFEEEE7019800F037FA4FF035
:10F13000FF304BE700BF9CAA0004117305068272E2
:10F140000506E1720506B1720506547205062A72BB
:10F15000050601720506094BD3F89C2042F0010216
:10F16000C3F89C20D3F8A02022F08072C3F8A0201E
:10F17000D3F89C2042F48032C3F89C2070470000F2
:10F18000134210B5104C0121D4F8A4300F4843F0BD
:10F190000103C4F8A430D4F8A83023F08073C4F875
:10F1A000A830D4F8A43043F48033C4F8A430D4F8A1
:10F1B000A4201CF036FED4F8A8200121BDE81040A0
:10F1C00003481CF02EBE000013423D6D0506106D75
:10F1D0000506064BD3F8A42022F48032C3F8A420FD
:10F1E000D3F8A82042F08072C3F8A820704700002E
:10F1F000134210B5104C0121D4F8D4310F4843F01C
:10F200000103C4F8D431D4F8D83123F08073C4F8A2
:10F21000D831D4F8D43143F48033C4F8D431D4F89D
:10F22000D4211CF0FEFDD4F8D8210121BDE8104006
:10F2300003481CF0F6BD00001342E36C0506B66CF3
:10F240000506094B0121D3F88020084822F48032BA
:10F25000C3F88020D3F8802042F00102C3F8802058
:10F26000D3F880201CF0DDBD00BF000013428D6C80
:10F270000506094B0121D3F88020084822F400320A
:10F28000C3F88020D3F8802042F00202C3F8802027
:10F29000D3F880201CF0C5BD00BF00001342646C91
:10F2A000050608B500F01BFA0B4B1A6852B1002294
:10F2B0001A600122094B114693ED000A4FF47A704F
:10F2C00018F027FE012000F0F2F9044A136803F554
:10F2D0007A73136008BD30E50004E4450004F8AA21
:10F2E00000049F2330B587B0054605A814468DF865
:10F2F0000F3000F045F903232846009304AA0123A8
:10F300000DF10F01FDF767FD059800F047F99DF835
:10F31000103023809DF8113063809DF81230A38057
:10F3200007B030BD1FB5012405230DF10A028DF889
:10F330000C3003A9234600200094FDF74CFD352333
:10F3400000208DF80C30009423460DF10B0203A928
:10F35000FDF741FD9DF80B009DF80A3043EA0020BF
:10F3600004B010BD38B5044610461A4623688B42D7
:10F370000BD9934209D38D189D4206D8A3685B68C8
:10F380001943FDF794F9002038BD0220FCE7002264
:10F3900070B543695C688C425E6853F8085B06D9B7
:10F3A000091B314405FB01224068104470BD05FB78
:10F3B00006225D682C44EEE710B50446FDF7A1FB7C
:10F3C000A06110BD30B544690023204650F8042FD9
:10F3D0008A4202D954F8330030BD013350F833501B
:10F3E0002A44F5E770B5406900240546426855F89F
:10F3F000043B5A432346914210D950F8336016B962
:10F400004FF0FF3070BD55F8336001333444891A32
:10F4100050F8336055F833207243ECE750F833303E
:10F42000B1FBF3F10819EDE7FEF777BC20F00060BF
:10F4300000BA7047014608B5FDF7F5FBBDE8084086
:10F440000846FDF7CEBB08B503460846FFF7EEFFBA
:10F45000DBB220F0FF00184308BD0246002030B5A3
:10F4600003460C4608605069DD0050F8330028B9A7
:10F470004B664FF40073A1F8683030BD44F8040FB8
:10F48000506901332844406820645069284440682A
:10F490000D682844E6E7B0F8BC3000200B607047E8
:10F4A00070B4B0F8BC600D4611461A46039B8EB18D
:10F4B000022D08D0032D09D0012D0BD1D0F8DC404E
:10F4C000A44670BC6047D0F8E040F9E7D0F8D830E7
:10F4D00070BC18476FF00B0070BC7047002307B575
:10F4E00001A8019300F062F8019803B05DF804FBF5
:10F4F00000F06AB810B5FDF7B0FDD0F8B0400A468C
:10F5000090F8C5306179B0F8C600BDE81040FDF74D
:10F51000E0BBD0F8B03001225978FEF72AB9F0B537
:10F520001F46002304460D46164685B003A80393E4
:10F5300000F026F8BDF828303246294620460093D0
:10F540003B46FDF748FC039800F028F805B0F0BDF5
:10F5500080697047037833B90123114381604360A8
:10F5600040F201330360704710B50446FFF7F0FF27
:10F5700002462046FFF7ECFF831A9942F9D210BDEC
:10F58000EFF31183102B036006D0102383F311884F
:10F59000BFF35F8FBFF36F8F0020704780F3118838
:10F5A000BFF35F8FBFF36F8F00207047EFF31183BE
:10F5B000102B036006D0102383F31188BFF35F8FF5
:10F5C000BFF36F8F0020704780F31188BFF35F8F08
:10F5D000BFF36F8F0020704700F071B808B5014687
:10F5E0000120FFF7A4F9002008BD08B5014600205E
:10F5F000FFF79DF9002008BD08B500F054F808BDDC
:10F6000038B50546FFF7F8FF0123AB4013EA0004C5
:10F6100004D1284600F073F8204638BD4FF0FF3083
:10F62000FBE700F07CB818F00CBD012808B510D13C
:10F6300000F02DF872B6EFF31183002282F31188E7
:10F64000BFF34F8F30BFBFF36F8F83F3118862B664
:10F6500008BD0228FCD1BDE80840FEF752BC08B541
:10F66000FFF78FFDFFF7C5FDFFF7EBFDBDE8084095
:10F67000FFF7FFBD08B5FFF72AF8002008BD08B561
:10F68000FFF7A1F8002008BD0000000000005FF8AF
:10F6900000F0098A0B085FF800F05DD507085FF8F5
:10F6A00000F0C5D507085FF800F0A18306085FF8F1
:10F6B00000F0E59308085FF800F041EC05085FF8FA
:10F6C00000F0118206085FF800F0C3DD0B085FF858
:10F6D00000F011B504085FF800F04D8908085FF8E4
:10F6E00000F0A5EC05085FF800F0C9AD07085FF869
:10F6F00000F081890B085FF800F0C1D505085FF8BC
:10F7000000F0258306085FF800F01DEC05085FF89F
:10F7100000F0E1AC0B085FF800F07D4F06085FF8E1
:10F7200000F07583060800000000000000000000E3
:10F73000000000000000FFFF36E8090001000000A3
:10F7400016000000000000000000000000000000A3
:10F7500000000000000000000000000000000000A9
:10F760000000000000000000000000000000000099
:10F770000000000000000000000000000000000089
:10F780000000000000000000000000000000000079
:10F790000000000000000000000000000000000069
:10F7A0000000000000000000000000000000000059
:10F7B0000000000000000000000000000000000049
:10F7C0000000000000000000000000000000000039
:10F7D0000000000000000000000000000000000029
:10F7E0000000000000000000000000000000000019
:10F7F0000000000000000000000000000000000009
:10F8000000000000000000000000000000000000F8
:10F8100000000000000000000000000000000000E8
:10F8200000000000000000000000000000000000D8
:10F8300000000000CD0705080000000000000000E7
:10F8400000000000000000000000000000000000B8
:10F8500000000000000000000000000000000000A8
:10F860000000000000000000000000000000000098
:10F870000000000000000000000000000000000088
:10F880000000000000000000000000000000000078
:10F890000000000000000000000000000000000068
:10F8A0000000000000000000000000000000000058
:10F8B0000000000000000000000000000000000048
:10F8C0000000000000000000000000000000000038
:10F8D0000000000000000000000000000000000028
:10F8E0000000000000000000000000000000000018
:10F8F00078390D0800000000FF0000000000000043
:10F9000000000000000000000000000000000000F7
:10F9100000000000000000000000000000000000E7
:10F9200000000000000000000000000000000000D7
:10F9300000000000000000000000000000000000C7
:10F9400001000000000000004A000000000000006C
:10F9500000000000000000000000000000000000A7
:10F960000000000000000000000000000000000097
:10F970004A0000000000000000000000000000003D
:10F980000000000000000000000000000000000077
:10F990000000000000000000600002000000000005
:10F9A00000000000D55E0408000000000000000018
:10F9B0000000000000000000000000000000000047
:10F9C0000000000000000000C16404080000000006
:10F9D0000000000088FD0C080000120030FE0C083A
:10F9E000000002003CFE0C080000020048FE0C086B
:10F9F0000000020061D104080000000035730B080C
:10FA00000000000019730B08BD890B08C1890B08A1
:10FA1000D0360004D036000400000000D5A107084D
:10FA20000000000000000000F1C801048000000098
:10FA300035C9010400000000F1C801048000000085
:10FA400035C9010400000000F1C801048000000075
:10FA500035C901040000000000000000A9ED040801
:10FA60000000000000000000000000006D0D05080F
:10FA7000000000000000000000000000B9F50408CC
:10FA80000000000000000000483700044837000470
:10FA9000000000000000000069480508B95D050885
:10FAA000DD5C05080000000000000000E9510508C9
:10FAB000114F0508A54E05089145050800000000F6
:10FAC0000000000000000000000000000000000036
:10FAD000000000006976050800000000000000003A
:10FAE0003D9B0B080000000000000000000000002B
:10FAF00060FE0C0800002000000000000000000074
:10FB000000000000000000000000000000000000F5
:10FB100000000000396605080000000074FE0C08B3
:10FB20000000020080FE0C08000002008CFE0C08A1
:10FB300000000200F18F050800000000C0C20400B0
:10FB40001A04000060EA000002060304000001013C
:10FB5000FFFFFFFF10270000D0070000FFFFFFFF9F
:10FB600000000D4200000C4200000B421400000097
:10FB7000140000000048E801007D000080BA8C01FC
:10FB800000751903000010420000555505000000E3
:10FB90000000034040000000FFFFFFFFFFFFFFFFEA
:10FBA0000000000000000000000000000001040050
:10FBB00000000000030003000A000A0A0001000020
:10FBC0002CE30C08FFFFFFFF010000000300000012
:10FBD000000000000000000000100E000001030003
:10FBE0000200000000000000000000000000000013
:10FBF000000000000000000000100E0000010300E3
:10FC000001000000000000000000000000000000F3
:10FC1000000000000000000000100E0000010301C1
:10FC200000000000000000000000000000000000D4
:10FC300000000000000000004FB1010449B10104C0
:10FC400043B101043DB1010437B1010431B10104F4
:10FC50002BB1010425B10104EBB00104E5B00104AE
:10FC6000DFB00104D9B00104D3B00104CDB0010468
:10FC7000C7B00104C1B0010461B50B084DB50B0854
:10FC80000000000025E306083FB50B08F9E206086E
:10FC900065E20608543900045439000401000000EC
:10FCA0000100000064390004643900040000000011
:10FCB000FF0F0000010000007F00000002000000B4
:10FCC000C10B0708A50D0708000000000000000098
:10FCD0000000000000000000000000000000000024
:10FCE000E53D0708C14207080000000000000000D1
:10FCF000854407080000000000000000000000002C
:10FD000000000000000000000000000000000000F3
:10FD10000000000000000000A13D0708A541070801
:10FD200000000000BB190D0800001000DD190D08CF
:10FD300000000E00010000000000000000000000B4
:10FD400001010000000000000000000000000000B1
:10FD50000000000000000000010000004C3A000418
:10FD6000C5A7070821A80708FFFFFFFF0000000044
:10FD70000800000000000000519C070847CF0B0856
:10FD8000FFFFFFFF00000000060000000000000071
:10FD90000000000000000000000000000000000063
:10FDA000000000000000000000000000B80B000090
:10FDB000851F0D089F1F0D08CC1F0D08E91F0D089A
:10FDC000FE1F0D081A200D082D200D0847200D08D4
:10FDD00063200D089F200D08E5200D08FC200D086C
:10FDE00014210D0831210D0848210D0861210D084D
:10FDF0007B210D089C210D08AB210D08BA210D08AF
:10FE0000C9210D08D8210D08E7210D08F6210D089C
:10FE100005220D0814220D0823220D0832220D0898
:10FE200041220D0850220D085F220D086E220D0898
:10FE300079280D087D220D088C220D089F220D08BF
:10FE4000B2220D08C5220D08D8220D08EB220D089C
:10FE5000FE220D0813230D0828230D083D230D084D
:10FE60004E230D085D230D086C230D087B230D0820
:10FE70008A230D0899230D08A8230D08B7230D0820
:10FE8000C6230D08D5230D08E4230D08F3230D0820
:10FE900002240D0811240D0820240D082F240D081C
:10FEA0003E240D084D240D085C240D086B240D081C
:10FEB0007A240D0889240D0898240D08A7240D081C
:10FEC000B6240D08C5240D08D4240D08E3240D081C
:10FED000F2240D0801250D0810250D081F250D0819
:10FEE0002E250D086E250D087E1E0D088E250D0889
:10FEF000C7250D08FF250D08000000003E260D084F
:10FF000054260D086C260D087C260D0891260D0838
:10FF1000A5260D087E1E0D087E1E0D087E1E0D08EE
:10FF2000B6260D08C9260D08E6260D0807270D0878
:10FF30001F270D083E270D0854270D0871270D08AF
:10FF40000500000000000000000000002376584378
:10FF5000E2280D0824765843E9280D0825765843F1
:10FF6000F0280D0826765843FA280D0827765843BE
:10FF700001290D0800000000000000000000000042
:10FF80000000000000000000000000000000000071
:10FF90000000000000000000000000000000000061
:10FFA0000000000000000000000000000000000051
:10FFB0000000000000000000000000000000000041
:10FFC0000000000000000000000000000000000031
:10FFD0000000000000000000000000000000000021
:10FFE0000000000000000000000000000000000011
:10FFF0000000000000000000000000000000000001
:020000040802F0
:1000000000000000000000000000000000000000F0
:1000100000000000FFFFFFFF00000000A5D9070857
:1000200000000000000000000000000000000000D0
:1000300000000000000000000000000000000000C0
:1000400000000000000000000000000001000000AF
:10005000000000000000000081E20708000000002E
:10006000000000000000000011E007080000000090
:100070000000000000000000D1E9070800000000B7
:10008000000000000000000049EA0708000000002E
:10009000000000000000000061F3070800000000FD
:1000A0000000000000000000000000000000000050
:1000B0000000000001000000B200B200B200B20077
:1000C000B200B2006A000000000000000000000062
:1000D0000000000000000000000000000000000020
:1000E0000000000000000000000000000000000010
:1000F0000000000000000000000000000000000000
:1001000000000000000000000000000099FB07084C
:10011000000000000000000000000000F9FE0708D9
:10012000000000000000000020FF0C080000040098
:1001300000000000000000000000000000000000BF
:10014000000000000000000049090808000000004D
:100150000000000034FF0C08000012000000000046
:10016000000000000000000000000000000000008F
:1001700000000000950608080000000000000000D4
:1001800048FF0C0800001200000000000000000002
:10019000000000000000000000000000000000005F
:1001A000A506080800000000000000005CFF0C0825
:1001B0000000120068FF0C080000020074FF0C0829
:1001C0000000020000000000BD210808000000003F
:1001D0000000000000000000493F08080000000087
:1001E0000000000000000000093F080800000000B7
:1001F0000000000000000000FD45080800000000AD
:1002000000000000A4020104455A0808A559080886
:10021000B5D90B08B7D90B088158080891580808B8
:10022000B1580808A1580808C1580808B9D90B08DE
:10023000055F0808D1580808000000000000000011
:10024000F960080809DA0B08C160080819DA0B0818
:100250002B6D0304310A0204DD6208086D0A0204F2
:10026000A90A0204050B0204276D0304956308081C
:100270000000000000000000E56608081DDA0B0819
:1002800029DA0B082BDA0B0889650808A16508082C
:10029000D1650808B9650808E96508082DDA0B0872
:1002A00031DA0B085D67080800000000000000005C
:1002B00000000000356E080800000000000000008B
:1002C000B8EB000401000000883F0004883F0004F0
:1002D0002A340D082A340D089C3F00040000000059
:1002E0004CFD0C082CFD0C080CFD0C080000000057
:1002F00000000000000000000000000000000000FE
:1003000000000000000000000000000000000000ED
:1003100000000000000000000000000000000000DD
:1003200000000000000000000000000000000000CD
:100330000000000000000000000000009CC100045C
:100340002062A00FFFFF8E038E038E032003C904DB
:10035000C904C9042003AA05AA05AA0520034C0460
:100360004C044C048E03C904C904C9048E03AA05B5
:10037000AA05AA058E038E038E038E032003C904EB
:100380008E038E032003AA058E038E0320034C04E4
:100390004C044C048E03C9044C044C048E03AA057F
:1003A0004C044C048E03F8029D038E0320030000CE
:1003B00000010101E807000000000000010000004A
:1003C000020000000300000004000000050000001F
:1003D000060000003000C203FFFFFFFF0A0A0A0AFE
:1003E0000A0A0A0A0A0A0A0A080505061118171D48
:1003F0002D800100000000D0070000000000000177
:10040000FFFF00000100000000D007000000000016
:100410000001FFFF00000100000000D00700000005
:1004200000000001FFFF0000010000C8006400C8D8
:10043000000000F40101FFFF0000010000C800649B
:1004400000C8000000F40101FFFF0000010000C827
:10045000006400C8000000F40101FFFF000001007B
:1004600000C8006400C800F40100000201FF0000A1
:10047000010000C8006400C800F40100000201FF90
:100480000000010000C8006400C800F40100000280
:1004900001FF0000010000C8006400C800F401E88A
:1004A0000302FFFF0000010000C8006400C800F460
:1004B00001E80302FFFF0000010000C8006400C85B
:1004C00000F401E80302FFFF0000010000F401F462
:1004D00001F401000000000AFFFF0000010000F429
:1004E00001F401F401000000000AFFFF0000010018
:1004F00000F401F401F401000000000AFFFF000015
:10050000010000C80064000000C800000002FFFFF6
:100510000000010000C80064000000C800000002E4
:10052000FFFF0000010000C80064000000C80000D8
:100530000002FFFF0000010000C80064000000C8C6
:100540000000000101FF0000010000C8006400007D
:1005500000C80000000101FF0000010000C80064A5
:10056000000000C80000000101FF0000010000C8F9
:100570000064000000C80000000201FF000001004C
:1005800000C80064000000C80000000201FF000075
:10059000010000C80064000000C80000000201FF64
:1005A00000000100000000000000000000F4010154
:1005B000010000000100000000000000000000F445
:1005C0000101010000000100000000000000000027
:1005D00000F4010101000000010000C8006400C82F
:1005E00000F401A00F0101960000010000C80064A2
:1005F00000C800F401A00F0101960000010000C82E
:10060000006400C800F401A00F0101960000010180
:1006100001010148010000010005010101FB02FF89
:10062000FF0405060701010101FFFFFFFFFFFFFFB8
:10063000FFFFFFFF096DEB98E96DEB98E96DEB9813
:10064000E9000000000000000000000000000000C1
:1006500000313233343536373800000000000000F6
:1006600000313233343536373800000000000000E6
:10067000000000000000000000000000000000007A
:1006800000313233343536373800000000000000C6
:10069000000000000000000000000000000000005A
:1006A000001112131415161718191A1B1C1D1E1FE2
:1006B000201112131415161718191A1B1C1D1E1FB2
:1006C000200000000000000000000000000000000A
:1006D000001112131415161718191A1B1C1D1E1FB2
:1006E00020000000000000000000000000000000EA
:1006F000000102030405060708090A0B0C0D0E0F82
:10070000100102030405060708090A0B0C0D0E0F61
:1007100010000000000000000000000000000000C9
:10072000000102030405060708090A0B0C0D0E0F51
:10073000100000000000000001FFFEFDFC020301AC
:10074000FFFEFDFC04050000000000000001FFFEAC
:10075000FDFC0607313233343536373811121314A5
:1007600015161718191A1B1C1D1E1F200102030441
:1007700005060708090A0B0C0D0E0F106DEB98E922
:100780000700000000000008000000000000090051
:10079000000000000001FF01001C290D08562D0D6E
:1007A000082C000120290D08272D0D082F000225F7
:1007B000290D08062D0D082100032A290D08C12C3A
:1007C0000D0845000434290D086B2C0D0856000552
:1007D00041290D08302C0D083B00064B290D08F768
:1007E0002B0D083900075A290D08B22B0D084500BA
:1007F0000864290D08772B0D083B00096E290D08A8
:10080000492B0D082E000A77290D081D2B0D082CE9
:10081000000B7E290D081A2A0D0803010C86290DEC
:1008200008B1290D0826000D9A290D08D7290D08B1
:100830004300100A0000000000000000000000005B
:100840000000000000FF00000000000000000000A9
:10085000000000000000000412180F18041218060F
:10086000050C0901A101850A19002AFF0F150026B0
:10087000FF0F9502751081000902A10205091901F7
:10088000290A1501250A950175088140C0C0050196
:100890000906A1018509050719E029E715002501C9
:1008A000750195088102950575010508190129054D
:1008B000910295017503910395067508150025FFB2
:1008C0000507190029658100C005010902A1010978
:1008D00001A1008502951075011500250105091972
:1008E0000129108102050116018026FF7F751095F0
:1008F000020930093181061581257F7508950109A6
:100900003881069501050C0A38028106C0C0020133
:1009100009010A01000000020101010309000000B1
:10092000000014426F1203420400000000010000A6
:1009300000000000000000000000000000000000B7
:1009400000000000000000000000000000000000A7
:100950000000000000000000000000000000000097
:100960000000000000000000000000000000000087
:100970007995080800000000000000000000000059
:10098000404600044046000499F2070800000000B9
:100990000000000000000000000000000000000057
:1009A0000000000000000000000000000000000047
:1009B0007995080800000000000000000000000019
:1009C0008046000480460004F16908080000000029
:1009D0000000000000000000000000000000000017
:1009E0000000000000000000000000000000000007
:1009F00079950808000000000000000000000000D9
:100A0000C0460004C0460004DD7C0408000000006D
:100A100000000000000000000000000000000000D6
:100A200000000000000000000000000000000000C6
:100A30007995080800000000000000000000000098
:100A40000047000400470004217F04080000000064
:100A50000000000000000000000000000000000096
:100A60000000000000000000000000000000000086
:100A70007995080800000000000000000000000058
:100A80004047000440470004F5E907080000000063
:100A90000000000000000000000000000000000056
:100AA0000000000000000000000000000000000046
:100AB0007995080800000000000000000000000018
:100AC0008047000480470004C1440808000000007B
:100AD0000000000000000000000000000000000016
:100AE0000000000000000000000000000000000006
:100AF00079950808000000000000000000000000D8
:100B0000C0470004C0470004F54308080000000087
:100B100000000000000000000000000000000000D5
:100B200000000000000000000000000000000000C5
:100B30007995080800000000000000000000000097
:100B4000004800040048000461C00B0800000000D9
:100B50000000000000000000000000000000000095
:100B60000000000000000000000000000000000085
:100B70007995080800000000000000000000000057
:100B800040480004404800046DE9070800000000E8
:100B90000000000000000000000000000000000055
:100BA0000000000000000000000000000000000045
:100BB0007995080800000000000000000000000017
:100BC0008048000480480004394D040800000000FB
:100BD0000000000000000000000000000000000015
:100BE0000000000000000000A8480004A84800041D
:100BF00000000000AC6901040000000002000000D9
:100C0000340000000000000000000000CC48000498
:100C1000CC48000400000000A8040104000000000B
:100C200002000000C0000000000000000000000002
:100C3000F0480004F048000400000000146A0104B9
:100C400000000000030000001C0000000000000085
:100C50000000000000000000280A01040038000025
:100C60000000000000000000000000002C4900040B
:100C70002C49000400000000000000000E000000ED
:100C80000000000044490004444900040000000042
:100C9000000000000E000000000000005C4900049D
:100CA0005C49000400000000000000000E0000008D
:100CB00000000000744900047449000400000000B2
:100CC000000000000E000000000000008C4900043D
:100CD0008C49000400000000000000000E0000002D
:100CE00000000000A4490004A44900040000000022
:100CF000000000000E00000000000000BC490004DD
:100D0000BC4900040100000001000000CC490004BF
:100D1000CC49000400000000D8490004D849000470
:100D20000000000001000000E8490004E849000458
:100D300000000000000000000000000000000000B3
:100D4000004A0004004A0004084A0004084A00045B
:100D50000000000000000000000000000000000093
:100D6000204A0004204A0004284A0004284A0004BB
:100D70000000000000000000000000000000000073
:100D8000404A0004404A0004484A0004484A00041B
:100D90000000000000000000060006000400000043
:100DA000E101050814BD0C082864010400000000DE
:100DB0000000000000000000784A0004784A0004A7
:100DC000804A0004804A0004000000000000000087
:100DD00003000300100000000000000030BE0C08FB
:100DE000D8670104000000000000000000000000BF
:100DF000B04A0004B04A0004B84A0004B84A0004EB
:100E000000000000000000000300030010000000CC
:100E1000A14F0508D8BE0C08346901040000000089
:100E20000000000000000000E84A0004E84A000456
:100E3000F04A0004F04A0004000000000000000036
:100E400003000300010000000000000024BD0C08A6
:100E50005C650104000000000000000000000000CC
:100E6000204B0004204B0004284B0004284B0004B6
:100E700000000000000000000A000A00010000005D
:100E80000000000004BD0C08F04401040000000054
:100E90000000000000000000584B0004584B000404
:100EA000604B0004604B00040000000000000000E4
:100EB0000200020010000000CD22050820BE0C0830
:100EC000A86601040000000000000000000000000F
:100ED000904B0004904B0004984B0004984B000486
:100EE00000000000000000000200020001000000FD
:100EF00000000000ECBD0C0870660104000000005A
:100F00000000000000000000C84B0004C84B0004B3
:100F1000D04B0004D04B0004000000000000000093
:100F200001000100010000000000000034BD0C08B9
:100F3000BC6501040000000000000000000000008B
:100F4000004C0004004C0004084C0004084C000451
:100F50000000000000000000020002000800000085
:100F60000000000024E50C082C74010412010002AA
:100F7000000000408D0E80080703010203010902F2
:100F80000000000100E0320904000001030100003C
:100F90000921110100012200000705800340000122
:100FA00007050003400001090400000103010000DF
:100FB0000921110100012200000705800340000102
:100FC00007050003400001090400000103010000BF
:100FD00009211101000122000007058003400001E2
:100FE00007050003400001040309041A034D65646A
:100FF000696174656B20496E6300000000000000A9
:10100000000000000030034169726F6861204849A8
:10101000442044656D6F2050726F6A6563740000F0
:1010200000000000000000000000000000000000C0
:1010300000000000002203303030303030303030DB
:101040003030303030303000000000000000000050
:10105000000000000000000A06000200000040013D
:10106000000000FF00000000474C000419E60408DF
:10107000BDB2010435E704080000000059E6040889
:10108000020000000837000400000000674C000464
:1010900019E60408BDB2010435E7040800000000A9
:1010A00059E6040802000000F836000400000000C1
:1010B000874C000419E60408BDB2010435E70408B2
:1010C0000000000059E6040802000000E8360004B1
:1010D000090400000103010000092111010001229F
:1010E00000000705800340000107050003400001E0
:1010F000090400000103010000092111010001227F
:1011000000000705800340000107050003400001BF
:10111000090400000103010000092111010001225E
:10112000000007058003400001070500034000019F
:1011300000000000904D000419E60408BDB201044F
:1011400035E704080000000059E60408020000002A
:101150000837000400000000B04D000419E6040840
:10116000BDB2010435E704080000000059E6040898
:1011700002000000F836000400000000D04D00041A
:1011800019E60408BDB2010435E7040800000000B8
:1011900059E6040802000000E836000410B5094BC7
:1011A000196888420CBF1A460022194651F8204F90
:1011B000A04208BF0A4653F8401F884214BF104699
:1011C000184610BDDCB700042DE9F04F4FF00009C0
:1011D000DFF8AC8087B04FF48062414605AB04462F
:1011E000D0F804A0CDF8149004F094FC059E46B904
:1011F0000123032130461E4A07F05EFD07B0BDE81B
:10120000F08F98F80070B3B2009302223B4621465B
:10121000184800F018F90546D8B1D0F810B0BBF165
:10122000000F16D0006803F049FACDF808B02B681B
:101230004946CDE90003104A4846032307F03CFD28
:101240003A4602212046BDF81430CDF80080D84738
:10125000D4E7CDE90276DAF8203002211B7B0020AA
:10126000CDE90043054A042307F026FDC6E700BF89
:101270009F050206B0B60004880502064205020674
:101280001C8A04042DE9FF470546FFF787FF044643
:10129000002851D00127002190F8179090F818A04D
:1012A000477504230846264ACDE9029ACDE900573E
:1012B00007F002FD4B463A4629462248CDF800A0E9
:1012C00000F0C1F80646C8B1D0F81080B8F1000FA0
:1012D00014D0006803F0F2F90021CDF808803368DB
:1012E000194ACDE900030846032307F0E5FC002373
:1012F0004A460093394653462846C047637DDBB1D2
:101300000526124C124F6368AB4211D123697BB1A1
:1013100028469847206803F0D1F9002123693A460E
:1013200002932368CDE900030323084607F0C4FCB9
:10133000013E04F11404E6D104B0BDE8F08700BF1B
:10134000F00502064CB60004D1050206E8B500041B
:10135000B205020630B5002104460B4B00221D7A6F
:1013600090B2854206D80831182903F12003F5D13F
:10137000002007E05868805C0132A042F0D1186874
:101380000028F0D030BD00BFDCB700042DE9F04FDD
:10139000002685B0824608460D4691461F460396B4
:1013A000FFF7FCFE0446002843D0002F44D0B9F1DB
:1013B000000F41D055B9012328461946204A07F0AD
:1013C0007BFC6FF00B0005B0BDE8F08F6B681B6A0B
:1013D000197901F07F0B5846019107F039F801990E
:1013E000804690B1637D53B1637E03B93E7800239C
:1013F000E675637584F8189084F816A00BE0267ED5
:10140000002EF1D06FF00F00DDE75846C9091EF03D
:10141000BEFC0028F6D04A463946284603AB00F009
:101420008DF90028CFD0B8F1000FCCD0012363751F
:10143000C9E76FF01200C6E76FF00D00C3E700BF09
:101440006708020670472DE9F843044608460E4631
:1014500015461F46BDF8209002F07F08FFF79EFE5C
:10146000C0B1B8F1010F04F1640315D1427E02B39B
:1014700045F0800562682046964207D1227AAA424A
:1014800004D162894A4501D1227B1AB91434A3429E
:10149000F0D10020BDE8F883B8F1020F01D1827EBF
:1014A000E5E7B8F1030F04D1C27E002AE0D1027F44
:1014B000DDE76268204696420BD1227AAA4208D123
:1014C000627ABA4205D162894A4502D1227B002A5A
:1014D000E0D114349C42ECD1DBE700002DE9F04F61
:1014E00085B00546984604F0B9F80F461646814681
:1014F000002800F08480C48893B29C4228BF1C4618
:101500000021A31AD3F1000B4BEB030BCDE90052E2
:1015100004230846CDE9024B3A4A07F0CDFB802D63
:1015200059D1DFF8ECA0002C3CD006F0B7FF0546FF
:1015300070B1012300201946334A07F0BDFB022396
:101540008AF804300024B8F1000F55D1002026E0BD
:101550003A46214600F0C8F8B442074606D02A466B
:101560002946012020F072FC02250CE0B9F8062083
:101570002946121B18BF0122012020F067FCB9F890
:101580000630A342F0D08AF80450002FDBD00021AF
:10159000012308461D4A07F08FFB6FF0040005B0D9
:1015A000BDE8F08F9AF804303BB9002FCAD15A46F3
:1015B0003946012020F04AFCC4E7032B5A46214655
:1015C00001D12046F6E7042020F040FC002EB9D1DE
:1015D0008AF80460B6E725F080051CB9284600F0BB
:1015E0004DF8AFE73A462146284600F07DF8074619
:1015F000284600F043F8C8E7C8F80040A6E76FF0B7
:101600001500CCE7EE690106C0690106A76901066D
:10161000CCAD000470B429B142B90121144870BCAA
:1016200007F032BB12B901211248F8E7124B03EB65
:101630008000930706D011448A420ED012F8013B75
:101640000370F9E78C081546234601F0030133B90E
:1016500002EB840211448A4206D170BC704755F8EF
:10166000046B013B0660F2E712F8013B0370F2E7FE
:101670006F5B05063D5B05062000024137B5044659
:1016800040F2EF72002106F0BFFD0021204606F077
:10169000F5FD01A8EAF7A7FE0121114AA1408DB28C
:1016A0001048E3B29373A2F88650037843FA04F427
:1016B00014F001040BBF0B438B43DBB2A2F8845040
:1016C00008BFA2F884400370538A538A9BB243F048
:1016D000010353820198EAF794FE002003B030BD65
:1016E00000000241F7C6000408B5FFF793FF002091
:1016F00008BD00002DE9F34705460F469046994680
:101700000426DFF834A04B46424639462846FFF708
:10171000E5FE10F10B0F04460AD10123524619468B
:101720000020009507F0C8FA03F0AAFF013EEAD1B5
:10173000204602B0BDE8F0870F9B000670B54468F4
:101740000069C57C3DB1007D28B9206ABDE87040C4
:101750000079FFF7CFBF012302210020024A07F0E2
:10176000ABFA6FF00A0070BD81CC00060023C360A5
:101770000382704710B48468034674B1E26862B1B2
:101780005A7C80694AB1D9680131C1EB8202002AD2
:10179000B8BF5242012A03DDD9605DF8044B70479F
:1017A0000022DA60E36801215DF8044B184700006D
:1017B00038B50B4B04461D68EB6B53B9242020F061
:1017C0000DFD0246E86320B9064B3221064800F0C1
:1017D000A1FCE96B2046BDE8384000F007B800BF27
:1017E000983F0004B3330D08CA330D082DE9F041CA
:1017F0000C46804600F0BAFD05462146404600F002
:10180000B9FD43690446990703F26C7706D1642257
:1018100097FBF2F302FB1373002B70D14FF4C872E5
:1018200097FBF2F302FB1373B3FA83F35B093022E5
:10183000634E02FB036600F0BFFA00F0C9FA614B89
:101840001B68002B6AD06B68BB425AD12F68D8E95D
:101850000023D5E90801002F5BD1824273EB01011F
:101860005EDB012323622B6D4FF46162616893FBA1
:10187000F2F002FB10333C2293FBF2F502FB15322F
:101880002368491B9B1AA2686160121A3B2B2360D4
:10189000A26051DD01313C3B6160236063683B2BFA
:1018A00050DD01323C3BA2606360A368172B4FDD23
:1018B000E269183B0132A3602369E261A269013247
:1018C000072AA8BF0022A261E2680132E26056F84E
:1018D00023108A420EDD0B2BA2EB0102E26003F122
:1018E000010205BF636900222261013302BF226148
:1018F000E261636100F066FA2046BDE8F0810123F1
:1019000095E7384600F0B0F900289FD14FF0FF333B
:1019100004E0824273EB010102DA0023236209E052
:10192000D5E9120182428B41B4BF01230023236217
:10193000002B98D1AB6A97E7002BAFDA01393C3323
:101940006160AAE7002BB0DA013A3C33A260ABE752
:10195000002BCFDAE2691833013AA360E261A26991
:10196000013A48BF0622A261E268013AE260002A19
:10197000C0D12369013B05D42361236956F8233084
:10198000E360B7E70B23236163695A1E03F26B73AD
:101990006261920705D1642193FBF1F201FB1232DF
:1019A00062B94FF4C87293FBF2F102FB1133B3FA40
:1019B00083F35B0903F5B673E361DEE70123F9E71F
:1019C000ACFC0C0890C100040FB40A4B13B51C68A2
:1019D00024B1A36913B9204600F0FCFB05AB049ABF
:1019E000A1682046019300F0BFFE02B0BDE81040A0
:1019F00004B07047983F00040CB4184B30B50C1E6F
:101A00009DB01D6808DA8B234FF0FF302B601DB0AE
:101A1000BDE8304002B070474FF402730290069068
:101A200002A9ADF8143014BF04F1FF332346209A05
:101A30002846049307934FF6FF73ADF8163021AB99
:101A4000019300F095FD431CBCBF8B232B60002C41
:101A5000DDD0029B00221A70D9E700BF983F000436
:101A6000242B2DE9F0478646904601D8012B06D15C
:101A700020F09CFA162303600020BDE8F0870D4695
:101A800035482A4615F8014B065D16F00806F8D1D0
:101A90002D2C24D12C780126951C2BBB302C30D03A
:101AA0000A2306F1004C00220CF1FF3C1046BCFB5F
:101AB000F3F903FB19CAA4F13007092F28D83C46D3
:101AC000A34234DD571C07D081452DD301D1A24557
